20170803-21:50:15.726 : 8=FIX.4.2|9=130|35=A|34=1|49=TEOUTBOUND|50=sim|52=20170803-21:50:15.726|56=QBSIM_CME|57=G|142=US,NY|1603=QBTE|1604=1.0|1605=QB|98=0|108=30|1028=N|10=208|
20170803-21:50:45.729 : 8=FIX.4.2|9=130|35=A|34=2|49=TEOUTBOUND|50=sim|52=20170803-21:50:45.729|56=QBSIM_CME|57=G|142=US,NY|1603=QBTE|1604=1.0|1605=QB|98=0|108=30|1028=N|10=215|
20170803-21:51:15.729 : 8=FIX.4.2|9=130|35=A|34=3|49=TEOUTBOUND|50=sim|52=20170803-21:51:15.729|56=QBSIM_CME|57=G|142=US,NY|1603=QBTE|1604=1.0|1605=QB|98=0|108=30|1028=N|10=214|
20170803-21:51:45.728 : 8=FIX.4.2|9=130|35=A|34=4|49=TEOUTBOUND|50=sim|52=20170803-21:51:45.728|56=QBSIM_CME|57=G|142=US,NY|1603=QBTE|1604=1.0|1605=QB|98=0|108=30|1028=N|10=217|
20170803-21:52:15.729 : 8=FIX.4.2|9=130|35=A|34=5|49=TEOUTBOUND|50=sim|52=20170803-21:52:15.729|56=QBSIM_CME|57=G|142=US,NY|1603=QBTE|1604=1.0|1605=QB|98=0|108=30|1028=N|10=217|
20170803-21:52:45.729 : 8=FIX.4.2|9=130|35=A|34=6|49=TEOUTBOUND|50=sim|52=20170803-21:52:45.729|56=QBSIM_CME|57=G|142=US,NY|1603=QBTE|1604=1.0|1605=QB|98=0|108=30|1028=N|10=221|
20170803-21:53:15.728 : 8=FIX.4.2|9=130|35=A|34=7|49=TEOUTBOUND|50=sim|52=20170803-21:53:15.728|56=QBSIM_CME|57=G|142=US,NY|1603=QBTE|1604=1.0|1605=QB|98=0|108=30|1028=N|10=219|
20170803-21:53:45.729 : 8=FIX.4.2|9=130|35=A|34=8|49=TEOUTBOUND|50=sim|52=20170803-21:53:45.729|56=QBSIM_CME|57=G|142=US,NY|1603=QBTE|1604=1.0|1605=QB|98=0|108=30|1028=N|10=224|
20170803-21:54:15.729 : 8=FIX.4.2|9=130|35=A|34=9|49=TEOUTBOUND|50=sim|52=20170803-21:54:15.729|56=QBSIM_CME|57=G|142=US,NY|1603=QBTE|1604=1.0|1605=QB|98=0|108=30|1028=N|10=223|
20170803-21:54:45.729 : 8=FIX.4.2|9=131|35=A|34=10|49=TEOUTBOUND|50=sim|52=20170803-21:54:45.728|56=QBSIM_CME|57=G|142=US,NY|1603=QBTE|1604=1.0|1605=QB|98=0|108=30|1028=N|10=010|
20170803-21:55:15.014 : 8=FIX.4.2|9=131|35=A|34=11|49=TEOUTBOUND|50=sim|52=20170803-21:55:15.014|56=QBSIM_CME|57=G|142=US,NY|1603=QBTE|1604=1.0|1605=QB|98=0|108=30|1028=N|10=253|
20170803-21:55:45.040 : 8=FIX.4.2|9=131|35=A|34=12|49=TEOUTBOUND|50=sim|52=20170803-21:55:45.040|56=QBSIM_CME|57=G|142=US,NY|1603=QBTE|1604=1.0|1605=QB|98=0|108=30|1028=N|10=000|
20170803-21:56:15.067 : 8=FIX.4.2|9=131|35=A|34=13|49=TEOUTBOUND|50=sim|52=20170803-21:56:15.067|56=QBSIM_CME|57=G|142=US,NY|1603=QBTE|1604=1.0|1605=QB|98=0|108=30|1028=N|10=008|
20170803-21:56:45.094 : 8=FIX.4.2|9=131|35=A|34=14|49=TEOUTBOUND|50=sim|52=20170803-21:56:45.094|56=QBSIM_CME|57=G|142=US,NY|1603=QBTE|1604=1.0|1605=QB|98=0|108=30|1028=N|10=012|
20170803-21:57:15.124 : 8=FIX.4.2|9=131|35=A|34=15|49=TEOUTBOUND|50=sim|52=20170803-21:57:15.124|56=QBSIM_CME|57=G|142=US,NY|1603=QBTE|1604=1.0|1605=QB|98=0|108=30|1028=N|10=005|
20170803-21:57:15.125 : 8=FIX.4.2|9=74|35=A|34=1|49=QBSIM_CME|52=20170803-21:57:15.123|56=TEOUTBOUND|98=0|108=30|10=184|
20170803-21:57:15.125 : 8=FIX.4.2|9=71|35=2|34=2|49=QBSIM_CME|52=20170803-21:57:15.123|56=TEOUTBOUND|7=1|16=0|10=009|
20170803-21:57:15.125 : 8=FIX.4.2|9=127|35=4|34=1|43=Y|49=TEOUTBOUND|52=20170803-21:57:15.125|56=QBSIM_CME|57=G|122=20170803-21:57:15.125|142=US,NY|36=16|123=Y|1028=N|10=152|
20170803-21:57:45.151 : 8=FIX.4.2|9=92|35=0|34=16|49=TEOUTBOUND|50=sim|52=20170803-21:57:45.151|56=QBSIM_CME|57=G|142=US,NY|1028=N|10=076|
20170803-21:57:45.151 : 8=FIX.4.2|9=62|35=0|34=3|49=QBSIM_CME|52=20170803-21:57:45.149|56=TEOUTBOUND|10=152|
20170803-21:58:15.177 : 8=FIX.4.2|9=92|35=0|34=17|49=TEOUTBOUND|50=sim|52=20170803-21:58:15.177|56=QBSIM_CME|57=G|142=US,NY|1028=N|10=083|
20170803-21:58:15.177 : 8=FIX.4.2|9=62|35=0|34=4|49=QBSIM_CME|52=20170803-21:58:15.175|56=TEOUTBOUND|10=150|
20170803-21:58:45.202 : 8=FIX.4.2|9=92|35=0|34=18|49=TEOUTBOUND|50=sim|52=20170803-21:58:45.202|56=QBSIM_CME|57=G|142=US,NY|1028=N|10=076|
20170803-21:58:45.202 : 8=FIX.4.2|9=62|35=0|34=5|49=QBSIM_CME|52=20170803-21:58:45.200|56=TEOUTBOUND|10=143|
20170803-21:59:15.227 : 8=FIX.4.2|9=92|35=0|34=19|49=TEOUTBOUND|50=sim|52=20170803-21:59:15.227|56=QBSIM_CME|57=G|142=US,NY|1028=N|10=082|
20170803-21:59:15.227 : 8=FIX.4.2|9=62|35=0|34=6|49=QBSIM_CME|52=20170803-21:59:15.225|56=TEOUTBOUND|10=149|
20170803-21:59:45.252 : 8=FIX.4.2|9=92|35=0|34=20|49=TEOUTBOUND|50=sim|52=20170803-21:59:45.252|56=QBSIM_CME|57=G|142=US,NY|1028=N|10=075|
20170803-21:59:45.252 : 8=FIX.4.2|9=62|35=0|34=7|49=QBSIM_CME|52=20170803-21:59:45.250|56=TEOUTBOUND|10=151|
20170803-22:00:15.284 : 8=FIX.4.2|9=92|35=0|34=21|49=TEOUTBOUND|50=sim|52=20170803-22:00:15.284|56=QBSIM_CME|57=G|142=US,NY|1028=N|10=065|
20170803-22:00:15.284 : 8=FIX.4.2|9=62|35=0|34=8|49=QBSIM_CME|52=20170803-22:00:15.282|56=TEOUTBOUND|10=141|
20170803-22:00:45.308 : 8=FIX.4.2|9=92|35=0|34=22|49=TEOUTBOUND|50=sim|52=20170803-22:00:45.308|56=QBSIM_CME|57=G|142=US,NY|1028=N|10=066|
20170803-22:00:45.308 : 8=FIX.4.2|9=62|35=0|34=9|49=QBSIM_CME|52=20170803-22:00:45.306|56=TEOUTBOUND|10=142|
20170803-22:01:15.332 : 8=FIX.4.2|9=92|35=0|34=23|49=TEOUTBOUND|50=sim|52=20170803-22:01:15.332|56=QBSIM_CME|57=G|142=US,NY|1028=N|10=062|
20170803-22:01:15.332 : 8=FIX.4.2|9=63|35=0|34=10|49=QBSIM_CME|52=20170803-22:01:15.330|56=TEOUTBOUND|10=178|
20170803-22:01:45.356 : 8=FIX.4.2|9=92|35=0|34=24|49=TEOUTBOUND|50=sim|52=20170803-22:01:45.356|56=QBSIM_CME|57=G|142=US,NY|1028=N|10=072|
20170803-22:01:45.356 : 8=FIX.4.2|9=63|35=0|34=11|49=QBSIM_CME|52=20170803-22:01:45.354|56=TEOUTBOUND|10=188|
20170803-22:02:15.380 : 8=FIX.4.2|9=92|35=0|34=25|49=TEOUTBOUND|50=sim|52=20170803-22:02:15.380|56=QBSIM_CME|57=G|142=US,NY|1028=N|10=068|
20170803-22:02:15.380 : 8=FIX.4.2|9=63|35=0|34=12|49=QBSIM_CME|52=20170803-22:02:15.378|56=TEOUTBOUND|10=193|
20170803-22:02:45.404 : 8=FIX.4.2|9=92|35=0|34=26|49=TEOUTBOUND|50=sim|52=20170803-22:02:45.404|56=QBSIM_CME|57=G|142=US,NY|1028=N|10=069|
20170803-22:02:45.404 : 8=FIX.4.2|9=63|35=0|34=13|49=QBSIM_CME|52=20170803-22:02:45.402|56=TEOUTBOUND|10=185|
20170803-22:03:15.428 : 8=FIX.4.2|9=92|35=0|34=27|49=TEOUTBOUND|50=sim|52=20170803-22:03:15.428|56=QBSIM_CME|57=G|142=US,NY|1028=N|10=074|
20170803-22:03:15.428 : 8=FIX.4.2|9=63|35=0|34=14|49=QBSIM_CME|52=20170803-22:03:15.426|56=TEOUTBOUND|10=190|
20170803-22:03:31.778 : 8=FIX.4.2|9=238|35=D|34=28|49=TEOUTBOUND|50=QB-CH5|52=20170803-22:03:31.778|56=QBSIM_CME|57=G|142=US,NY|1=TEST|11=B_CH1OU4QLV3|21=1|38=5|40=2|44=126.375|54=1|55=ZNU7|59=0|60=20170803-22:03:31|100=CME|107=ZNU7|167=FUT|204=0|1028=N|9702=4|12000=TEOUTBOUND|10=152|
20170803-22:03:31.780 : 8=FIX.4.2|9=253|35=8|34=15|49=QBSIM_CME|52=20170803-22:03:31.777|56=TEOUTBOUND|57=QB-CH5|1=TEST|6=0|11=B_CH1OU4QLV3|14=0|17=exe_2|20=0|31=0|32=0|37=SN00000002__simgway|38=5|39=0|40=2|44=126.375|54=1|55=ZNU7|60=20170803-22:03:31.777|113=Y|150=0|151=5|167=FUT|200=201709|10=238|
20170803-22:04:01.470 : 8=FIX.4.2|9=92|35=0|34=29|49=TEOUTBOUND|50=sim|52=20170803-22:04:01.470|56=QBSIM_CME|57=G|142=US,NY|1028=N|10=069|
20170803-22:04:01.470 : 8=FIX.4.2|9=63|35=0|34=16|49=QBSIM_CME|52=20170803-22:04:01.468|56=TEOUTBOUND|10=194|
20170803-22:04:31.494 : 8=FIX.4.2|9=92|35=0|34=30|49=TEOUTBOUND|50=sim|52=20170803-22:04:31.494|56=QBSIM_CME|57=G|142=US,NY|1028=N|10=070|
20170803-22:04:31.494 : 8=FIX.4.2|9=63|35=0|34=17|49=QBSIM_CME|52=20170803-22:04:31.492|56=TEOUTBOUND|10=195|
20170803-22:05:01.518 : 8=FIX.4.2|9=92|35=0|34=31|49=TEOUTBOUND|50=sim|52=20170803-22:05:01.518|56=QBSIM_CME|57=G|142=US,NY|1028=N|10=066|
20170803-22:05:01.518 : 8=FIX.4.2|9=63|35=0|34=18|49=QBSIM_CME|52=20170803-22:05:01.516|56=TEOUTBOUND|10=191|
20170803-22:05:31.182 : 8=FIX.4.2|9=92|35=0|34=32|49=TEOUTBOUND|50=sim|52=20170803-22:05:31.182|56=QBSIM_CME|57=G|142=US,NY|1028=N|10=067|
20170803-22:05:31.183 : 8=FIX.4.2|9=63|35=0|34=19|49=QBSIM_CME|52=20170803-22:05:31.180|56=TEOUTBOUND|10=192|
20170803-22:05:36.935 : 8=FIX.4.2|9=235|35=D|34=33|49=TEOUTBOUND|50=QB-CH5|52=20170803-22:05:36.935|56=QBSIM_CME|57=G|142=US,NY|1=TEST|11=B_CH1OU4QPC4|21=1|38=4|40=2|44=7949|54=2|55=6AU7|59=0|60=20170803-22:05:36|100=CME|107=6AU7|167=FUT|204=0|1028=N|9702=4|12000=TEOUTBOUND|10=161|
20170803-22:05:36.936 : 8=FIX.4.2|9=250|35=8|34=20|49=QBSIM_CME|52=20170803-22:05:36.934|56=TEOUTBOUND|57=QB-CH5|1=TEST|6=0|11=B_CH1OU4QPC4|14=0|17=exe_2|20=0|31=0|32=0|37=SN00000004__simgway|38=4|39=0|40=2|44=7949|54=2|55=6AU7|60=20170803-22:05:36.933|113=Y|150=0|151=4|167=FUT|200=201709|10=035|
20170803-22:05:37.141 : 8=FIX.4.2|9=236|35=D|34=34|49=TEOUTBOUND|50=QB-CH5|52=20170803-22:05:37.141|56=QBSIM_CME|57=G|142=US,NY|1=TEST|11=B_CH1OU4QPD6|21=1|38=1|40=2|44=13155|54=1|55=6BU7|59=0|60=20170803-22:05:37|100=CME|107=6BU7|167=FUT|204=0|1028=N|9702=4|12000=TEOUTBOUND|10=189|
20170803-22:05:37.141 : 8=FIX.4.2|9=236|35=D|34=35|49=TEOUTBOUND|50=QB-CH5|52=20170803-22:05:37.141|56=QBSIM_CME|57=G|142=US,NY|1=TEST|11=B_CH1OU4QPD7|21=1|38=1|40=2|44=13154|54=1|55=6BU7|59=0|60=20170803-22:05:37|100=CME|107=6BU7|167=FUT|204=0|1028=N|9702=4|12000=TEOUTBOUND|10=190|
20170803-22:05:37.142 : 8=FIX.4.2|9=251|35=8|34=21|49=QBSIM_CME|52=20170803-22:05:37.139|56=TEOUTBOUND|57=QB-CH5|1=TEST|6=0|11=B_CH1OU4QPD6|14=0|17=exe_2|20=0|31=0|32=0|37=SN00000005__simgway|38=1|39=0|40=2|44=13155|54=1|55=6BU7|60=20170803-22:05:37.138|113=Y|150=0|151=1|167=FUT|200=201709|10=065|
20170803-22:05:37.142 : 8=FIX.4.2|9=251|35=8|34=22|49=QBSIM_CME|52=20170803-22:05:37.139|56=TEOUTBOUND|57=QB-CH5|1=TEST|6=0|11=B_CH1OU4QPD7|14=0|17=exe_2|20=0|31=0|32=0|37=SN00000006__simgway|38=1|39=0|40=2|44=13154|54=1|55=6BU7|60=20170803-22:05:37.139|113=Y|150=0|151=1|167=FUT|200=201709|10=068|
20170803-22:05:37.348 : 8=FIX.4.2|9=237|35=D|34=36|49=TEOUTBOUND|50=QB-CH5|52=20170803-22:05:37.348|56=QBSIM_CME|57=G|142=US,NY|1=TEST|11=B_CH1OU4QPD9|21=1|38=1|40=2|44=7953.5|54=2|55=6CU7|59=0|60=20170803-22:05:37|100=CME|107=6CU7|167=FUT|204=0|1028=N|9702=4|12000=TEOUTBOUND|10=011|
20170803-22:05:37.348 : 8=FIX.4.2|9=235|35=D|34=37|49=TEOUTBOUND|50=QB-CH5|52=20170803-22:05:37.348|56=QBSIM_CME|57=G|142=US,NY|1=TEST|11=B_CH1OU4QPDA|21=1|38=1|40=2|44=7954|54=2|55=6CU7|59=0|60=20170803-22:05:37|100=CME|107=6CU7|167=FUT|204=0|1028=N|9702=4|12000=TEOUTBOUND|10=176|
20170803-22:05:37.348 : 8=FIX.4.2|9=252|35=8|34=23|49=QBSIM_CME|52=20170803-22:05:37.346|56=TEOUTBOUND|57=QB-CH5|1=TEST|6=0|11=B_CH1OU4QPD9|14=0|17=exe_2|20=0|31=0|32=0|37=SN00000009__simgway|38=1|39=0|40=2|44=7953.5|54=2|55=6CU7|60=20170803-22:05:37.346|113=Y|150=0|151=1|167=FUT|200=201709|10=138|
20170803-22:05:37.349 : 8=FIX.4.2|9=250|35=8|34=24|49=QBSIM_CME|52=20170803-22:05:37.347|56=TEOUTBOUND|57=QB-CH5|1=TEST|6=0|11=B_CH1OU4QPDA|14=0|17=exe_2|20=0|31=0|32=0|37=SN00000011__simgway|38=1|39=0|40=2|44=7954|54=2|55=6CU7|60=20170803-22:05:37.346|113=Y|150=0|151=1|167=FUT|200=201709|10=041|
20170803-22:05:37.558 : 8=FIX.4.2|9=238|35=D|34=38|49=TEOUTBOUND|50=QB-CH5|52=20170803-22:05:37.558|56=QBSIM_CME|57=G|142=US,NY|1=TEST|11=B_CH1OU4QPDC|21=1|38=1|40=2|44=11897.5|54=1|55=6EU7|59=0|60=20170803-22:05:37|100=CME|107=6EU7|167=FUT|204=0|1028=N|9702=4|12000=TEOUTBOUND|10=080|
20170803-22:05:37.558 : 8=FIX.4.2|9=253|35=8|34=25|49=QBSIM_CME|52=20170803-22:05:37.556|56=TEOUTBOUND|57=QB-CH5|1=TEST|6=0|11=B_CH1OU4QPDC|14=0|17=exe_2|20=0|31=0|32=0|37=SN00000013__simgway|38=1|39=0|40=2|44=11897.5|54=1|55=6EU7|60=20170803-22:05:37.555|113=Y|150=0|151=1|167=FUT|200=201709|10=202|
20170803-22:05:37.767 : 8=FIX.4.2|9=237|35=D|34=39|49=TEOUTBOUND|50=QB-CH5|52=20170803-22:05:37.767|56=QBSIM_CME|57=G|142=US,NY|1=TEST|11=B_CH1OU4QPDE|21=1|38=1|40=2|44=9107.5|54=2|55=6JU7|59=0|60=20170803-22:05:37|100=CME|107=6JU7|167=FUT|204=0|1028=N|9702=4|12000=TEOUTBOUND|10=038|
20170803-22:05:37.767 : 8=FIX.4.2|9=235|35=D|34=40|49=TEOUTBOUND|50=QB-CH5|52=20170803-22:05:37.767|56=QBSIM_CME|57=G|142=US,NY|1=TEST|11=B_CH1OU4QPDF|21=1|38=1|40=2|44=9108|54=2|55=6JU7|59=0|60=20170803-22:05:37|100=CME|107=6JU7|167=FUT|204=0|1028=N|9702=4|12000=TEOUTBOUND|10=187|
20170803-22:05:37.768 : 8=FIX.4.2|9=252|35=8|34=26|49=QBSIM_CME|52=20170803-22:05:37.765|56=TEOUTBOUND|57=QB-CH5|1=TEST|6=0|11=B_CH1OU4QPDE|14=0|17=exe_2|20=0|31=0|32=0|37=SN00000015__simgway|38=1|39=0|40=2|44=9107.5|54=2|55=6JU7|60=20170803-22:05:37.765|113=Y|150=0|151=1|167=FUT|200=201709|10=160|
20170803-22:05:37.768 : 8=FIX.4.2|9=250|35=8|34=27|49=QBSIM_CME|52=20170803-22:05:37.766|56=TEOUTBOUND|57=QB-CH5|1=TEST|6=0|11=B_CH1OU4QPDF|14=0|17=exe_2|20=0|31=0|32=0|37=SN00000016__simgway|38=1|39=0|40=2|44=9108|54=2|55=6JU7|60=20170803-22:05:37.765|113=Y|150=0|151=1|167=FUT|200=201709|10=064|
20170803-22:05:37.974 : 8=FIX.4.2|9=236|35=D|34=41|49=TEOUTBOUND|50=QB-CH5|52=20170803-22:05:37.974|56=QBSIM_CME|57=G|142=US,NY|1=TEST|11=B_CH1OU4QPDH|21=1|38=1|40=2|44=55600|54=1|55=6MU7|59=0|60=20170803-22:05:37|100=CME|107=6MU7|167=FUT|204=0|1028=N|9702=4|12000=TEOUTBOUND|10=242|
20170803-22:05:37.974 : 8=FIX.4.2|9=236|35=D|34=42|49=TEOUTBOUND|50=QB-CH5|52=20170803-22:05:37.974|56=QBSIM_CME|57=G|142=US,NY|1=TEST|11=B_CH1OU4QPDI|21=1|38=1|40=2|44=55590|54=1|55=6MU7|59=0|60=20170803-22:05:37|100=CME|107=6MU7|167=FUT|204=0|1028=N|9702=4|12000=TEOUTBOUND|10=252|
20170803-22:05:37.975 : 8=FIX.4.2|9=251|35=8|34=28|49=QBSIM_CME|52=20170803-22:05:37.972|56=TEOUTBOUND|57=QB-CH5|1=TEST|6=0|11=B_CH1OU4QPDH|14=0|17=exe_2|20=0|31=0|32=0|37=SN00000019__simgway|38=1|39=0|40=2|44=55600|54=1|55=6MU7|60=20170803-22:05:37.972|113=Y|150=0|151=1|167=FUT|200=201709|10=118|
20170803-22:05:37.975 : 8=FIX.4.2|9=251|35=8|34=29|49=QBSIM_CME|52=20170803-22:05:37.973|56=TEOUTBOUND|57=QB-CH5|1=TEST|6=0|11=B_CH1OU4QPDI|14=0|17=exe_2|20=0|31=0|32=0|37=SN00000020__simgway|38=1|39=0|40=2|44=55590|54=1|55=6MU7|60=20170803-22:05:37.972|113=Y|150=0|151=1|167=FUT|200=201709|10=121|
20170803-22:05:38.181 : 8=FIX.4.2|9=235|35=D|34=43|49=TEOUTBOUND|50=QB-CH5|52=20170803-22:05:38.181|56=QBSIM_CME|57=G|142=US,NY|1=TEST|11=B_CH1OU4QPEK|21=1|38=1|40=2|44=7432|54=2|55=6NU7|59=0|60=20170803-22:05:38|100=CME|107=6NU7|167=FUT|204=0|1028=N|9702=4|12000=TEOUTBOUND|10=194|
20170803-22:05:38.181 : 8=FIX.4.2|9=250|35=8|34=30|49=QBSIM_CME|52=20170803-22:05:38.179|56=TEOUTBOUND|57=QB-CH5|1=TEST|6=0|11=B_CH1OU4QPEK|14=0|17=exe_2|20=0|31=0|32=0|37=SN00000023__simgway|38=1|39=0|40=2|44=7432|54=2|55=6NU7|60=20170803-22:05:38.178|113=Y|150=0|151=1|167=FUT|200=201709|10=062|
20170803-22:05:38.390 : 8=FIX.4.2|9=236|35=D|34=44|49=TEOUTBOUND|50=QB-CH5|52=20170803-22:05:38.389|56=QBSIM_CME|57=G|142=US,NY|1=TEST|11=B_CH1OU4QPEM|21=1|38=1|40=2|44=10354|54=1|55=6SU7|59=0|60=20170803-22:05:38|100=CME|107=6SU7|167=FUT|204=0|1028=N|9702=4|12000=TEOUTBOUND|10=006|
20170803-22:05:38.390 : 8=FIX.4.2|9=236|35=D|34=45|49=TEOUTBOUND|50=QB-CH5|52=20170803-22:05:38.390|56=QBSIM_CME|57=G|142=US,NY|1=TEST|11=B_CH1OU4QPEN|21=1|38=1|40=2|44=10353|54=1|55=6SU7|59=0|60=20170803-22:05:38|100=CME|107=6SU7|167=FUT|204=0|1028=N|9702=4|12000=TEOUTBOUND|10=255|
20170803-22:05:38.390 : 8=FIX.4.2|9=251|35=8|34=31|49=QBSIM_CME|52=20170803-22:05:38.388|56=TEOUTBOUND|57=QB-CH5|1=TEST|6=0|11=B_CH1OU4QPEM|14=0|17=exe_2|20=0|31=0|32=0|37=SN00000025__simgway|38=1|39=0|40=2|44=10354|54=1|55=6SU7|60=20170803-22:05:38.387|113=Y|150=0|151=1|167=FUT|200=201709|10=121|
20170803-22:05:38.391 : 8=FIX.4.2|9=251|35=8|34=32|49=QBSIM_CME|52=20170803-22:05:38.388|56=TEOUTBOUND|57=QB-CH5|1=TEST|6=0|11=B_CH1OU4QPEN|14=0|17=exe_2|20=0|31=0|32=0|37=SN00000026__simgway|38=1|39=0|40=2|44=10353|54=1|55=6SU7|60=20170803-22:05:38.388|113=Y|150=0|151=1|167=FUT|200=201709|10=124|
20170803-22:05:38.592 : 8=FIX.4.2|9=230|35=D|34=46|49=TEOUTBOUND|50=QB-CH5|52=20170803-22:05:38.592|56=QBSIM_CME|57=G|142=US,NY|1=TEST|11=B_CH1OU4QPEP|21=1|38=1|40=2|44=99.75|54=2|55=B1UU7|59=0|60=20170803-22:05:38|107=B1UU7|167=FUT|204=0|1028=N|9702=4|12000=TEOUTBOUND|10=235|
20170803-22:05:38.593 : 8=FIX.4.2|9=228|35=D|34=47|49=TEOUTBOUND|50=QB-CH5|52=20170803-22:05:38.593|56=QBSIM_CME|57=G|142=US,NY|1=TEST|11=B_CH1OU4QPEQ|21=1|38=1|40=2|44=110|54=2|55=B1UU7|59=0|60=20170803-22:05:38|107=B1UU7|167=FUT|204=0|1028=N|9702=4|12000=TEOUTBOUND|10=123|
20170803-22:05:38.593 : 8=FIX.4.2|9=233|35=8|34=33|49=QBSIM_CME|52=20170803-22:05:38.591|56=TEOUTBOUND|57=QB-CH5|6=0|11=B_CH1OU4QPEP|14=0|17=RJ00000028|20=0|31=0|32=0|37=RJ00000028|38=1|39=8|54=2|55=B1UU7|58=QB: Field not found, field: 100|60=20170803-22:05:38|150=8|151=1|10=208|
20170803-22:05:38.596 : 8=FIX.4.2|9=233|35=8|34=34|49=QBSIM_CME|52=20170803-22:05:38.591|56=TEOUTBOUND|57=QB-CH5|6=0|11=B_CH1OU4QPEQ|14=0|17=RJ00000030|20=0|31=0|32=0|37=RJ00000030|38=1|39=8|54=2|55=B1UU7|58=QB: Field not found, field: 100|60=20170803-22:05:38|150=8|151=1|10=196|
20170803-22:05:38.701 : 8=FIX.4.2|9=235|35=D|34=48|49=TEOUTBOUND|50=QB-CH5|52=20170803-22:05:38.701|56=QBSIM_CME|57=G|142=US,NY|1=TEST|11=B_CH1OU4QPES|21=1|38=1|40=2|44=4893|54=1|55=CLU7|59=0|60=20170803-22:05:38|100=CME|107=CLU7|167=FUT|204=0|1028=N|9702=4|12000=TEOUTBOUND|10=234|
20170803-22:05:38.701 : 8=FIX.4.2|9=235|35=D|34=49|49=TEOUTBOUND|50=QB-CH5|52=20170803-22:05:38.701|56=QBSIM_CME|57=G|142=US,NY|1=TEST|11=B_CH1OU4QPET|21=1|38=1|40=2|44=4892|54=1|55=CLU7|59=0|60=20170803-22:05:38|100=CME|107=CLU7|167=FUT|204=0|1028=N|9702=4|12000=TEOUTBOUND|10=235|
20170803-22:05:38.701 : 8=FIX.4.2|9=250|35=8|34=35|49=QBSIM_CME|52=20170803-22:05:38.699|56=TEOUTBOUND|57=QB-CH5|1=TEST|6=0|11=B_CH1OU4QPES|14=0|17=exe_2|20=0|31=0|32=0|37=SN00000031__simgway|38=1|39=0|40=2|44=4893|54=1|55=CLU7|60=20170803-22:05:38.698|113=Y|150=0|151=1|167=FUT|200=201709|10=106|
20170803-22:05:38.702 : 8=FIX.4.2|9=250|35=8|34=36|49=QBSIM_CME|52=20170803-22:05:38.700|56=TEOUTBOUND|57=QB-CH5|1=TEST|6=0|11=B_CH1OU4QPET|14=0|17=exe_2|20=0|31=0|32=0|37=SN00000032__simgway|38=1|39=0|40=2|44=4892|54=1|55=CLU7|60=20170803-22:05:38.699|113=Y|150=0|151=1|167=FUT|200=201709|10=092|
20170803-22:05:38.915 : 8=FIX.4.2|9=239|35=D|34=50|49=TEOUTBOUND|50=QB-CH5|52=20170803-22:05:38.915|56=QBSIM_CME|57=G|142=US,NY|1=TEST|11=B_CH1OU4QPEV|21=1|38=1|40=2|44=174670|54=2|55=EMDU7|59=0|60=20170803-22:05:38|100=CME|107=EMDU7|167=FUT|204=0|1028=N|9702=4|12000=TEOUTBOUND|10=225|
20170803-22:05:38.915 : 8=FIX.4.2|9=239|35=D|34=51|49=TEOUTBOUND|50=QB-CH5|52=20170803-22:05:38.915|56=QBSIM_CME|57=G|142=US,NY|1=TEST|11=B_CH1OU4QPEW|21=1|38=1|40=2|44=174680|54=2|55=EMDU7|59=0|60=20170803-22:05:38|100=CME|107=EMDU7|167=FUT|204=0|1028=N|9702=4|12000=TEOUTBOUND|10=228|
20170803-22:05:38.916 : 8=FIX.4.2|9=239|35=D|34=52|49=TEOUTBOUND|50=QB-CH5|52=20170803-22:05:38.916|56=QBSIM_CME|57=G|142=US,NY|1=TEST|11=B_CH1OU4QPEX|21=1|38=1|40=2|44=174700|54=2|55=EMDU7|59=0|60=20170803-22:05:38|100=CME|107=EMDU7|167=FUT|204=0|1028=N|9702=4|12000=TEOUTBOUND|10=224|
20170803-22:05:38.916 : 8=FIX.4.2|9=239|35=D|34=53|49=TEOUTBOUND|50=QB-CH5|52=20170803-22:05:38.916|56=QBSIM_CME|57=G|142=US,NY|1=TEST|11=B_CH1OU4QPEY|21=1|38=1|40=2|44=174730|54=2|55=EMDU7|59=0|60=20170803-22:05:38|100=CME|107=EMDU7|167=FUT|204=0|1028=N|9702=4|12000=TEOUTBOUND|10=229|
20170803-22:05:38.919 : 8=FIX.4.2|9=253|35=8|34=37|49=QBSIM_CME|52=20170803-22:05:38.917|56=TEOUTBOUND|57=QB-CH5|1=TEST|6=0|11=B_CH1OU4QPEV|14=0|17=exe_2|20=0|31=0|32=0|37=SN00000039__simgway|38=1|39=0|40=2|44=174670|54=2|55=EMDU7|60=20170803-22:05:38.916|113=Y|150=0|151=1|167=FUT|200=201709|10=021|
20170803-22:05:38.919 : 8=FIX.4.2|9=263|35=8|34=38|49=QBSIM_CME|52=20170803-22:05:38.917|56=TEOUTBOUND|57=QB-CH5|1=TEST|6=174670|11=B_CH1OU4QPEV|14=1|17=exe_5|20=0|31=174670|32=1|37=SN00000039__simgway|38=1|39=2|40=2|44=174670|54=2|55=EMDU7|60=20170803-22:05:38.916|113=Y|150=2|151=0|167=FUT|200=201709|10=049|
20170803-22:05:38.959 : 8=FIX.4.2|9=253|35=8|34=39|49=QBSIM_CME|52=20170803-22:05:38.918|56=TEOUTBOUND|57=QB-CH5|1=TEST|6=0|11=B_CH1OU4QPEW|14=0|17=exe_2|20=0|31=0|32=0|37=SN00000040__simgway|38=1|39=0|40=2|44=174680|54=2|55=EMDU7|60=20170803-22:05:38.917|113=Y|150=0|151=1|167=FUT|200=201709|10=019|
20170803-22:05:38.959 : 8=FIX.4.2|9=253|35=8|34=40|49=QBSIM_CME|52=20170803-22:05:38.918|56=TEOUTBOUND|57=QB-CH5|1=TEST|6=0|11=B_CH1OU4QPEX|14=0|17=exe_2|20=0|31=0|32=0|37=SN00000041__simgway|38=1|39=0|40=2|44=174700|54=2|55=EMDU7|60=20170803-22:05:38.917|113=Y|150=0|151=1|167=FUT|200=201709|10=006|
20170803-22:05:38.959 : 8=FIX.4.2|9=253|35=8|34=41|49=QBSIM_CME|52=20170803-22:05:38.918|56=TEOUTBOUND|57=QB-CH5|1=TEST|6=0|11=B_CH1OU4QPEY|14=0|17=exe_2|20=0|31=0|32=0|37=SN00000042__simgway|38=1|39=0|40=2|44=174730|54=2|55=EMDU7|60=20170803-22:05:38.917|113=Y|150=0|151=1|167=FUT|200=201709|10=012|
20170803-22:05:39.121 : 8=FIX.4.2|9=238|35=D|34=54|49=TEOUTBOUND|50=QB-CH5|52=20170803-22:05:39.121|56=QBSIM_CME|57=G|142=US,NY|1=TEST|11=B_CH1OU4QPF11|21=1|38=1|40=2|44=247075|54=1|55=ESU7|59=0|60=20170803-22:05:39|100=CME|107=ESU7|167=FUT|204=0|1028=N|9702=4|12000=TEOUTBOUND|10=107|
20170803-22:05:39.122 : 8=FIX.4.2|9=253|35=8|34=42|49=QBSIM_CME|52=20170803-22:05:39.120|56=TEOUTBOUND|57=QB-CH5|1=TEST|6=0|11=B_CH1OU4QPF11|14=0|17=exe_2|20=0|31=0|32=0|37=SN00000043__simgway|38=1|39=0|40=2|44=247075|54=1|55=ESU7|60=20170803-22:05:39.119|113=Y|150=0|151=1|167=FUT|200=201709|10=201|
20170803-22:05:39.354 : 8=FIX.4.2|9=243|35=D|34=55|49=TEOUTBOUND|50=QB-CH5|52=20170803-22:05:39.353|56=QBSIM_CME|57=G|142=US,NY|1=TEST|11=B_CH1OU4QPF13|21=1|38=1|40=2|44=100.34375|54=2|55=F1UU7|59=0|60=20170803-22:05:39|100=CME|107=F1UU7|167=FUT|204=0|1028=N|9702=4|12000=TEOUTBOUND|10=102|
20170803-22:05:39.354 : 8=FIX.4.2|9=237|35=D|34=56|49=TEOUTBOUND|50=QB-CH5|52=20170803-22:05:39.354|56=QBSIM_CME|57=G|142=US,NY|1=TEST|11=B_CH1OU4QPF14|21=1|38=1|40=2|44=110|54=2|55=F1UU7|59=0|60=20170803-22:05:39|100=CME|107=F1UU7|167=FUT|204=0|1028=N|9702=4|12000=TEOUTBOUND|10=057|
20170803-22:05:39.354 : 8=FIX.4.2|9=257|35=8|34=43|49=QBSIM_CME|52=20170803-22:05:39.352|56=TEOUTBOUND|57=QB-CH5|1=TEST|6=0|11=B_CH1OU4QPF13|14=0|17=exe_2|20=0|31=0|32=0|37=SN00000046__simgway|38=1|39=0|40=2|44=100.34375|54=2|55=F1UU7|60=20170803-22:05:39.351|113=Y|150=0|151=1|167=FUT|200=201709|10=153|
20170803-22:05:39.355 : 8=FIX.4.2|9=251|35=8|34=44|49=QBSIM_CME|52=20170803-22:05:39.353|56=TEOUTBOUND|57=QB-CH5|1=TEST|6=0|11=B_CH1OU4QPF14|14=0|17=exe_2|20=0|31=0|32=0|37=SN00000048__simgway|38=1|39=0|40=2|44=110|54=2|55=F1UU7|60=20170803-22:05:39.352|113=Y|150=0|151=1|167=FUT|200=201709|10=102|
20170803-22:05:39.489 : 8=FIX.4.2|9=236|35=D|34=57|49=TEOUTBOUND|50=QB-CH5|52=20170803-22:05:39.489|56=QBSIM_CME|57=G|142=US,NY|1=TEST|11=S_CH1OU4QPFE|21=1|38=1|40=2|44=110|54=2|55=F1UU7|59=0|60=20170803-22:05:39|100=CME|107=F1UU7|167=FUT|204=0|1028=N|9702=4|12000=TEOUTBOUND|10=051|
20170803-22:05:39.489 : 8=FIX.4.2|9=250|35=8|34=45|49=QBSIM_CME|52=20170803-22:05:39.487|56=TEOUTBOUND|57=QB-CH5|1=TEST|6=0|11=S_CH1OU4QPFE|14=0|17=exe_2|20=0|31=0|32=0|37=SN00000050__simgway|38=1|39=0|40=2|44=110|54=2|55=F1UU7|60=20170803-22:05:39.486|113=Y|150=0|151=1|167=FUT|200=201709|10=096|
20170803-22:05:39.581 : 8=FIX.4.2|9=237|35=D|34=58|49=TEOUTBOUND|50=QB-CH5|52=20170803-22:05:39.581|56=QBSIM_CME|57=G|142=US,NY|1=TEST|11=B2_CH1OU4QPF1|21=1|38=2|40=2|44=12745|54=1|55=GCZ7|59=0|60=20170803-22:05:39|100=CME|107=GCZ7|167=FUT|204=0|1028=N|9702=4|12000=TEOUTBOUND|10=050|
20170803-22:05:39.582 : 8=FIX.4.2|9=252|35=8|34=46|49=QBSIM_CME|52=20170803-22:05:39.579|56=TEOUTBOUND|57=QB-CH5|1=TEST|6=0|11=B2_CH1OU4QPF1|14=0|17=exe_2|20=0|31=0|32=0|37=SN00000053__simgway|38=2|39=0|40=2|44=12745|54=1|55=GCZ7|60=20170803-22:05:39.579|113=Y|150=0|151=2|167=FUT|200=201712|10=167|
20170803-22:05:39.582 : 8=FIX.4.2|9=260|35=8|34=47|49=QBSIM_CME|52=20170803-22:05:39.580|56=TEOUTBOUND|57=QB-CH5|1=TEST|6=12745|11=B2_CH1OU4QPF1|14=2|17=exe_5|20=0|31=12745|32=2|37=SN00000053__simgway|38=2|39=2|40=2|44=12745|54=1|55=GCZ7|60=20170803-22:05:39.579|113=Y|150=2|151=0|167=FUT|200=201712|10=078|
20170803-22:05:39.614 : 8=FIX.4.2|9=237|35=D|34=59|49=TEOUTBOUND|50=QB-CH5|52=20170803-22:05:39.613|56=QBSIM_CME|57=G|142=US,NY|1=TEST|11=B2_CH1OU4QPF4|21=1|38=1|40=2|44=12743|54=1|55=GCZ7|59=0|60=20170803-22:05:39|100=CME|107=GCZ7|167=FUT|204=0|1028=N|9702=4|12000=TEOUTBOUND|10=047|
20170803-22:05:39.614 : 8=FIX.4.2|9=252|35=8|34=48|49=QBSIM_CME|52=20170803-22:05:39.612|56=TEOUTBOUND|57=QB-CH5|1=TEST|6=0|11=B2_CH1OU4QPF4|14=0|17=exe_2|20=0|31=0|32=0|37=SN00000054__simgway|38=1|39=0|40=2|44=12743|54=1|55=GCZ7|60=20170803-22:05:39.611|113=Y|150=0|151=1|167=FUT|200=201712|10=144|
20170803-22:05:39.793 : 8=FIX.4.2|9=238|35=D|34=60|49=TEOUTBOUND|50=QB-CH5|52=20170803-22:05:39.792|56=QBSIM_CME|57=G|142=US,NY|1=TEST|11=B_CH1OU4QPF16|21=1|38=5|40=2|44=9841.5|54=2|55=GEM8|59=0|60=20170803-22:05:39|100=CME|107=GEM8|167=FUT|204=0|1028=N|9702=4|12000=TEOUTBOUND|10=090|
20170803-22:05:39.793 : 8=FIX.4.2|9=253|35=8|34=49|49=QBSIM_CME|52=20170803-22:05:39.791|56=TEOUTBOUND|57=QB-CH5|1=TEST|6=0|11=B_CH1OU4QPF16|14=0|17=exe_2|20=0|31=0|32=0|37=SN00000055__simgway|38=5|39=0|40=2|44=9841.5|54=2|55=GEM8|60=20170803-22:05:39.790|113=Y|150=0|151=5|167=FUT|200=201806|10=223|
20170803-22:05:39.932 : 8=FIX.4.2|9=237|35=D|34=61|49=TEOUTBOUND|50=QB-CH5|52=20170803-22:05:39.931|56=QBSIM_CME|57=G|142=US,NY|1=TEST|11=S_CH1OU4QPFH|21=1|38=2|40=2|44=9841.5|54=2|55=GEM8|59=0|60=20170803-22:05:39|100=CME|107=GEM8|167=FUT|204=0|1028=N|9702=4|12000=TEOUTBOUND|10=068|
20170803-22:05:39.932 : 8=FIX.4.2|9=235|35=D|34=62|49=TEOUTBOUND|50=QB-CH5|52=20170803-22:05:39.932|56=QBSIM_CME|57=G|142=US,NY|1=TEST|11=S_CH1OU4QPFI|21=1|38=6|40=2|44=9842|54=2|55=GEM8|59=0|60=20170803-22:05:39|100=CME|107=GEM8|167=FUT|204=0|1028=N|9702=4|12000=TEOUTBOUND|10=231|
20170803-22:05:39.932 : 8=FIX.4.2|9=252|35=8|34=50|49=QBSIM_CME|52=20170803-22:05:39.930|56=TEOUTBOUND|57=QB-CH5|1=TEST|6=0|11=S_CH1OU4QPFH|14=0|17=exe_2|20=0|31=0|32=0|37=SN00000057__simgway|38=2|39=0|40=2|44=9841.5|54=2|55=GEM8|60=20170803-22:05:39.929|113=Y|150=0|151=2|167=FUT|200=201806|10=195|
20170803-22:05:39.932 : 8=FIX.4.2|9=250|35=8|34=51|49=QBSIM_CME|52=20170803-22:05:39.930|56=TEOUTBOUND|57=QB-CH5|1=TEST|6=0|11=S_CH1OU4QPFI|14=0|17=exe_2|20=0|31=0|32=0|37=SN00000058__simgway|38=6|39=0|40=2|44=9842|54=2|55=GEM8|60=20170803-22:05:39.930|113=Y|150=0|151=6|167=FUT|200=201806|10=098|
20170803-22:05:40.279 : 8=FIX.4.2|9=288|35=F|34=63|49=TEOUTBOUND|50=QB-CH5|52=20170803-22:05:40.279|56=QBSIM_CME|57=G|142=US,NY|1=TEST|11=B_CH1OU4QPG1A|37=SN00000031__simgway|38=1|40=2|41=B_CH1OU4QPES|44=4893|54=1|55=CLU7|59=0|60=20170803-22:05:40|100=CME|107=CLU7|167=FUT|204=0|1028=N|9702=4|9717=B_CH1OU4QPES|12000=TEOUTBOUND|10=093|
20170803-22:05:40.279 : 8=FIX.4.2|9=236|35=D|34=64|49=TEOUTBOUND|50=QB-CH5|52=20170803-22:05:40.279|56=QBSIM_CME|57=G|142=US,NY|1=TEST|11=B_CH1OU4QPG1B|21=1|38=1|40=2|44=4891|54=1|55=CLU7|59=0|60=20170803-22:05:40|100=CME|107=CLU7|167=FUT|204=0|1028=N|9702=4|12000=TEOUTBOUND|10=005|
20170803-22:05:40.279 : 8=FIX.4.2|9=267|35=8|34=52|49=QBSIM_CME|52=20170803-22:05:40.277|56=TEOUTBOUND|57=QB-CH5|1=TEST|6=0|11=B_CH1OU4QPG1A|14=0|17=exe_9|20=0|31=0|32=0|37=SN00000031__simgway|38=1|39=6|40=2|41=B_CH1OU4QPES|44=4893|54=1|55=CLU7|60=20170803-22:05:40.276|113=Y|150=6|151=1|167=FUT|200=201709|10=152|
20170803-22:05:40.282 : 8=FIX.4.2|9=268|35=8|34=53|49=QBSIM_CME|52=20170803-22:05:40.277|56=TEOUTBOUND|57=QB-CH5|1=TEST|6=0|11=B_CH1OU4QPG1A|14=0|17=exe_10|20=0|31=0|32=0|37=SN00000031__simgway|38=1|39=4|40=2|41=B_CH1OU4QPES|44=4893|54=1|55=CLU7|60=20170803-22:05:40.276|113=Y|150=4|151=0|167=FUT|200=201709|10=189|
20170803-22:05:40.290 : 8=FIX.4.2|9=236|35=D|34=65|49=TEOUTBOUND|50=QB-CH5|52=20170803-22:05:40.289|56=QBSIM_CME|57=G|142=US,NY|1=TEST|11=B_CH1OU4QPG1C|21=1|38=1|40=2|44=4893|54=1|55=CLU7|59=0|60=20170803-22:05:40|100=CME|107=CLU7|167=FUT|204=0|1028=N|9702=4|12000=TEOUTBOUND|10=010|
20170803-22:05:40.290 : 8=FIX.4.2|9=251|35=8|34=54|49=QBSIM_CME|52=20170803-22:05:40.277|56=TEOUTBOUND|57=QB-CH5|1=TEST|6=0|11=B_CH1OU4QPG1B|14=0|17=exe_2|20=0|31=0|32=0|37=SN00000062__simgway|38=1|39=0|40=2|44=4891|54=1|55=CLU7|60=20170803-22:05:40.277|113=Y|150=0|151=1|167=FUT|200=201709|10=115|
20170803-22:05:40.333 : 8=FIX.4.2|9=251|35=8|34=55|49=QBSIM_CME|52=20170803-22:05:40.288|56=TEOUTBOUND|57=QB-CH5|1=TEST|6=0|11=B_CH1OU4QPG1C|14=0|17=exe_2|20=0|31=0|32=0|37=SN00000063__simgway|38=1|39=0|40=2|44=4893|54=1|55=CLU7|60=20170803-22:05:40.287|113=Y|150=0|151=1|167=FUT|200=201709|10=123|
20170803-22:05:40.432 : 8=FIX.4.2|9=237|35=D|34=66|49=TEOUTBOUND|50=QB-CH5|52=20170803-22:05:40.432|56=QBSIM_CME|57=G|142=US,NY|1=TEST|11=B_CH1OU4QPG1D|21=1|38=1|40=2|44=28785|54=1|55=HGU7|59=0|60=20170803-22:05:40|100=CME|107=HGU7|167=FUT|204=0|1028=N|9702=4|12000=TEOUTBOUND|10=057|
20170803-22:05:40.432 : 8=FIX.4.2|9=237|35=D|34=67|49=TEOUTBOUND|50=QB-CH5|52=20170803-22:05:40.432|56=QBSIM_CME|57=G|142=US,NY|1=TEST|11=B_CH1OU4QPG1E|21=1|38=1|40=2|44=28780|54=1|55=HGU7|59=0|60=20170803-22:05:40|100=CME|107=HGU7|167=FUT|204=0|1028=N|9702=4|12000=TEOUTBOUND|10=054|
20170803-22:05:40.432 : 8=FIX.4.2|9=252|35=8|34=56|49=QBSIM_CME|52=20170803-22:05:40.430|56=TEOUTBOUND|57=QB-CH5|1=TEST|6=0|11=B_CH1OU4QPG1D|14=0|17=exe_2|20=0|31=0|32=0|37=SN00000064__simgway|38=1|39=0|40=2|44=28785|54=1|55=HGU7|60=20170803-22:05:40.430|113=Y|150=0|151=1|167=FUT|200=201709|10=160|
20170803-22:05:40.433 : 8=FIX.4.2|9=252|35=8|34=57|49=QBSIM_CME|52=20170803-22:05:40.431|56=TEOUTBOUND|57=QB-CH5|1=TEST|6=0|11=B_CH1OU4QPG1E|14=0|17=exe_2|20=0|31=0|32=0|37=SN00000065__simgway|38=1|39=0|40=2|44=28780|54=1|55=HGU7|60=20170803-22:05:40.430|113=Y|150=0|151=1|167=FUT|200=201709|10=159|
20170803-22:05:40.642 : 8=FIX.4.2|9=237|35=D|34=68|49=TEOUTBOUND|50=QB-CH5|52=20170803-22:05:40.642|56=QBSIM_CME|57=G|142=US,NY|1=TEST|11=B_CH1OU4QPG1G|21=1|38=1|40=2|44=16400|54=2|55=HOU7|59=0|60=20170803-22:05:40|100=CME|107=HOU7|167=FUT|204=0|1028=N|9702=4|12000=TEOUTBOUND|10=063|
20170803-22:05:40.642 : 8=FIX.4.2|9=237|35=D|34=69|49=TEOUTBOUND|50=QB-CH5|52=20170803-22:05:40.642|56=QBSIM_CME|57=G|142=US,NY|1=TEST|11=B_CH1OU4QPG1H|21=1|38=1|40=2|44=16401|54=2|55=HOU7|59=0|60=20170803-22:05:40|100=CME|107=HOU7|167=FUT|204=0|1028=N|9702=4|12000=TEOUTBOUND|10=066|
20170803-22:05:40.642 : 8=FIX.4.2|9=237|35=D|34=70|49=TEOUTBOUND|50=QB-CH5|52=20170803-22:05:40.642|56=QBSIM_CME|57=G|142=US,NY|1=TEST|11=B_CH1OU4QPG1I|21=1|38=1|40=2|44=16402|54=2|55=HOU7|59=0|60=20170803-22:05:40|100=CME|107=HOU7|167=FUT|204=0|1028=N|9702=4|12000=TEOUTBOUND|10=060|
20170803-22:05:40.642 : 8=FIX.4.2|9=252|35=8|34=58|49=QBSIM_CME|52=20170803-22:05:40.640|56=TEOUTBOUND|57=QB-CH5|1=TEST|6=0|11=B_CH1OU4QPG1G|14=0|17=exe_2|20=0|31=0|32=0|37=SN00000068__simgway|38=1|39=0|40=2|44=16400|54=2|55=HOU7|60=20170803-22:05:40.639|113=Y|150=0|151=1|167=FUT|200=201709|10=173|
20170803-22:05:40.643 : 8=FIX.4.2|9=260|35=8|34=59|49=QBSIM_CME|52=20170803-22:05:40.640|56=TEOUTBOUND|57=QB-CH5|1=TEST|6=16400|11=B_CH1OU4QPG1G|14=1|17=exe_5|20=0|31=16400|32=1|37=SN00000068__simgway|38=1|39=2|40=2|44=16400|54=2|55=HOU7|60=20170803-22:05:40.639|113=Y|150=2|151=0|167=FUT|200=201709|10=075|
20170803-22:05:40.682 : 8=FIX.4.2|9=252|35=8|34=60|49=QBSIM_CME|52=20170803-22:05:40.641|56=TEOUTBOUND|57=QB-CH5|1=TEST|6=0|11=B_CH1OU4QPG1H|14=0|17=exe_2|20=0|31=0|32=0|37=SN00000070__simgway|38=1|39=0|40=2|44=16401|54=2|55=HOU7|60=20170803-22:05:40.640|113=Y|150=0|151=1|167=FUT|200=201709|10=154|
20170803-22:05:40.682 : 8=FIX.4.2|9=333|35=8|34=61|49=QBSIM_CME|52=20170803-22:05:40.642|56=TEOUTBOUND|57=QB-CH5|1=TEST|6=0|11=B_CH1OU4QPG1I|14=0|17=exe_3|20=0|31=0|32=0|37=SN00000071__simgway|38=1|39=8|40=2|44=16402|54=2|55=HOU7|58= New client order for level that has no direct liquidity (Implied only level)|60=20170803-22:05:40.641|113=Y|150=8|151=0|167=FUT|200=201709|10=049|
20170803-22:05:40.854 : 8=FIX.4.2|9=288|35=F|34=71|49=TEOUTBOUND|50=QB-CH5|52=20170803-22:05:40.854|56=QBSIM_CME|57=G|142=US,NY|1=TEST|11=B_CH1OU4QPG1M|37=SN00000023__simgway|38=1|40=2|41=B_CH1OU4QPEK|44=7432|54=2|55=6NU7|59=0|60=20170803-22:05:40|100=CME|107=6NU7|167=FUT|204=0|1028=N|9702=4|9717=B_CH1OU4QPEK|12000=TEOUTBOUND|10=059|
20170803-22:05:40.854 : 8=FIX.4.2|9=267|35=8|34=62|49=QBSIM_CME|52=20170803-22:05:40.852|56=TEOUTBOUND|57=QB-CH5|1=TEST|6=0|11=B_CH1OU4QPG1M|14=0|17=exe_9|20=0|31=0|32=0|37=SN00000023__simgway|38=1|39=6|40=2|41=B_CH1OU4QPEK|44=7432|54=2|55=6NU7|60=20170803-22:05:40.851|113=Y|150=6|151=1|167=FUT|200=201709|10=138|
20170803-22:05:40.855 : 8=FIX.4.2|9=268|35=8|34=63|49=QBSIM_CME|52=20170803-22:05:40.852|56=TEOUTBOUND|57=QB-CH5|1=TEST|6=0|11=B_CH1OU4QPG1M|14=0|17=exe_10|20=0|31=0|32=0|37=SN00000023__simgway|38=1|39=4|40=2|41=B_CH1OU4QPEK|44=7432|54=2|55=6NU7|60=20170803-22:05:40.851|113=Y|150=4|151=0|167=FUT|200=201709|10=175|
20170803-22:05:41.270 : 8=FIX.4.2|9=244|35=D|34=72|49=TEOUTBOUND|50=QB-CH5|52=20170803-22:05:41.270|56=QBSIM_CME|57=G|142=US,NY|1=TEST|11=B_CH1OU4QPH1O|21=1|38=1|40=2|44=102.140625|54=1|55=N1UU7|59=0|60=20170803-22:05:41|100=CME|107=N1UU7|167=FUT|204=0|1028=N|9702=4|12000=TEOUTBOUND|10=177|
20170803-22:05:41.270 : 8=FIX.4.2|9=236|35=D|34=73|49=TEOUTBOUND|50=QB-CH5|52=20170803-22:05:41.270|56=QBSIM_CME|57=G|142=US,NY|1=TEST|11=B_CH1OU4QPH1P|21=1|38=1|40=2|44=90|54=1|55=N1UU7|59=0|60=20170803-22:05:41|100=CME|107=N1UU7|167=FUT|204=0|1028=N|9702=4|12000=TEOUTBOUND|10=042|
20170803-22:05:41.270 : 8=FIX.4.2|9=306|35=8|34=64|49=QBSIM_CME|52=20170803-22:05:41.268|56=TEOUTBOUND|57=QB-CH5|1=TEST|6=0|11=B_CH1OU4QPH1O|14=0|17=exe_3|20=0|31=0|32=0|37=SN00000075__simgway|38=1|39=8|40=2|44=102.140625|54=1|55=N1UU7|58= New unsubscribed symbol encountered : N1UU7|60=20170803-22:05:41.267|113=Y|150=8|151=0|167=FUT|200=201709|10=100|
20170803-22:05:41.271 : 8=FIX.4.2|9=298|35=8|34=65|49=QBSIM_CME|52=20170803-22:05:41.269|56=TEOUTBOUND|57=QB-CH5|1=TEST|6=0|11=B_CH1OU4QPH1P|14=0|17=exe_3|20=0|31=0|32=0|37=SN00000076__simgway|38=1|39=8|40=2|44=90|54=1|55=N1UU7|58= New unsubscribed symbol encountered : N1UU7|60=20170803-22:05:41.268|113=Y|150=8|151=0|167=FUT|200=201709|10=233|
20170803-22:05:41.416 : 8=FIX.4.2|9=235|35=D|34=74|49=TEOUTBOUND|50=QB-CH5|52=20170803-22:05:41.416|56=QBSIM_CME|57=G|142=US,NY|1=TEST|11=S_CH1OU4QPHQ|21=1|38=1|40=2|44=90|54=1|55=N1UU7|59=0|60=20170803-22:05:41|100=CME|107=N1UU7|167=FUT|204=0|1028=N|9702=4|12000=TEOUTBOUND|10=013|
20170803-22:05:41.417 : 8=FIX.4.2|9=297|35=8|34=66|49=QBSIM_CME|52=20170803-22:05:41.415|56=TEOUTBOUND|57=QB-CH5|1=TEST|6=0|11=S_CH1OU4QPHQ|14=0|17=exe_3|20=0|31=0|32=0|37=SN00000077__simgway|38=1|39=8|40=2|44=90|54=1|55=N1UU7|58= New unsubscribed symbol encountered : N1UU7|60=20170803-22:05:41.414|113=Y|150=8|151=0|167=FUT|200=201709|10=189|
20170803-22:05:41.484 : 8=FIX.4.2|9=236|35=D|34=75|49=TEOUTBOUND|50=QB-CH5|52=20170803-22:05:41.483|56=QBSIM_CME|57=G|142=US,NY|1=TEST|11=B_CH1OU4QPH1R|21=1|38=1|40=2|44=2793|54=2|55=NGU7|59=0|60=20170803-22:05:41|100=CME|107=NGU7|167=FUT|204=0|1028=N|9702=4|12000=TEOUTBOUND|10=035|
20170803-22:05:41.484 : 8=FIX.4.2|9=236|35=D|34=76|49=TEOUTBOUND|50=QB-CH5|52=20170803-22:05:41.484|56=QBSIM_CME|57=G|142=US,NY|1=TEST|11=B_CH1OU4QPH1S|21=1|38=1|40=2|44=2794|54=2|55=NGU7|59=0|60=20170803-22:05:41|100=CME|107=NGU7|167=FUT|204=0|1028=N|9702=4|12000=TEOUTBOUND|10=039|
20170803-22:05:41.484 : 8=FIX.4.2|9=251|35=8|34=67|49=QBSIM_CME|52=20170803-22:05:41.482|56=TEOUTBOUND|57=QB-CH5|1=TEST|6=0|11=B_CH1OU4QPH1R|14=0|17=exe_2|20=0|31=0|32=0|37=SN00000078__simgway|38=1|39=0|40=2|44=2793|54=2|55=NGU7|60=20170803-22:05:41.481|113=Y|150=0|151=1|167=FUT|200=201709|10=146|
20170803-22:05:41.485 : 8=FIX.4.2|9=251|35=8|34=68|49=QBSIM_CME|52=20170803-22:05:41.483|56=TEOUTBOUND|57=QB-CH5|1=TEST|6=0|11=B_CH1OU4QPH1S|14=0|17=exe_2|20=0|31=0|32=0|37=SN00000079__simgway|38=1|39=0|40=2|44=2794|54=2|55=NGU7|60=20170803-22:05:41.482|113=Y|150=0|151=1|167=FUT|200=201709|10=152|
20170803-22:05:41.698 : 8=FIX.4.2|9=239|35=D|34=77|49=TEOUTBOUND|50=QB-CH5|52=20170803-22:05:41.698|56=QBSIM_CME|57=G|142=US,NY|1=TEST|11=B_CH1OU4QPH1U|21=1|38=1|40=2|44=19950|54=1|55=NIYU7|59=0|60=20170803-22:05:41|100=CME|107=NIYU7|167=FUT|204=0|1028=N|9702=4|12000=TEOUTBOUND|10=027|
20170803-22:05:41.699 : 8=FIX.4.2|9=253|35=8|34=69|49=QBSIM_CME|52=20170803-22:05:41.697|56=TEOUTBOUND|57=QB-CH5|1=TEST|6=0|11=B_CH1OU4QPH1U|14=0|17=exe_2|20=0|31=0|32=0|37=SN00000083__simgway|38=1|39=0|40=2|44=19950|54=1|55=NIYU7|60=20170803-22:05:41.696|113=Y|150=0|151=1|167=FUT|200=201709|10=050|
20170803-22:05:41.903 : 8=FIX.4.2|9=239|35=D|34=78|49=TEOUTBOUND|50=QB-CH5|52=20170803-22:05:41.903|56=QBSIM_CME|57=G|142=US,NY|1=TEST|11=B_CH1OU4QPH1W|21=1|38=1|40=2|44=19980|54=2|55=NKDU7|59=0|60=20170803-22:05:41|100=CME|107=NKDU7|167=FUT|204=0|1028=N|9702=4|12000=TEOUTBOUND|10=241|
20170803-22:05:41.904 : 8=FIX.4.2|9=253|35=8|34=70|49=QBSIM_CME|52=20170803-22:05:41.902|56=TEOUTBOUND|57=QB-CH5|1=TEST|6=0|11=B_CH1OU4QPH1W|14=0|17=exe_2|20=0|31=0|32=0|37=SN00000085__simgway|38=1|39=0|40=2|44=19980|54=2|55=NKDU7|60=20170803-22:05:41.901|113=Y|150=0|151=1|167=FUT|200=201709|10=009|
20170803-22:05:42.111 : 8=FIX.4.2|9=238|35=D|34=79|49=TEOUTBOUND|50=QB-CH5|52=20170803-22:05:42.111|56=QBSIM_CME|57=G|142=US,NY|1=TEST|11=B_CH1OU4QPI1Y|21=1|38=1|40=2|44=588950|54=1|55=NQU7|59=0|60=20170803-22:05:42|100=CME|107=NQU7|167=FUT|204=0|1028=N|9702=4|12000=TEOUTBOUND|10=168|
20170803-22:05:42.111 : 8=FIX.4.2|9=238|35=D|34=80|49=TEOUTBOUND|50=QB-CH5|52=20170803-22:05:42.111|56=QBSIM_CME|57=G|142=US,NY|1=TEST|11=B_CH1OU4QPI1Z|21=1|38=1|40=2|44=588925|54=1|55=NQU7|59=0|60=20170803-22:05:42|100=CME|107=NQU7|167=FUT|204=0|1028=N|9702=4|12000=TEOUTBOUND|10=163|
20170803-22:05:42.112 : 8=FIX.4.2|9=253|35=8|34=71|49=QBSIM_CME|52=20170803-22:05:42.109|56=TEOUTBOUND|57=QB-CH5|1=TEST|6=0|11=B_CH1OU4QPI1Y|14=0|17=exe_2|20=0|31=0|32=0|37=SN00000087__simgway|38=1|39=0|40=2|44=588950|54=1|55=NQU7|60=20170803-22:05:42.108|113=Y|150=0|151=1|167=FUT|200=201709|10=008|
20170803-22:05:42.112 : 8=FIX.4.2|9=253|35=8|34=72|49=QBSIM_CME|52=20170803-22:05:42.110|56=TEOUTBOUND|57=QB-CH5|1=TEST|6=0|11=B_CH1OU4QPI1Z|14=0|17=exe_2|20=0|31=0|32=0|37=SN00000089__simgway|38=1|39=0|40=2|44=588925|54=1|55=NQU7|60=20170803-22:05:42.109|113=Y|150=0|151=1|167=FUT|200=201709|10=007|
20170803-22:05:42.316 : 8=FIX.4.2|9=237|35=D|34=81|49=TEOUTBOUND|50=QB-CH5|52=20170803-22:05:42.316|56=QBSIM_CME|57=G|142=US,NY|1=TEST|11=B_CH1OU4QPI21|21=1|38=1|40=2|44=88360|54=2|55=PAU7|59=0|60=20170803-22:05:42|100=CME|107=PAU7|167=FUT|204=0|1028=N|9702=4|12000=TEOUTBOUND|10=043|
20170803-22:05:42.316 : 8=FIX.4.2|9=237|35=D|34=82|49=TEOUTBOUND|50=QB-CH5|52=20170803-22:05:42.316|56=QBSIM_CME|57=G|142=US,NY|1=TEST|11=B_CH1OU4QPI22|21=1|38=1|40=2|44=88365|54=2|55=PAU7|59=0|60=20170803-22:05:42|100=CME|107=PAU7|167=FUT|204=0|1028=N|9702=4|12000=TEOUTBOUND|10=050|
20170803-22:05:42.316 : 8=FIX.4.2|9=237|35=D|34=83|49=TEOUTBOUND|50=QB-CH5|52=20170803-22:05:42.316|56=QBSIM_CME|57=G|142=US,NY|1=TEST|11=B_CH1OU4QPI23|21=1|38=1|40=2|44=88385|54=2|55=PAU7|59=0|60=20170803-22:05:42|100=CME|107=PAU7|167=FUT|204=0|1028=N|9702=4|12000=TEOUTBOUND|10=054|
20170803-22:05:42.317 : 8=FIX.4.2|9=252|35=8|34=73|49=QBSIM_CME|52=20170803-22:05:42.314|56=TEOUTBOUND|57=QB-CH5|1=TEST|6=0|11=B_CH1OU4QPI21|14=0|17=exe_2|20=0|31=0|32=0|37=SN00000091__simgway|38=1|39=0|40=2|44=88360|54=2|55=PAU7|60=20170803-22:05:42.314|113=Y|150=0|151=1|167=FUT|200=201709|10=147|
20170803-22:05:42.317 : 8=FIX.4.2|9=237|35=D|34=84|49=TEOUTBOUND|50=QB-CH5|52=20170803-22:05:42.317|56=QBSIM_CME|57=G|142=US,NY|1=TEST|11=B_CH1OU4QPI24|21=1|38=1|40=2|44=88400|54=2|55=PAU7|59=0|60=20170803-22:05:42|100=CME|107=PAU7|167=FUT|204=0|1028=N|9702=4|12000=TEOUTBOUND|10=045|
20170803-22:05:42.317 : 8=FIX.4.2|9=260|35=8|34=74|49=QBSIM_CME|52=20170803-22:05:42.314|56=TEOUTBOUND|57=QB-CH5|1=TEST|6=88360|11=B_CH1OU4QPI21|14=1|17=exe_5|20=0|31=88360|32=1|37=SN00000091__simgway|38=1|39=2|40=2|44=88360|54=2|55=PAU7|60=20170803-22:05:42.314|113=Y|150=2|151=0|167=FUT|200=201709|10=077|
20170803-22:05:42.318 : 8=FIX.4.2|9=252|35=8|34=75|49=QBSIM_CME|52=20170803-22:05:42.315|56=TEOUTBOUND|57=QB-CH5|1=TEST|6=0|11=B_CH1OU4QPI22|14=0|17=exe_2|20=0|31=0|32=0|37=SN00000093__simgway|38=1|39=0|40=2|44=88365|54=2|55=PAU7|60=20170803-22:05:42.314|113=Y|150=0|151=1|167=FUT|200=201709|10=158|
20170803-22:05:42.357 : 8=FIX.4.2|9=252|35=8|34=76|49=QBSIM_CME|52=20170803-22:05:42.315|56=TEOUTBOUND|57=QB-CH5|1=TEST|6=0|11=B_CH1OU4QPI23|14=0|17=exe_2|20=0|31=0|32=0|37=SN00000094__simgway|38=1|39=0|40=2|44=88385|54=2|55=PAU7|60=20170803-22:05:42.314|113=Y|150=0|151=1|167=FUT|200=201709|10=163|
20170803-22:05:42.357 : 8=FIX.4.2|9=252|35=8|34=77|49=QBSIM_CME|52=20170803-22:05:42.316|56=TEOUTBOUND|57=QB-CH5|1=TEST|6=0|11=B_CH1OU4QPI24|14=0|17=exe_2|20=0|31=0|32=0|37=SN00000095__simgway|38=1|39=0|40=2|44=88400|54=2|55=PAU7|60=20170803-22:05:42.314|113=Y|150=0|151=1|167=FUT|200=201709|10=155|
20170803-22:05:42.520 : 8=FIX.4.2|9=236|35=D|34=85|49=TEOUTBOUND|50=QB-CH5|52=20170803-22:05:42.520|56=QBSIM_CME|57=G|142=US,NY|1=TEST|11=B_CH1OU4QPI27|21=1|38=1|40=2|44=9664|54=1|55=PLV7|59=0|60=20170803-22:05:42|100=CME|107=PLV7|167=FUT|204=0|1028=N|9702=4|12000=TEOUTBOUND|10=024|
20170803-22:05:42.521 : 8=FIX.4.2|9=236|35=D|34=86|49=TEOUTBOUND|50=QB-CH5|52=20170803-22:05:42.521|56=QBSIM_CME|57=G|142=US,NY|1=TEST|11=B_CH1OU4QPI28|21=1|38=1|40=2|44=9663|54=1|55=PLV7|59=0|60=20170803-22:05:42|100=CME|107=PLV7|167=FUT|204=0|1028=N|9702=4|12000=TEOUTBOUND|10=026|
20170803-22:05:42.521 : 8=FIX.4.2|9=236|35=D|34=87|49=TEOUTBOUND|50=QB-CH5|52=20170803-22:05:42.521|56=QBSIM_CME|57=G|142=US,NY|1=TEST|11=B_CH1OU4QPI29|21=1|38=1|40=2|44=9659|54=1|55=PLV7|59=0|60=20170803-22:05:42|100=CME|107=PLV7|167=FUT|204=0|1028=N|9702=4|12000=TEOUTBOUND|10=033|
20170803-22:05:42.521 : 8=FIX.4.2|9=251|35=8|34=78|49=QBSIM_CME|52=20170803-22:05:42.519|56=TEOUTBOUND|57=QB-CH5|1=TEST|6=0|11=B_CH1OU4QPI27|14=0|17=exe_2|20=0|31=0|32=0|37=SN00000099__simgway|38=1|39=0|40=2|44=9664|54=1|55=PLV7|60=20170803-22:05:42.518|113=Y|150=0|151=1|167=FUT|200=201710|10=133|
20170803-22:05:42.521 : 8=FIX.4.2|9=257|35=8|34=79|49=QBSIM_CME|52=20170803-22:05:42.519|56=TEOUTBOUND|57=QB-CH5|1=TEST|6=9664|11=B_CH1OU4QPI27|14=1|17=exe_5|20=0|31=9664|32=1|37=SN00000099__simgway|38=1|39=2|40=2|44=9664|54=1|55=PLV7|60=20170803-22:05:42.518|113=Y|150=2|151=0|167=FUT|200=201710|10=230|
20170803-22:05:42.523 : 8=FIX.4.2|9=251|35=8|34=80|49=QBSIM_CME|52=20170803-22:05:42.520|56=TEOUTBOUND|57=QB-CH5|1=TEST|6=0|11=B_CH1OU4QPI28|14=0|17=exe_2|20=0|31=0|32=0|37=SN00000101__simgway|38=1|39=0|40=2|44=9663|54=1|55=PLV7|60=20170803-22:05:42.519|113=Y|150=0|151=1|167=FUT|200=201710|10=103|
20170803-22:05:42.562 : 8=FIX.4.2|9=251|35=8|34=81|49=QBSIM_CME|52=20170803-22:05:42.520|56=TEOUTBOUND|57=QB-CH5|1=TEST|6=0|11=B_CH1OU4QPI29|14=0|17=exe_2|20=0|31=0|32=0|37=SN00000102__simgway|38=1|39=0|40=2|44=9659|54=1|55=PLV7|60=20170803-22:05:42.519|113=Y|150=0|151=1|167=FUT|200=201710|10=111|
20170803-22:05:42.733 : 8=FIX.4.2|9=237|35=D|34=88|49=TEOUTBOUND|50=QB-CH5|52=20170803-22:05:42.732|56=QBSIM_CME|57=G|142=US,NY|1=TEST|11=B_CH1OU4QPI2C|21=1|38=1|40=2|44=16339|54=2|55=RBU7|59=0|60=20170803-22:05:42|100=CME|107=RBU7|167=FUT|204=0|1028=N|9702=4|12000=TEOUTBOUND|10=073|
20170803-22:05:42.733 : 8=FIX.4.2|9=237|35=D|34=89|49=TEOUTBOUND|50=QB-CH5|52=20170803-22:05:42.733|56=QBSIM_CME|57=G|142=US,NY|1=TEST|11=B_CH1OU4QPI2D|21=1|38=1|40=2|44=16340|54=2|55=RBU7|59=0|60=20170803-22:05:42|100=CME|107=RBU7|167=FUT|204=0|1028=N|9702=4|12000=TEOUTBOUND|10=068|
20170803-22:05:42.733 : 8=FIX.4.2|9=237|35=D|34=90|49=TEOUTBOUND|50=QB-CH5|52=20170803-22:05:42.733|56=QBSIM_CME|57=G|142=US,NY|1=TEST|11=B_CH1OU4QPI2E|21=1|38=1|40=2|44=16343|54=2|55=RBU7|59=0|60=20170803-22:05:42|100=CME|107=RBU7|167=FUT|204=0|1028=N|9702=4|12000=TEOUTBOUND|10=064|
20170803-22:05:42.733 : 8=FIX.4.2|9=252|35=8|34=82|49=QBSIM_CME|52=20170803-22:05:42.731|56=TEOUTBOUND|57=QB-CH5|1=TEST|6=0|11=B_CH1OU4QPI2C|14=0|17=exe_2|20=0|31=0|32=0|37=SN00000106__simgway|38=1|39=0|40=2|44=16339|54=2|55=RBU7|60=20170803-22:05:42.730|113=Y|150=0|151=1|167=FUT|200=201709|10=167|
20170803-22:05:42.733 : 8=FIX.4.2|9=260|35=8|34=83|49=QBSIM_CME|52=20170803-22:05:42.731|56=TEOUTBOUND|57=QB-CH5|1=TEST|6=16339|11=B_CH1OU4QPI2C|14=1|17=exe_5|20=0|31=16339|32=1|37=SN00000106__simgway|38=1|39=2|40=2|44=16339|54=2|55=RBU7|60=20170803-22:05:42.730|113=Y|150=2|151=0|167=FUT|200=201709|10=091|
20170803-22:05:42.773 : 8=FIX.4.2|9=252|35=8|34=84|49=QBSIM_CME|52=20170803-22:05:42.732|56=TEOUTBOUND|57=QB-CH5|1=TEST|6=0|11=B_CH1OU4QPI2D|14=0|17=exe_2|20=0|31=0|32=0|37=SN00000108__simgway|38=1|39=0|40=2|44=16340|54=2|55=RBU7|60=20170803-22:05:42.731|113=Y|150=0|151=1|167=FUT|200=201709|10=166|
20170803-22:05:42.773 : 8=FIX.4.2|9=260|35=8|34=85|49=QBSIM_CME|52=20170803-22:05:42.732|56=TEOUTBOUND|57=QB-CH5|1=TEST|6=16340|11=B_CH1OU4QPI2D|14=1|17=exe_5|20=0|31=16340|32=1|37=SN00000108__simgway|38=1|39=2|40=2|44=16340|54=2|55=RBU7|60=20170803-22:05:42.731|113=Y|150=2|151=0|167=FUT|200=201709|10=074|
20170803-22:05:42.773 : 8=FIX.4.2|9=333|35=8|34=86|49=QBSIM_CME|52=20170803-22:05:42.733|56=TEOUTBOUND|57=QB-CH5|1=TEST|6=0|11=B_CH1OU4QPI2E|14=0|17=exe_3|20=0|31=0|32=0|37=SN00000109__simgway|38=1|39=8|40=2|44=16343|54=2|55=RBU7|58= New client order for level that has no direct liquidity (Implied only level)|60=20170803-22:05:42.732|113=Y|150=8|151=0|167=FUT|200=201709|10=064|
20170803-22:05:42.774 : 8=FIX.4.2|9=237|35=D|34=91|49=TEOUTBOUND|50=QB-CH5|52=20170803-22:05:42.774|56=QBSIM_CME|57=G|142=US,NY|1=TEST|11=B_CH1OU4QPI2I|21=1|38=1|40=2|44=16340|54=2|55=RBU7|59=0|60=20170803-22:05:42|100=CME|107=RBU7|167=FUT|204=0|1028=N|9702=4|12000=TEOUTBOUND|10=071|
20170803-22:05:42.774 : 8=FIX.4.2|9=252|35=8|34=87|49=QBSIM_CME|52=20170803-22:05:42.772|56=TEOUTBOUND|57=QB-CH5|1=TEST|6=0|11=B_CH1OU4QPI2I|14=0|17=exe_2|20=0|31=0|32=0|37=SN00000112__simgway|38=1|39=0|40=2|44=16340|54=2|55=RBU7|60=20170803-22:05:42.771|113=Y|150=0|151=1|167=FUT|200=201709|10=177|
20170803-22:05:42.814 : 8=FIX.4.2|9=260|35=8|34=88|49=QBSIM_CME|52=20170803-22:05:42.772|56=TEOUTBOUND|57=QB-CH5|1=TEST|6=16340|11=B_CH1OU4QPI2I|14=1|17=exe_5|20=0|31=16340|32=1|37=SN00000112__simgway|38=1|39=2|40=2|44=16340|54=2|55=RBU7|60=20170803-22:05:42.771|113=Y|150=2|151=0|167=FUT|200=201709|10=085|
20170803-22:05:42.815 : 8=FIX.4.2|9=237|35=D|34=92|49=TEOUTBOUND|50=QB-CH5|52=20170803-22:05:42.815|56=QBSIM_CME|57=G|142=US,NY|1=TEST|11=B_CH1OU4QPI2K|21=1|38=1|40=2|44=16340|54=2|55=RBU7|59=0|60=20170803-22:05:42|100=CME|107=RBU7|167=FUT|204=0|1028=N|9702=4|12000=TEOUTBOUND|10=070|
20170803-22:05:42.815 : 8=FIX.4.2|9=252|35=8|34=89|49=QBSIM_CME|52=20170803-22:05:42.813|56=TEOUTBOUND|57=QB-CH5|1=TEST|6=0|11=B_CH1OU4QPI2K|14=0|17=exe_2|20=0|31=0|32=0|37=SN00000113__simgway|38=1|39=0|40=2|44=16340|54=2|55=RBU7|60=20170803-22:05:42.812|113=Y|150=0|151=1|167=FUT|200=201709|10=174|
20170803-22:05:42.855 : 8=FIX.4.2|9=260|35=8|34=90|49=QBSIM_CME|52=20170803-22:05:42.813|56=TEOUTBOUND|57=QB-CH5|1=TEST|6=16340|11=B_CH1OU4QPI2K|14=1|17=exe_5|20=0|31=16340|32=1|37=SN00000113__simgway|38=1|39=2|40=2|44=16340|54=2|55=RBU7|60=20170803-22:05:42.812|113=Y|150=2|151=0|167=FUT|200=201709|10=073|
20170803-22:05:42.856 : 8=FIX.4.2|9=237|35=D|34=93|49=TEOUTBOUND|50=QB-CH5|52=20170803-22:05:42.856|56=QBSIM_CME|57=G|142=US,NY|1=TEST|11=B_CH1OU4QPI2M|21=1|38=1|40=2|44=16340|54=2|55=RBU7|59=0|60=20170803-22:05:42|100=CME|107=RBU7|167=FUT|204=0|1028=N|9702=4|12000=TEOUTBOUND|10=078|
20170803-22:05:42.856 : 8=FIX.4.2|9=252|35=8|34=91|49=QBSIM_CME|52=20170803-22:05:42.854|56=TEOUTBOUND|57=QB-CH5|1=TEST|6=0|11=B_CH1OU4QPI2M|14=0|17=exe_2|20=0|31=0|32=0|37=SN00000114__simgway|38=1|39=0|40=2|44=16340|54=2|55=RBU7|60=20170803-22:05:42.853|113=Y|150=0|151=1|167=FUT|200=201709|10=180|
20170803-22:05:42.896 : 8=FIX.4.2|9=260|35=8|34=92|49=QBSIM_CME|52=20170803-22:05:42.854|56=TEOUTBOUND|57=QB-CH5|1=TEST|6=16340|11=B_CH1OU4QPI2M|14=1|17=exe_5|20=0|31=16340|32=1|37=SN00000114__simgway|38=1|39=2|40=2|44=16340|54=2|55=RBU7|60=20170803-22:05:42.853|113=Y|150=2|151=0|167=FUT|200=201709|10=088|
20170803-22:05:42.945 : 8=FIX.4.2|9=237|35=D|34=94|49=TEOUTBOUND|50=QB-CH5|52=20170803-22:05:42.945|56=QBSIM_CME|57=G|142=US,NY|1=TEST|11=B_CH1OU4QPI2O|21=1|38=2|40=2|44=16640|54=1|55=SIU7|59=0|60=20170803-22:05:42|100=CME|107=SIU7|167=FUT|204=0|1028=N|9702=4|12000=TEOUTBOUND|10=099|
20170803-22:05:42.945 : 8=FIX.4.2|9=252|35=8|34=93|49=QBSIM_CME|52=20170803-22:05:42.943|56=TEOUTBOUND|57=QB-CH5|1=TEST|6=0|11=B_CH1OU4QPI2O|14=0|17=exe_2|20=0|31=0|32=0|37=SN00000115__simgway|38=2|39=0|40=2|44=16640|54=1|55=SIU7|60=20170803-22:05:42.942|113=Y|150=0|151=2|167=FUT|200=201709|10=195|
20170803-22:05:42.945 : 8=FIX.4.2|9=260|35=8|34=94|49=QBSIM_CME|52=20170803-22:05:42.943|56=TEOUTBOUND|57=QB-CH5|1=TEST|6=16640|11=B_CH1OU4QPI2O|14=2|17=exe_5|20=0|31=16640|32=2|37=SN00000115__simgway|38=2|39=2|40=2|44=16640|54=1|55=SIU7|60=20170803-22:05:42.942|113=Y|150=2|151=0|167=FUT|200=201709|10=110|
20170803-22:05:42.946 : 8=FIX.4.2|9=237|35=D|34=95|49=TEOUTBOUND|50=QB-CH5|52=20170803-22:05:42.946|56=QBSIM_CME|57=G|142=US,NY|1=TEST|11=B_CH1OU4QPI2R|21=1|38=1|40=2|44=16635|54=1|55=SIU7|59=0|60=20170803-22:05:42|100=CME|107=SIU7|167=FUT|204=0|1028=N|9702=4|12000=TEOUTBOUND|10=107|
20170803-22:05:42.946 : 8=FIX.4.2|9=237|35=D|34=96|49=TEOUTBOUND|50=QB-CH5|52=20170803-22:05:42.946|56=QBSIM_CME|57=G|142=US,NY|1=TEST|11=B_CH1OU4QPI2S|21=1|38=1|40=2|44=16630|54=1|55=SIU7|59=0|60=20170803-22:05:42|100=CME|107=SIU7|167=FUT|204=0|1028=N|9702=4|12000=TEOUTBOUND|10=104|
20170803-22:05:42.947 : 8=FIX.4.2|9=252|35=8|34=95|49=QBSIM_CME|52=20170803-22:05:42.944|56=TEOUTBOUND|57=QB-CH5|1=TEST|6=0|11=B_CH1OU4QPI2R|14=0|17=exe_2|20=0|31=0|32=0|37=SN00000118__simgway|38=1|39=0|40=2|44=16635|54=1|55=SIU7|60=20170803-22:05:42.944|113=Y|150=0|151=1|167=FUT|200=201709|10=208|
20170803-22:05:42.947 : 8=FIX.4.2|9=252|35=8|34=96|49=QBSIM_CME|52=20170803-22:05:42.945|56=TEOUTBOUND|57=QB-CH5|1=TEST|6=0|11=B_CH1OU4QPI2S|14=0|17=exe_2|20=0|31=0|32=0|37=SN00000119__simgway|38=1|39=0|40=2|44=16630|54=1|55=SIU7|60=20170803-22:05:42.944|113=Y|150=0|151=1|167=FUT|200=201709|10=207|
20170803-22:05:43.018 : 8=FIX.4.2|9=291|35=F|34=97|49=TEOUTBOUND|50=QB-CH5|52=20170803-22:05:43.018|56=QBSIM_CME|57=G|142=US,NY|1=TEST|11=B_CH1OU4QPJ2T|37=SN00000065__simgway|38=1|40=2|41=B_CH1OU4QPG1E|44=28780|54=1|55=HGU7|59=0|60=20170803-22:05:43|100=CME|107=HGU7|167=FUT|204=0|1028=N|9702=4|9717=B_CH1OU4QPG1E|12000=TEOUTBOUND|10=244|
20170803-22:05:43.019 : 8=FIX.4.2|9=237|35=D|34=98|49=TEOUTBOUND|50=QB-CH5|52=20170803-22:05:43.018|56=QBSIM_CME|57=G|142=US,NY|1=TEST|11=B_CH1OU4QPJ2U|21=1|38=1|40=2|44=28790|54=1|55=HGU7|59=0|60=20170803-22:05:43|100=CME|107=HGU7|167=FUT|204=0|1028=N|9702=4|12000=TEOUTBOUND|10=085|
20170803-22:05:43.019 : 8=FIX.4.2|9=269|35=8|34=97|49=QBSIM_CME|52=20170803-22:05:43.017|56=TEOUTBOUND|57=QB-CH5|1=TEST|6=0|11=B_CH1OU4QPDE|14=0|17=exe_12|20=0|31=0|32=0|37=SN00000015__simgway|38=1|39=4|40=2|41=B_CH1OU4QPDE|44=9107.5|54=2|55=6JU7|60=20170803-22:05:43.016|113=Y|150=4|151=0|167=FUT|200=201709|10=207|
20170803-22:05:43.022 : 8=FIX.4.2|9=269|35=8|34=98|49=QBSIM_CME|52=20170803-22:05:43.017|56=TEOUTBOUND|57=QB-CH5|1=TEST|6=0|11=B_CH1OU4QPJ2T|14=0|17=exe_9|20=0|31=0|32=0|37=SN00000065__simgway|38=1|39=6|40=2|41=B_CH1OU4QPG1E|44=28780|54=1|55=HGU7|60=20170803-22:05:43.016|113=Y|150=6|151=1|167=FUT|200=201709|10=014|
20170803-22:05:43.022 : 8=FIX.4.2|9=238|35=D|34=99|49=TEOUTBOUND|50=QB-CH5|52=20170803-22:05:43.022|56=QBSIM_CME|57=G|142=US,NY|1=TEST|11=B_CH1OU4QPJ2V|21=1|38=1|40=2|44=9108.5|54=2|55=6JU7|59=0|60=20170803-22:05:43|100=CME|107=6JU7|167=FUT|204=0|1028=N|9702=4|12000=TEOUTBOUND|10=097|
20170803-22:05:43.023 : 8=FIX.4.2|9=270|35=8|34=99|49=QBSIM_CME|52=20170803-22:05:43.017|56=TEOUTBOUND|57=QB-CH5|1=TEST|6=0|11=B_CH1OU4QPJ2T|14=0|17=exe_10|20=0|31=0|32=0|37=SN00000065__simgway|38=1|39=4|40=2|41=B_CH1OU4QPG1E|44=28780|54=1|55=HGU7|60=20170803-22:05:43.016|113=Y|150=4|151=0|167=FUT|200=201709|10=042|
20170803-22:05:43.023 : 8=FIX.4.2|9=253|35=8|34=100|49=QBSIM_CME|52=20170803-22:05:43.018|56=TEOUTBOUND|57=QB-CH5|1=TEST|6=0|11=B_CH1OU4QPJ2U|14=0|17=exe_2|20=0|31=0|32=0|37=SN00000123__simgway|38=1|39=0|40=2|44=28790|54=1|55=HGU7|60=20170803-22:05:43.017|113=Y|150=0|151=1|167=FUT|200=201709|10=221|
20170803-22:05:43.062 : 8=FIX.4.2|9=254|35=8|34=101|49=QBSIM_CME|52=20170803-22:05:43.020|56=TEOUTBOUND|57=QB-CH5|1=TEST|6=0|11=B_CH1OU4QPJ2V|14=0|17=exe_2|20=0|31=0|32=0|37=SN00000124__simgway|38=1|39=0|40=2|44=9108.5|54=2|55=6JU7|60=20170803-22:05:43.020|113=Y|150=0|151=1|167=FUT|200=201709|10=241|
20170803-22:05:43.152 : 8=FIX.4.2|9=243|35=D|34=100|49=TEOUTBOUND|50=QB-CH5|52=20170803-22:05:43.152|56=QBSIM_CME|57=G|142=US,NY|1=TEST|11=B_CH1OU4QPJ2W|21=1|38=1|40=2|44=135.859375|54=2|55=TNU7|59=0|60=20170803-22:05:43|100=CME|107=TNU7|167=FUT|204=0|1028=N|9702=4|12000=TEOUTBOUND|10=156|
20170803-22:05:43.152 : 8=FIX.4.2|9=240|35=D|34=101|49=TEOUTBOUND|50=QB-CH5|52=20170803-22:05:43.152|56=QBSIM_CME|57=G|142=US,NY|1=TEST|11=B_CH1OU4QPJ2X|21=1|38=1|40=2|44=135.875|54=2|55=TNU7|59=0|60=20170803-22:05:43|100=CME|107=TNU7|167=FUT|204=0|1028=N|9702=4|12000=TEOUTBOUND|10=250|
20170803-22:05:43.153 : 8=FIX.4.2|9=258|35=8|34=102|49=QBSIM_CME|52=20170803-22:05:43.150|56=TEOUTBOUND|57=QB-CH5|1=TEST|6=0|11=B_CH1OU4QPJ2W|14=0|17=exe_2|20=0|31=0|32=0|37=SN00000126__simgway|38=1|39=0|40=2|44=135.859375|54=2|55=TNU7|60=20170803-22:05:43.150|113=Y|150=0|151=1|167=FUT|200=201709|10=250|
20170803-22:05:43.153 : 8=FIX.4.2|9=255|35=8|34=103|49=QBSIM_CME|52=20170803-22:05:43.151|56=TEOUTBOUND|57=QB-CH5|1=TEST|6=0|11=B_CH1OU4QPJ2X|14=0|17=exe_2|20=0|31=0|32=0|37=SN00000127__simgway|38=1|39=0|40=2|44=135.875|54=2|55=TNU7|60=20170803-22:05:43.150|113=Y|150=0|151=1|167=FUT|200=201709|10=090|
20170803-22:05:43.395 : 8=FIX.4.2|9=238|35=D|34=102|49=TEOUTBOUND|50=QB-CH5|52=20170803-22:05:43.395|56=QBSIM_CME|57=G|142=US,NY|1=TEST|11=B_CH1OU4QPJ2Z|21=1|38=2|40=2|44=167.5|54=1|55=UBU7|59=0|60=20170803-22:05:43|100=CME|107=UBU7|167=FUT|204=0|1028=N|9702=4|12000=TEOUTBOUND|10=141|
20170803-22:05:43.395 : 8=FIX.4.2|9=242|35=D|34=103|49=TEOUTBOUND|50=QB-CH5|52=20170803-22:05:43.395|56=QBSIM_CME|57=G|142=US,NY|1=TEST|11=B_CH1OU4QPJ30|21=1|38=1|40=2|44=167.46875|54=1|55=UBU7|59=0|60=20170803-22:05:43|100=CME|107=UBU7|167=FUT|204=0|1028=N|9702=4|12000=TEOUTBOUND|10=056|
20170803-22:05:43.395 : 8=FIX.4.2|9=253|35=8|34=104|49=QBSIM_CME|52=20170803-22:05:43.393|56=TEOUTBOUND|57=QB-CH5|1=TEST|6=0|11=B_CH1OU4QPJ2Z|14=0|17=exe_2|20=0|31=0|32=0|37=SN00000130__simgway|38=2|39=0|40=2|44=167.5|54=1|55=UBU7|60=20170803-22:05:43.392|113=Y|150=0|151=2|167=FUT|200=201709|10=241|
20170803-22:05:43.396 : 8=FIX.4.2|9=257|35=8|34=105|49=QBSIM_CME|52=20170803-22:05:43.394|56=TEOUTBOUND|57=QB-CH5|1=TEST|6=0|11=B_CH1OU4QPJ30|14=0|17=exe_2|20=0|31=0|32=0|37=SN00000131__simgway|38=1|39=0|40=2|44=167.46875|54=1|55=UBU7|60=20170803-22:05:43.393|113=Y|150=0|151=1|167=FUT|200=201709|10=167|
20170803-22:05:43.602 : 8=FIX.4.2|9=238|35=D|34=104|49=TEOUTBOUND|50=QB-CH5|52=20170803-22:05:43.602|56=QBSIM_CME|57=G|142=US,NY|1=TEST|11=B_CH1OU4QPJ32|21=1|38=1|40=2|44=21973|54=2|55=YMU7|59=0|60=20170803-22:05:43|100=CME|107=YMU7|167=FUT|204=0|1028=N|9702=4|12000=TEOUTBOUND|10=130|
20170803-22:05:43.602 : 8=FIX.4.2|9=238|35=D|34=105|49=TEOUTBOUND|50=QB-CH5|52=20170803-22:05:43.602|56=QBSIM_CME|57=G|142=US,NY|1=TEST|11=B_CH1OU4QPJ33|21=1|38=1|40=2|44=21974|54=2|55=YMU7|59=0|60=20170803-22:05:43|100=CME|107=YMU7|167=FUT|204=0|1028=N|9702=4|12000=TEOUTBOUND|10=133|
20170803-22:05:43.603 : 8=FIX.4.2|9=253|35=8|34=106|49=QBSIM_CME|52=20170803-22:05:43.600|56=TEOUTBOUND|57=QB-CH5|1=TEST|6=0|11=B_CH1OU4QPJ32|14=0|17=exe_2|20=0|31=0|32=0|37=SN00000134__simgway|38=1|39=0|40=2|44=21973|54=2|55=YMU7|60=20170803-22:05:43.600|113=Y|150=0|151=1|167=FUT|200=201709|10=210|
20170803-22:05:43.603 : 8=FIX.4.2|9=253|35=8|34=107|49=QBSIM_CME|52=20170803-22:05:43.601|56=TEOUTBOUND|57=QB-CH5|1=TEST|6=0|11=B_CH1OU4QPJ33|14=0|17=exe_2|20=0|31=0|32=0|37=SN00000135__simgway|38=1|39=0|40=2|44=21974|54=2|55=YMU7|60=20170803-22:05:43.600|113=Y|150=0|151=1|167=FUT|200=201709|10=215|
20170803-22:05:43.809 : 8=FIX.4.2|9=242|35=D|34=106|49=TEOUTBOUND|50=QB-CH5|52=20170803-22:05:43.809|56=QBSIM_CME|57=G|142=US,NY|1=TEST|11=B_CH1OU4QPJ35|21=1|38=1|40=2|44=155.09375|54=1|55=ZBU7|59=0|60=20170803-22:05:43|100=CME|107=ZBU7|167=FUT|204=0|1028=N|9702=4|12000=TEOUTBOUND|10=065|
20170803-22:05:43.810 : 8=FIX.4.2|9=241|35=D|34=107|49=TEOUTBOUND|50=QB-CH5|52=20170803-22:05:43.810|56=QBSIM_CME|57=G|142=US,NY|1=TEST|11=B_CH1OU4QPJ36|21=1|38=1|40=2|44=155.0625|54=1|55=ZBU7|59=0|60=20170803-22:05:43|100=CME|107=ZBU7|167=FUT|204=0|1028=N|9702=4|12000=TEOUTBOUND|10=255|
20170803-22:05:43.810 : 8=FIX.4.2|9=257|35=8|34=108|49=QBSIM_CME|52=20170803-22:05:43.808|56=TEOUTBOUND|57=QB-CH5|1=TEST|6=0|11=B_CH1OU4QPJ35|14=0|17=exe_2|20=0|31=0|32=0|37=SN00000138__simgway|38=1|39=0|40=2|44=155.09375|54=1|55=ZBU7|60=20170803-22:05:43.807|113=Y|150=0|151=1|167=FUT|200=201709|10=178|
20170803-22:05:43.811 : 8=FIX.4.2|9=256|35=8|34=109|49=QBSIM_CME|52=20170803-22:05:43.808|56=TEOUTBOUND|57=QB-CH5|1=TEST|6=0|11=B_CH1OU4QPJ36|14=0|17=exe_2|20=0|31=0|32=0|37=SN00000139__simgway|38=1|39=0|40=2|44=155.0625|54=1|55=ZBU7|60=20170803-22:05:43.808|113=Y|150=0|151=1|167=FUT|200=201709|10=122|
20170803-22:05:44.240 : 8=FIX.4.2|9=247|35=D|34=108|49=TEOUTBOUND|50=QB-CH5|52=20170803-22:05:44.240|56=QBSIM_CME|57=G|142=US,NY|1=TEST|11=QBSOR_CH1OU4QPK1|21=1|38=4|40=2|44=118.3359375|54=1|55=ZFU7|59=0|60=20170803-22:05:44|100=CME|107=ZFU7|167=FUT|204=0|1028=N|9702=4|12000=TEOUTBOUND|10=195|
20170803-22:05:44.240 : 8=FIX.4.2|9=262|35=8|34=110|49=QBSIM_CME|52=20170803-22:05:44.238|56=TEOUTBOUND|57=QB-CH5|1=TEST|6=0|11=QBSOR_CH1OU4QPK1|14=0|17=exe_2|20=0|31=0|32=0|37=SN00000143__simgway|38=4|39=0|40=2|44=118.3359375|54=1|55=ZFU7|60=20170803-22:05:44.238|113=Y|150=0|151=4|167=FUT|200=201709|10=035|
20170803-22:05:44.256 : 8=FIX.4.2|9=246|35=D|34=109|49=TEOUTBOUND|50=QB-CH5|52=20170803-22:05:44.256|56=QBSIM_CME|57=G|142=US,NY|1=TEST|11=QBSOR_CH1OU4QPK2|21=1|38=1|40=2|44=118.328125|54=1|55=ZFU7|59=0|60=20170803-22:05:44|100=CME|107=ZFU7|167=FUT|204=0|1028=N|9702=4|12000=TEOUTBOUND|10=138|
20170803-22:05:44.257 : 8=FIX.4.2|9=261|35=8|34=111|49=QBSIM_CME|52=20170803-22:05:44.254|56=TEOUTBOUND|57=QB-CH5|1=TEST|6=0|11=QBSOR_CH1OU4QPK2|14=0|17=exe_2|20=0|31=0|32=0|37=SN00000144__simgway|38=1|39=0|40=2|44=118.328125|54=1|55=ZFU7|60=20170803-22:05:44.254|113=Y|150=0|151=1|167=FUT|200=201709|10=221|
20170803-22:05:44.678 : 8=FIX.4.2|9=238|35=D|34=110|49=TEOUTBOUND|50=QB-CH5|52=20170803-22:05:44.678|56=QBSIM_CME|57=G|142=US,NY|1=TEST|11=B_CH1OU4QPK3B|21=1|38=1|40=2|44=11898|54=1|55=6EU7|59=0|60=20170803-22:05:44|100=CME|107=6EU7|167=FUT|204=0|1028=N|9702=4|12000=TEOUTBOUND|10=077|
20170803-22:05:44.679 : 8=FIX.4.2|9=253|35=8|34=112|49=QBSIM_CME|52=20170803-22:05:44.676|56=TEOUTBOUND|57=QB-CH5|1=TEST|6=0|11=B_CH1OU4QPK3B|14=0|17=exe_2|20=0|31=0|32=0|37=SN00000146__simgway|38=1|39=0|40=2|44=11898|54=1|55=6EU7|60=20170803-22:05:44.675|113=Y|150=0|151=1|167=FUT|200=201709|10=215|
20170803-22:05:45.056 : 8=FIX.4.2|9=238|35=D|34=111|49=TEOUTBOUND|50=QB-CH5|52=20170803-22:05:45.056|56=QBSIM_CME|57=G|142=US,NY|1=TEST|11=B2_CH1OU4QPL5|21=1|38=1|40=2|44=12745|54=1|55=GCZ7|59=0|60=20170803-22:05:45|100=CME|107=GCZ7|167=FUT|204=0|1028=N|9702=4|12000=TEOUTBOUND|10=089|
20170803-22:05:45.056 : 8=FIX.4.2|9=238|35=D|34=112|49=TEOUTBOUND|50=QB-CH5|52=20170803-22:05:45.056|56=QBSIM_CME|57=G|142=US,NY|1=TEST|11=B2_CH1OU4QPL6|21=1|38=1|40=2|44=12744|54=1|55=GCZ7|59=0|60=20170803-22:05:45|100=CME|107=GCZ7|167=FUT|204=0|1028=N|9702=4|12000=TEOUTBOUND|10=090|
20170803-22:05:45.056 : 8=FIX.4.2|9=253|35=8|34=113|49=QBSIM_CME|52=20170803-22:05:45.054|56=TEOUTBOUND|57=QB-CH5|1=TEST|6=0|11=B2_CH1OU4QPL5|14=0|17=exe_2|20=0|31=0|32=0|37=SN00000150__simgway|38=1|39=0|40=2|44=12745|54=1|55=GCZ7|60=20170803-22:05:45.054|113=Y|150=0|151=1|167=FUT|200=201712|10=187|
20170803-22:05:45.058 : 8=FIX.4.2|9=253|35=8|34=114|49=QBSIM_CME|52=20170803-22:05:45.055|56=TEOUTBOUND|57=QB-CH5|1=TEST|6=0|11=B2_CH1OU4QPL6|14=0|17=exe_2|20=0|31=0|32=0|37=SN00000151__simgway|38=1|39=0|40=2|44=12744|54=1|55=GCZ7|60=20170803-22:05:45.054|113=Y|150=0|151=1|167=FUT|200=201712|10=190|
20170803-22:05:45.058 : 8=FIX.4.2|9=292|35=F|34=113|49=TEOUTBOUND|50=QB-CH5|52=20170803-22:05:45.058|56=QBSIM_CME|57=G|142=US,NY|1=TEST|11=B2_CH1OU4QPL7|37=SN00000150__simgway|38=1|40=2|41=B2_CH1OU4QPL5|44=12745|54=1|55=GCZ7|59=0|60=20170803-22:05:45|100=CME|107=GCZ7|167=FUT|204=0|1028=N|9702=4|9717=B2_CH1OU4QPL5|12000=TEOUTBOUND|10=232|
20170803-22:05:45.058 : 8=FIX.4.2|9=270|35=8|34=115|49=QBSIM_CME|52=20170803-22:05:45.056|56=TEOUTBOUND|57=QB-CH5|1=TEST|6=0|11=B2_CH1OU4QPL7|14=0|17=exe_9|20=0|31=0|32=0|37=SN00000150__simgway|38=1|39=6|40=2|41=B2_CH1OU4QPL5|44=12745|54=1|55=GCZ7|60=20170803-22:05:45.055|113=Y|150=6|151=1|167=FUT|200=201712|10=000|
20170803-22:05:45.098 : 8=FIX.4.2|9=271|35=8|34=116|49=QBSIM_CME|52=20170803-22:05:45.056|56=TEOUTBOUND|57=QB-CH5|1=TEST|6=0|11=B2_CH1OU4QPL7|14=0|17=exe_10|20=0|31=0|32=0|37=SN00000150__simgway|38=1|39=4|40=2|41=B2_CH1OU4QPL5|44=12745|54=1|55=GCZ7|60=20170803-22:05:45.055|113=Y|150=4|151=0|167=FUT|200=201712|10=037|
20170803-22:05:45.101 : 8=FIX.4.2|9=292|35=F|34=114|49=TEOUTBOUND|50=QB-CH5|52=20170803-22:05:45.101|56=QBSIM_CME|57=G|142=US,NY|1=TEST|11=B2_CH1OU4QPL8|37=SN00000054__simgway|38=1|40=2|41=B2_CH1OU4QPF4|44=12743|54=1|55=GCZ7|59=0|60=20170803-22:05:45|100=CME|107=GCZ7|167=FUT|204=0|1028=N|9702=4|9717=B2_CH1OU4QPF4|12000=TEOUTBOUND|10=210|
20170803-22:05:45.102 : 8=FIX.4.2|9=238|35=D|34=115|49=TEOUTBOUND|50=QB-CH5|52=20170803-22:05:45.102|56=QBSIM_CME|57=G|142=US,NY|1=TEST|11=B2_CH1OU4QPL9|21=1|38=1|40=2|44=12745|54=1|55=GCZ7|59=0|60=20170803-22:05:45|100=CME|107=GCZ7|167=FUT|204=0|1028=N|9702=4|12000=TEOUTBOUND|10=089|
20170803-22:05:45.102 : 8=FIX.4.2|9=270|35=8|34=117|49=QBSIM_CME|52=20170803-22:05:45.100|56=TEOUTBOUND|57=QB-CH5|1=TEST|6=0|11=B2_CH1OU4QPL8|14=0|17=exe_9|20=0|31=0|32=0|37=SN00000054__simgway|38=1|39=6|40=2|41=B2_CH1OU4QPF4|44=12743|54=1|55=GCZ7|60=20170803-22:05:45.099|113=Y|150=6|151=1|167=FUT|200=201712|10=251|
20170803-22:05:45.102 : 8=FIX.4.2|9=271|35=8|34=118|49=QBSIM_CME|52=20170803-22:05:45.100|56=TEOUTBOUND|57=QB-CH5|1=TEST|6=0|11=B2_CH1OU4QPL8|14=0|17=exe_10|20=0|31=0|32=0|37=SN00000054__simgway|38=1|39=4|40=2|41=B2_CH1OU4QPF4|44=12743|54=1|55=GCZ7|60=20170803-22:05:45.099|113=Y|150=4|151=0|167=FUT|200=201712|10=032|
20170803-22:05:45.142 : 8=FIX.4.2|9=253|35=8|34=119|49=QBSIM_CME|52=20170803-22:05:45.100|56=TEOUTBOUND|57=QB-CH5|1=TEST|6=0|11=B2_CH1OU4QPL9|14=0|17=exe_2|20=0|31=0|32=0|37=SN00000154__simgway|38=1|39=0|40=2|44=12745|54=1|55=GCZ7|60=20170803-22:05:45.099|113=Y|150=0|151=1|167=FUT|200=201712|10=202|
20170803-22:05:45.280 : 8=FIX.4.2|9=244|35=D|34=116|49=TEOUTBOUND|50=QB-CH5|52=20170803-22:05:45.280|56=QBSIM_CME|57=G|142=US,NY|1=TEST|11=B_CH1OU4QPL3E|21=1|38=5|40=2|44=108.1953125|54=2|55=ZTU7|59=0|60=20170803-22:05:45|100=CME|107=ZTU7|167=FUT|204=0|1028=N|9702=4|12000=TEOUTBOUND|10=220|
20170803-22:05:45.281 : 8=FIX.4.2|9=259|35=8|34=120|49=QBSIM_CME|52=20170803-22:05:45.278|56=TEOUTBOUND|57=QB-CH5|1=TEST|6=0|11=B_CH1OU4QPL3E|14=0|17=exe_2|20=0|31=0|32=0|37=SN00000155__simgway|38=5|39=0|40=2|44=108.1953125|54=2|55=ZTU7|60=20170803-22:05:45.278|113=Y|150=0|151=5|167=FUT|200=201709|10=065|
20170803-22:05:45.451 : 8=FIX.4.2|9=244|35=D|34=117|49=TEOUTBOUND|50=QB-CH5|52=20170803-22:05:45.451|56=QBSIM_CME|57=G|142=US,NY|1=TEST|11=S_CH1OU4QPL19|21=1|38=1|40=2|44=108.1953125|54=2|55=ZTU7|59=0|60=20170803-22:05:45|100=CME|107=ZTU7|167=FUT|204=0|1028=N|9702=4|12000=TEOUTBOUND|10=220|
20170803-22:05:45.452 : 8=FIX.4.2|9=259|35=8|34=121|49=QBSIM_CME|52=20170803-22:05:45.450|56=TEOUTBOUND|57=QB-CH5|1=TEST|6=0|11=S_CH1OU4QPL19|14=0|17=exe_2|20=0|31=0|32=0|37=SN00000159__simgway|38=1|39=0|40=2|44=108.1953125|54=2|55=ZTU7|60=20170803-22:05:45.449|113=Y|150=0|151=1|167=FUT|200=201709|10=057|
20170803-22:05:45.452 : 8=FIX.4.2|9=243|35=D|34=118|49=TEOUTBOUND|50=QB-CH5|52=20170803-22:05:45.452|56=QBSIM_CME|57=G|142=US,NY|1=TEST|11=S_CH1OU4QPL1A|21=1|38=2|40=2|44=108.203125|54=2|55=ZTU7|59=0|60=20170803-22:05:45|100=CME|107=ZTU7|167=FUT|204=0|1028=N|9702=4|12000=TEOUTBOUND|10=169|
20170803-22:05:45.453 : 8=FIX.4.2|9=258|35=8|34=122|49=QBSIM_CME|52=20170803-22:05:45.450|56=TEOUTBOUND|57=QB-CH5|1=TEST|6=0|11=S_CH1OU4QPL1A|14=0|17=exe_2|20=0|31=0|32=0|37=SN00000160__simgway|38=2|39=0|40=2|44=108.203125|54=2|55=ZTU7|60=20170803-22:05:45.450|113=Y|150=0|151=2|167=FUT|200=201709|10=246|
20170803-22:05:47.974 : 8=FIX.4.2|9=238|35=D|34=119|49=TEOUTBOUND|50=QB-CH5|52=20170803-22:05:47.974|56=QBSIM_CME|57=G|142=US,NY|1=TEST|11=B_CH1OU4QPN3H|21=1|38=1|40=2|44=55610|54=1|55=6MU7|59=0|60=20170803-22:05:47|100=CME|107=6MU7|167=FUT|204=0|1028=N|9702=4|12000=TEOUTBOUND|10=106|
20170803-22:05:47.975 : 8=FIX.4.2|9=253|35=8|34=123|49=QBSIM_CME|52=20170803-22:05:47.973|56=TEOUTBOUND|57=QB-CH5|1=TEST|6=0|11=B_CH1OU4QPN3H|14=0|17=exe_2|20=0|31=0|32=0|37=SN00000163__simgway|38=1|39=0|40=2|44=55610|54=1|55=6MU7|60=20170803-22:05:47.972|113=Y|150=0|151=1|167=FUT|200=201709|10=229|
20170803-22:05:47.975 : 8=FIX.4.2|9=261|35=8|34=124|49=QBSIM_CME|52=20170803-22:05:47.973|56=TEOUTBOUND|57=QB-CH5|1=TEST|6=55610|11=B_CH1OU4QPN3H|14=1|17=exe_5|20=0|31=55610|32=1|37=SN00000163__simgway|38=1|39=2|40=2|44=55610|54=1|55=6MU7|60=20170803-22:05:47.972|113=Y|150=2|151=0|167=FUT|200=201709|10=143|
20170803-22:05:47.976 : 8=FIX.4.2|9=290|35=F|34=120|49=TEOUTBOUND|50=QB-CH5|52=20170803-22:05:47.976|56=QBSIM_CME|57=G|142=US,NY|1=TEST|11=B_CH1OU4QPN3J|37=SN00000020__simgway|38=1|40=2|41=B_CH1OU4QPDI|44=55590|54=1|55=6MU7|59=0|60=20170803-22:05:47|100=CME|107=6MU7|167=FUT|204=0|1028=N|9702=4|9717=B_CH1OU4QPDI|12000=TEOUTBOUND|10=164|
20170803-22:05:47.977 : 8=FIX.4.2|9=269|35=8|34=125|49=QBSIM_CME|52=20170803-22:05:47.975|56=TEOUTBOUND|57=QB-CH5|1=TEST|6=0|11=B_CH1OU4QPN3J|14=0|17=exe_9|20=0|31=0|32=0|37=SN00000020__simgway|38=1|39=6|40=2|41=B_CH1OU4QPDI|44=55590|54=1|55=6MU7|60=20170803-22:05:47.974|113=Y|150=6|151=1|167=FUT|200=201709|10=012|
20170803-22:05:48.016 : 8=FIX.4.2|9=270|35=8|34=126|49=QBSIM_CME|52=20170803-22:05:47.975|56=TEOUTBOUND|57=QB-CH5|1=TEST|6=0|11=B_CH1OU4QPN3J|14=0|17=exe_10|20=0|31=0|32=0|37=SN00000020__simgway|38=1|39=4|40=2|41=B_CH1OU4QPDI|44=55590|54=1|55=6MU7|60=20170803-22:05:47.974|113=Y|150=4|151=0|167=FUT|200=201709|10=040|
20170803-22:05:48.281 : 8=FIX.4.2|9=291|35=F|34=121|49=TEOUTBOUND|50=QB-CH5|52=20170803-22:05:48.281|56=QBSIM_CME|57=G|142=US,NY|1=TEST|11=B_CH1OU4QPO3K|37=SN00000062__simgway|38=1|40=2|41=B_CH1OU4QPG1B|44=4891|54=1|55=CLU7|59=0|60=20170803-22:05:48|100=CME|107=CLU7|167=FUT|204=0|1028=N|9702=4|9717=B_CH1OU4QPG1B|12000=TEOUTBOUND|10=229|
20170803-22:05:48.281 : 8=FIX.4.2|9=269|35=8|34=127|49=QBSIM_CME|52=20170803-22:05:48.279|56=TEOUTBOUND|57=QB-CH5|1=TEST|6=0|11=B_CH1OU4QPO3K|14=0|17=exe_9|20=0|31=0|32=0|37=SN00000062__simgway|38=1|39=6|40=2|41=B_CH1OU4QPG1B|44=4891|54=1|55=CLU7|60=20170803-22:05:48.278|113=Y|150=6|151=1|167=FUT|200=201709|10=025|
20170803-22:05:48.281 : 8=FIX.4.2|9=270|35=8|34=128|49=QBSIM_CME|52=20170803-22:05:48.279|56=TEOUTBOUND|57=QB-CH5|1=TEST|6=0|11=B_CH1OU4QPO3K|14=0|17=exe_10|20=0|31=0|32=0|37=SN00000062__simgway|38=1|39=4|40=2|41=B_CH1OU4QPG1B|44=4891|54=1|55=CLU7|60=20170803-22:05:48.278|113=Y|150=4|151=0|167=FUT|200=201709|10=053|
20170803-22:05:48.388 : 8=FIX.4.2|9=290|35=F|34=122|49=TEOUTBOUND|50=QB-CH5|52=20170803-22:05:48.388|56=QBSIM_CME|57=G|142=US,NY|1=TEST|11=B_CH1OU4QPO3L|37=SN00000026__simgway|38=1|40=2|41=B_CH1OU4QPEN|44=10353|54=1|55=6SU7|59=0|60=20170803-22:05:48|100=CME|107=6SU7|167=FUT|204=0|1028=N|9702=4|9717=B_CH1OU4QPEN|12000=TEOUTBOUND|10=186|
20170803-22:05:48.388 : 8=FIX.4.2|9=269|35=8|34=129|49=QBSIM_CME|52=20170803-22:05:48.386|56=TEOUTBOUND|57=QB-CH5|1=TEST|6=0|11=B_CH1OU4QPO3L|14=0|17=exe_9|20=0|31=0|32=0|37=SN00000026__simgway|38=1|39=6|40=2|41=B_CH1OU4QPEN|44=10353|54=1|55=6SU7|60=20170803-22:05:48.385|113=Y|150=6|151=1|167=FUT|200=201709|10=019|
20170803-22:05:48.389 : 8=FIX.4.2|9=270|35=8|34=130|49=QBSIM_CME|52=20170803-22:05:48.386|56=TEOUTBOUND|57=QB-CH5|1=TEST|6=0|11=B_CH1OU4QPO3L|14=0|17=exe_10|20=0|31=0|32=0|37=SN00000026__simgway|38=1|39=4|40=2|41=B_CH1OU4QPEN|44=10353|54=1|55=6SU7|60=20170803-22:05:48.385|113=Y|150=4|151=0|167=FUT|200=201709|10=038|
20170803-22:05:48.504 : 8=FIX.4.2|9=258|35=8|34=131|49=QBSIM_CME|52=20170803-22:05:48.501|56=TEOUTBOUND|57=QB-CH5|1=TEST|6=9663|11=B_CH1OU4QPI28|14=1|17=exe_5|20=0|31=9663|32=1|37=SN00000101__simgway|38=1|39=2|40=2|44=9663|54=1|55=PLV7|60=20170803-22:05:48.501|113=Y|150=2|151=0|167=FUT|200=201710|10=245|
20170803-22:05:48.504 : 8=FIX.4.2|9=291|35=F|34=123|49=TEOUTBOUND|50=QB-CH5|52=20170803-22:05:48.504|56=QBSIM_CME|57=G|142=US,NY|1=TEST|11=B_CH1OU4QPO3M|37=SN00000101__simgway|38=1|40=2|41=B_CH1OU4QPI28|44=9663|54=1|55=PLV7|59=0|60=20170803-22:05:48|100=CME|107=PLV7|167=FUT|204=0|1028=N|9702=4|9717=B_CH1OU4QPI28|12000=TEOUTBOUND|10=241|
20170803-22:05:48.505 : 8=FIX.4.2|9=269|35=8|34=132|49=QBSIM_CME|52=20170803-22:05:48.503|56=TEOUTBOUND|57=QB-CH5|1=TEST|6=0|11=B_CH1OU4QPO3M|14=0|17=exe_9|20=0|31=0|32=0|37=SN00000101__simgway|38=1|39=6|40=2|41=B_CH1OU4QPI28|44=9663|54=1|55=PLV7|60=20170803-22:05:48.502|113=Y|150=6|151=1|167=FUT|200=201710|10=254|
20170803-22:05:48.545 : 8=FIX.4.2|9=199|35=9|34=133|49=QBSIM_CME|52=20170803-22:05:48.503|56=TEOUTBOUND|57=QB-CH5|1=TEST|11=B_CH1OU4QPO3M|37=SN00000101__simgway|39=8|41=B_CH1OU4QPI28|58=Order not found|60=20170803-22:05:48.502|102=2|434=2|10=035|
20170803-22:05:48.592 : 8=FIX.4.2|9=232|35=D|34=124|49=TEOUTBOUND|50=QB-CH5|52=20170803-22:05:48.592|56=QBSIM_CME|57=G|142=US,NY|1=TEST|11=B_CH1OU4QPO3O|21=1|38=1|40=2|44=99.75|54=2|55=B1UU7|59=0|60=20170803-22:05:48|107=B1UU7|167=FUT|204=0|1028=N|9702=4|12000=TEOUTBOUND|10=088|
20170803-22:05:48.593 : 8=FIX.4.2|9=230|35=D|34=125|49=TEOUTBOUND|50=QB-CH5|52=20170803-22:05:48.593|56=QBSIM_CME|57=G|142=US,NY|1=TEST|11=B_CH1OU4QPO3P|21=1|38=1|40=2|44=110|54=2|55=B1UU7|59=0|60=20170803-22:05:48|107=B1UU7|167=FUT|204=0|1028=N|9702=4|12000=TEOUTBOUND|10=223|
20170803-22:05:48.593 : 8=FIX.4.2|9=235|35=8|34=134|49=QBSIM_CME|52=20170803-22:05:48.590|56=TEOUTBOUND|57=QB-CH5|6=0|11=B_CH1OU4QPO3O|14=0|17=RJ00000173|20=0|31=0|32=0|37=RJ00000173|38=1|39=8|54=2|55=B1UU7|58=QB: Field not found, field: 100|60=20170803-22:05:48|150=8|151=1|10=067|
20170803-22:05:48.593 : 8=FIX.4.2|9=235|35=8|34=135|49=QBSIM_CME|52=20170803-22:05:48.591|56=TEOUTBOUND|57=QB-CH5|6=0|11=B_CH1OU4QPO3P|14=0|17=RJ00000175|20=0|31=0|32=0|37=RJ00000175|38=1|39=8|54=2|55=B1UU7|58=QB: Field not found, field: 100|60=20170803-22:05:48|150=8|151=1|10=074|
20170803-22:05:48.612 : 8=FIX.4.2|9=292|35=F|34=126|49=TEOUTBOUND|50=QB-CH5|52=20170803-22:05:48.612|56=QBSIM_CME|57=G|142=US,NY|1=TEST|11=B_CH1OU4QPO3Q|37=SN00000135__simgway|38=1|40=2|41=B_CH1OU4QPJ33|44=21974|54=2|55=YMU7|59=0|60=20170803-22:05:48|100=CME|107=YMU7|167=FUT|204=0|1028=N|9702=4|9717=B_CH1OU4QPJ33|12000=TEOUTBOUND|10=060|
20170803-22:05:48.612 : 8=FIX.4.2|9=270|35=8|34=136|49=QBSIM_CME|52=20170803-22:05:48.610|56=TEOUTBOUND|57=QB-CH5|1=TEST|6=0|11=B_CH1OU4QPO3Q|14=0|17=exe_9|20=0|31=0|32=0|37=SN00000135__simgway|38=1|39=6|40=2|41=B_CH1OU4QPJ33|44=21974|54=2|55=YMU7|60=20170803-22:05:48.610|113=Y|150=6|151=1|167=FUT|200=201709|10=066|
20170803-22:05:48.614 : 8=FIX.4.2|9=238|35=D|34=127|49=TEOUTBOUND|50=QB-CH5|52=20170803-22:05:48.614|56=QBSIM_CME|57=G|142=US,NY|1=TEST|11=B_CH1OU4QPO3R|21=1|38=1|40=2|44=21972|54=2|55=YMU7|59=0|60=20170803-22:05:48|100=CME|107=YMU7|167=FUT|204=0|1028=N|9702=4|12000=TEOUTBOUND|10=184|
20170803-22:05:48.614 : 8=FIX.4.2|9=271|35=8|34=137|49=QBSIM_CME|52=20170803-22:05:48.610|56=TEOUTBOUND|57=QB-CH5|1=TEST|6=0|11=B_CH1OU4QPO3Q|14=0|17=exe_10|20=0|31=0|32=0|37=SN00000135__simgway|38=1|39=4|40=2|41=B_CH1OU4QPJ33|44=21974|54=2|55=YMU7|60=20170803-22:05:48.610|113=Y|150=4|151=0|167=FUT|200=201709|10=103|
20170803-22:05:48.614 : 8=FIX.4.2|9=293|35=F|34=128|49=TEOUTBOUND|50=QB-CH5|52=20170803-22:05:48.614|56=QBSIM_CME|57=G|142=US,NY|1=TEST|11=B_CH1OU4QPO3S|37=SN00000087__simgway|38=1|40=2|41=B_CH1OU4QPI1Y|44=588950|54=1|55=NQU7|59=0|60=20170803-22:05:48|100=CME|107=NQU7|167=FUT|204=0|1028=N|9702=4|9717=B_CH1OU4QPI1Y|12000=TEOUTBOUND|10=188|
20170803-22:05:48.614 : 8=FIX.4.2|9=239|35=D|34=129|49=TEOUTBOUND|50=QB-CH5|52=20170803-22:05:48.614|56=QBSIM_CME|57=G|142=US,NY|1=TEST|11=B_CH1OU4QPO3T|21=1|38=1|40=2|44=588900|54=1|55=NQU7|59=0|60=20170803-22:05:48|100=CME|107=NQU7|167=FUT|204=0|1028=N|9702=4|12000=TEOUTBOUND|10=231|
20170803-22:05:48.614 : 8=FIX.4.2|9=239|35=D|34=130|49=TEOUTBOUND|50=QB-CH5|52=20170803-22:05:48.614|56=QBSIM_CME|57=G|142=US,NY|1=TEST|11=B_CH1OU4QPO3U|21=1|38=1|40=2|44=588950|54=1|55=NQU7|59=0|60=20170803-22:05:48|100=CME|107=NQU7|167=FUT|204=0|1028=N|9702=4|12000=TEOUTBOUND|10=229|
20170803-22:05:48.615 : 8=FIX.4.2|9=239|35=D|34=131|49=TEOUTBOUND|50=QB-CH5|52=20170803-22:05:48.614|56=QBSIM_CME|57=G|142=US,NY|1=TEST|11=B_CH1OU4QPO3V|21=1|38=1|40=2|44=588875|54=1|55=NQU7|59=0|60=20170803-22:05:48|100=CME|107=NQU7|167=FUT|204=0|1028=N|9702=4|12000=TEOUTBOUND|10=237|
20170803-22:05:48.615 : 8=FIX.4.2|9=264|35=8|34=138|49=QBSIM_CME|52=20170803-22:05:48.610|56=TEOUTBOUND|57=QB-CH5|1=TEST|6=588950|11=B_CH1OU4QPI1Y|14=1|17=exe_5|20=0|31=588950|32=1|37=SN00000087__simgway|38=1|39=2|40=2|44=588950|54=1|55=NQU7|60=20170803-22:05:48.610|113=Y|150=2|151=0|167=FUT|200=201709|10=115|
20170803-22:05:48.616 : 8=FIX.4.2|9=271|35=8|34=139|49=QBSIM_CME|52=20170803-22:05:48.613|56=TEOUTBOUND|57=QB-CH5|1=TEST|6=0|11=B_CH1OU4QPO3S|14=0|17=exe_9|20=0|31=0|32=0|37=SN00000087__simgway|38=1|39=6|40=2|41=B_CH1OU4QPI1Y|44=588950|54=1|55=NQU7|60=20170803-22:05:48.612|113=Y|150=6|151=1|167=FUT|200=201709|10=170|
20170803-22:05:48.617 : 8=FIX.4.2|9=199|35=9|34=140|49=QBSIM_CME|52=20170803-22:05:48.613|56=TEOUTBOUND|57=QB-CH5|1=TEST|11=B_CH1OU4QPO3S|37=SN00000087__simgway|39=8|41=B_CH1OU4QPI1Y|58=Order not found|60=20170803-22:05:48.612|102=2|434=2|10=088|
20170803-22:05:48.655 : 8=FIX.4.2|9=253|35=8|34=141|49=QBSIM_CME|52=20170803-22:05:48.613|56=TEOUTBOUND|57=QB-CH5|1=TEST|6=0|11=B_CH1OU4QPO3R|14=0|17=exe_2|20=0|31=0|32=0|37=SN00000181__simgway|38=1|39=0|40=2|44=21972|54=2|55=YMU7|60=20170803-22:05:48.612|113=Y|150=0|151=1|167=FUT|200=201709|10=008|
20170803-22:05:48.655 : 8=FIX.4.2|9=254|35=8|34=142|49=QBSIM_CME|52=20170803-22:05:48.614|56=TEOUTBOUND|57=QB-CH5|1=TEST|6=0|11=B_CH1OU4QPO3T|14=0|17=exe_2|20=0|31=0|32=0|37=SN00000183__simgway|38=1|39=0|40=2|44=588900|54=1|55=NQU7|60=20170803-22:05:48.613|113=Y|150=0|151=1|167=FUT|200=201709|10=065|
20170803-22:05:48.655 : 8=FIX.4.2|9=254|35=8|34=143|49=QBSIM_CME|52=20170803-22:05:48.614|56=TEOUTBOUND|57=QB-CH5|1=TEST|6=0|11=B_CH1OU4QPO3U|14=0|17=exe_2|20=0|31=0|32=0|37=SN00000184__simgway|38=1|39=0|40=2|44=588950|54=1|55=NQU7|60=20170803-22:05:48.613|113=Y|150=0|151=1|167=FUT|200=201709|10=073|
20170803-22:05:48.655 : 8=FIX.4.2|9=264|35=8|34=144|49=QBSIM_CME|52=20170803-22:05:48.614|56=TEOUTBOUND|57=QB-CH5|1=TEST|6=588950|11=B_CH1OU4QPO3U|14=1|17=exe_5|20=0|31=588950|32=1|37=SN00000184__simgway|38=1|39=2|40=2|44=588950|54=1|55=NQU7|60=20170803-22:05:48.613|113=Y|150=2|151=0|167=FUT|200=201709|10=121|
20170803-22:05:48.656 : 8=FIX.4.2|9=254|35=8|34=145|49=QBSIM_CME|52=20170803-22:05:48.614|56=TEOUTBOUND|57=QB-CH5|1=TEST|6=0|11=B_CH1OU4QPO3V|14=0|17=exe_2|20=0|31=0|32=0|37=SN00000185__simgway|38=1|39=0|40=2|44=588875|54=1|55=NQU7|60=20170803-22:05:48.613|113=Y|150=0|151=1|167=FUT|200=201709|10=083|
20170803-22:05:48.758 : 8=FIX.4.2|9=293|35=F|34=132|49=TEOUTBOUND|50=QB-CH5|52=20170803-22:05:48.758|56=QBSIM_CME|57=G|142=US,NY|1=TEST|11=B_CH1OU4QPO3Y|37=SN00000185__simgway|38=1|40=2|41=B_CH1OU4QPO3V|44=588875|54=1|55=NQU7|59=0|60=20170803-22:05:48|100=CME|107=NQU7|167=FUT|204=0|1028=N|9702=4|9717=B_CH1OU4QPO3V|12000=TEOUTBOUND|10=213|
20170803-22:05:48.759 : 8=FIX.4.2|9=271|35=8|34=146|49=QBSIM_CME|52=20170803-22:05:48.757|56=TEOUTBOUND|57=QB-CH5|1=TEST|6=0|11=B_CH1OU4QPO3Y|14=0|17=exe_9|20=0|31=0|32=0|37=SN00000185__simgway|38=1|39=6|40=2|41=B_CH1OU4QPO3V|44=588875|54=1|55=NQU7|60=20170803-22:05:48.756|113=Y|150=6|151=1|167=FUT|200=201709|10=202|
20170803-22:05:48.759 : 8=FIX.4.2|9=272|35=8|34=147|49=QBSIM_CME|52=20170803-22:05:48.757|56=TEOUTBOUND|57=QB-CH5|1=TEST|6=0|11=B_CH1OU4QPO3Y|14=0|17=exe_10|20=0|31=0|32=0|37=SN00000185__simgway|38=1|39=4|40=2|41=B_CH1OU4QPO3V|44=588875|54=1|55=NQU7|60=20170803-22:05:48.756|113=Y|150=4|151=0|167=FUT|200=201709|10=239|
20170803-22:05:48.915 : 8=FIX.4.2|9=293|35=F|34=133|49=TEOUTBOUND|50=QB-CH5|52=20170803-22:05:48.914|56=QBSIM_CME|57=G|142=US,NY|1=TEST|11=B_CH1OU4QPO3Z|37=SN00000042__simgway|38=1|40=2|41=B_CH1OU4QPEY|44=174730|54=2|55=EMDU7|59=0|60=20170803-22:05:48|100=CME|107=EMDU7|167=FUT|204=0|1028=N|9702=4|9717=B_CH1OU4QPEY|12000=TEOUTBOUND|10=177|
20170803-22:05:48.915 : 8=FIX.4.2|9=271|35=8|34=148|49=QBSIM_CME|52=20170803-22:05:48.913|56=TEOUTBOUND|57=QB-CH5|1=TEST|6=0|11=B_CH1OU4QPO3Z|14=0|17=exe_9|20=0|31=0|32=0|37=SN00000042__simgway|38=1|39=6|40=2|41=B_CH1OU4QPEY|44=174730|54=2|55=EMDU7|60=20170803-22:05:48.912|113=Y|150=6|151=1|167=FUT|200=201709|10=164|
20170803-22:05:48.915 : 8=FIX.4.2|9=272|35=8|34=149|49=QBSIM_CME|52=20170803-22:05:48.913|56=TEOUTBOUND|57=QB-CH5|1=TEST|6=0|11=B_CH1OU4QPO3Z|14=0|17=exe_10|20=0|31=0|32=0|37=SN00000042__simgway|38=1|39=4|40=2|41=B_CH1OU4QPEY|44=174730|54=2|55=EMDU7|60=20170803-22:05:48.912|113=Y|150=4|151=0|167=FUT|200=201709|10=201|
20170803-22:05:50.896 : 8=FIX.4.2|9=271|35=8|34=150|49=QBSIM_CME|52=20170803-22:05:50.894|56=TEOUTBOUND|57=QB-CH5|1=TEST|6=0|11=B_CH1OU4QPO3R|14=0|17=exe_12|20=0|31=0|32=0|37=SN00000181__simgway|38=1|39=4|40=2|41=B_CH1OU4QPO3R|44=21972|54=2|55=YMU7|60=20170803-22:05:50.893|113=Y|150=4|151=0|167=FUT|200=201709|10=149|
20170803-22:05:50.897 : 8=FIX.4.2|9=292|35=F|34=134|49=TEOUTBOUND|50=QB-CH5|52=20170803-22:05:50.897|56=QBSIM_CME|57=G|142=US,NY|1=TEST|11=B_CH1OU4QPQ40|37=SN00000181__simgway|38=1|40=2|41=B_CH1OU4QPO3R|44=21972|54=2|55=YMU7|59=0|60=20170803-22:05:50|100=CME|107=YMU7|167=FUT|204=0|1028=N|9702=4|9717=B_CH1OU4QPO3R|12000=TEOUTBOUND|10=101|
20170803-22:05:50.897 : 8=FIX.4.2|9=238|35=D|34=135|49=TEOUTBOUND|50=QB-CH5|52=20170803-22:05:50.897|56=QBSIM_CME|57=G|142=US,NY|1=TEST|11=B_CH1OU4QPQ41|21=1|38=1|40=2|44=21974|54=2|55=YMU7|59=0|60=20170803-22:05:50|100=CME|107=YMU7|167=FUT|204=0|1028=N|9702=4|12000=TEOUTBOUND|10=154|
20170803-22:05:50.898 : 8=FIX.4.2|9=270|35=8|34=151|49=QBSIM_CME|52=20170803-22:05:50.896|56=TEOUTBOUND|57=QB-CH5|1=TEST|6=0|11=B_CH1OU4QPQ40|14=0|17=exe_9|20=0|31=0|32=0|37=SN00000181__simgway|38=1|39=6|40=2|41=B_CH1OU4QPO3R|44=21972|54=2|55=YMU7|60=20170803-22:05:50.895|113=Y|150=6|151=1|167=FUT|200=201709|10=085|
20170803-22:05:50.898 : 8=FIX.4.2|9=199|35=9|34=152|49=QBSIM_CME|52=20170803-22:05:50.896|56=TEOUTBOUND|57=QB-CH5|1=TEST|11=B_CH1OU4QPQ40|37=SN00000181__simgway|39=8|41=B_CH1OU4QPO3R|58=Order not found|60=20170803-22:05:50.895|102=2|434=2|10=067|
20170803-22:05:50.938 : 8=FIX.4.2|9=253|35=8|34=153|49=QBSIM_CME|52=20170803-22:05:50.897|56=TEOUTBOUND|57=QB-CH5|1=TEST|6=0|11=B_CH1OU4QPQ41|14=0|17=exe_2|20=0|31=0|32=0|37=SN00000192__simgway|38=1|39=0|40=2|44=21974|54=2|55=YMU7|60=20170803-22:05:50.896|113=Y|150=0|151=1|167=FUT|200=201709|10=255|
20170803-22:05:51.087 : 8=FIX.4.2|9=261|35=8|34=154|49=QBSIM_CME|52=20170803-22:05:51.084|56=TEOUTBOUND|57=QB-CH5|1=TEST|6=21973|11=B_CH1OU4QPJ32|14=1|17=exe_5|20=0|31=21973|32=1|37=SN00000134__simgway|38=1|39=2|40=2|44=21973|54=2|55=YMU7|60=20170803-22:05:51.083|113=Y|150=2|151=0|167=FUT|200=201709|10=145|
20170803-22:05:51.087 : 8=FIX.4.2|9=293|35=F|34=136|49=TEOUTBOUND|50=QB-CH5|52=20170803-22:05:51.087|56=QBSIM_CME|57=G|142=US,NY|1=TEST|11=B_CH1OU4QPR42|37=SN00000183__simgway|38=1|40=2|41=B_CH1OU4QPO3T|44=588900|54=1|55=NQU7|59=0|60=20170803-22:05:51|100=CME|107=NQU7|167=FUT|204=0|1028=N|9702=4|9717=B_CH1OU4QPO3T|12000=TEOUTBOUND|10=148|
20170803-22:05:51.087 : 8=FIX.4.2|9=239|35=D|34=137|49=TEOUTBOUND|50=QB-CH5|52=20170803-22:05:51.087|56=QBSIM_CME|57=G|142=US,NY|1=TEST|11=B_CH1OU4QPR43|21=1|38=1|40=2|44=588950|54=1|55=NQU7|59=0|60=20170803-22:05:51|100=CME|107=NQU7|167=FUT|204=0|1028=N|9702=4|12000=TEOUTBOUND|10=198|
20170803-22:05:51.087 : 8=FIX.4.2|9=292|35=F|34=138|49=TEOUTBOUND|50=QB-CH5|52=20170803-22:05:51.087|56=QBSIM_CME|57=G|142=US,NY|1=TEST|11=B_CH1OU4QPR44|37=SN00000134__simgway|38=1|40=2|41=B_CH1OU4QPJ32|44=21973|54=2|55=YMU7|59=0|60=20170803-22:05:51|100=CME|107=YMU7|167=FUT|204=0|1028=N|9702=4|9717=B_CH1OU4QPJ32|12000=TEOUTBOUND|10=028|
20170803-22:05:51.088 : 8=FIX.4.2|9=238|35=D|34=139|49=TEOUTBOUND|50=QB-CH5|52=20170803-22:05:51.087|56=QBSIM_CME|57=G|142=US,NY|1=TEST|11=B_CH1OU4QPR45|21=1|38=1|40=2|44=21975|54=2|55=YMU7|59=0|60=20170803-22:05:51|100=CME|107=YMU7|167=FUT|204=0|1028=N|9702=4|12000=TEOUTBOUND|10=157|
20170803-22:05:51.088 : 8=FIX.4.2|9=271|35=8|34=155|49=QBSIM_CME|52=20170803-22:05:51.085|56=TEOUTBOUND|57=QB-CH5|1=TEST|6=0|11=B_CH1OU4QPR42|14=0|17=exe_9|20=0|31=0|32=0|37=SN00000183__simgway|38=1|39=6|40=2|41=B_CH1OU4QPO3T|44=588900|54=1|55=NQU7|60=20170803-22:05:51.084|113=Y|150=6|151=1|167=FUT|200=201709|10=128|
20170803-22:05:51.089 : 8=FIX.4.2|9=272|35=8|34=156|49=QBSIM_CME|52=20170803-22:05:51.086|56=TEOUTBOUND|57=QB-CH5|1=TEST|6=0|11=B_CH1OU4QPR42|14=0|17=exe_10|20=0|31=0|32=0|37=SN00000183__simgway|38=1|39=4|40=2|41=B_CH1OU4QPO3T|44=588900|54=1|55=NQU7|60=20170803-22:05:51.084|113=Y|150=4|151=0|167=FUT|200=201709|10=166|
20170803-22:05:51.089 : 8=FIX.4.2|9=270|35=8|34=157|49=QBSIM_CME|52=20170803-22:05:51.087|56=TEOUTBOUND|57=QB-CH5|1=TEST|6=0|11=B_CH1OU4QPR44|14=0|17=exe_9|20=0|31=0|32=0|37=SN00000134__simgway|38=1|39=6|40=2|41=B_CH1OU4QPJ32|44=21973|54=2|55=YMU7|60=20170803-22:05:51.086|113=Y|150=6|151=1|167=FUT|200=201709|10=044|
20170803-22:05:51.129 : 8=FIX.4.2|9=199|35=9|34=158|49=QBSIM_CME|52=20170803-22:05:51.087|56=TEOUTBOUND|57=QB-CH5|1=TEST|11=B_CH1OU4QPR44|37=SN00000134__simgway|39=8|41=B_CH1OU4QPJ32|58=Order not found|60=20170803-22:05:51.086|102=2|434=2|10=025|
20170803-22:05:51.129 : 8=FIX.4.2|9=254|35=8|34=159|49=QBSIM_CME|52=20170803-22:05:51.087|56=TEOUTBOUND|57=QB-CH5|1=TEST|6=0|11=B_CH1OU4QPR43|14=0|17=exe_2|20=0|31=0|32=0|37=SN00000196__simgway|38=1|39=0|40=2|44=588950|54=1|55=NQU7|60=20170803-22:05:51.086|113=Y|150=0|151=1|167=FUT|200=201709|10=049|
20170803-22:05:51.129 : 8=FIX.4.2|9=253|35=8|34=160|49=QBSIM_CME|52=20170803-22:05:51.087|56=TEOUTBOUND|57=QB-CH5|1=TEST|6=0|11=B_CH1OU4QPR45|14=0|17=exe_2|20=0|31=0|32=0|37=SN00000198__simgway|38=1|39=0|40=2|44=21975|54=2|55=YMU7|60=20170803-22:05:51.086|113=Y|150=0|151=1|167=FUT|200=201709|10=249|
20170803-22:05:51.142 : 8=FIX.4.2|9=264|35=8|34=161|49=QBSIM_CME|52=20170803-22:05:51.140|56=TEOUTBOUND|57=QB-CH5|1=TEST|6=588950|11=B_CH1OU4QPR43|14=1|17=exe_5|20=0|31=588950|32=1|37=SN00000196__simgway|38=1|39=2|40=2|44=588950|54=1|55=NQU7|60=20170803-22:05:51.139|113=Y|150=2|151=0|167=FUT|200=201709|10=078|
20170803-22:05:51.143 : 8=FIX.4.2|9=264|35=8|34=162|49=QBSIM_CME|52=20170803-22:05:51.140|56=TEOUTBOUND|57=QB-CH5|1=TEST|6=588925|11=B_CH1OU4QPI1Z|14=1|17=exe_5|20=0|31=588925|32=1|37=SN00000089__simgway|38=1|39=2|40=2|44=588925|54=1|55=NQU7|60=20170803-22:05:51.139|113=Y|150=2|151=0|167=FUT|200=201709|10=113|
20170803-22:05:51.144 : 8=FIX.4.2|9=239|35=D|34=140|49=TEOUTBOUND|50=QB-CH5|52=20170803-22:05:51.144|56=QBSIM_CME|57=G|142=US,NY|1=TEST|11=B_CH1OU4QPR49|21=1|38=1|40=2|44=588875|54=1|55=NQU7|59=0|60=20170803-22:05:51|100=CME|107=NQU7|167=FUT|204=0|1028=N|9702=4|12000=TEOUTBOUND|10=198|
20170803-22:05:51.145 : 8=FIX.4.2|9=254|35=8|34=163|49=QBSIM_CME|52=20170803-22:05:51.142|56=TEOUTBOUND|57=QB-CH5|1=TEST|6=0|11=B_CH1OU4QPR49|14=0|17=exe_2|20=0|31=0|32=0|37=SN00000199__simgway|38=1|39=0|40=2|44=588875|54=1|55=NQU7|60=20170803-22:05:51.142|113=Y|150=0|151=1|167=FUT|200=201709|10=044|
20170803-22:05:51.271 : 8=FIX.4.2|9=245|35=D|34=141|49=TEOUTBOUND|50=QB-CH5|52=20170803-22:05:51.270|56=QBSIM_CME|57=G|142=US,NY|1=TEST|11=B_CH1OU4QPR4A|21=1|38=1|40=2|44=102.140625|54=1|55=N1UU7|59=0|60=20170803-22:05:51|100=CME|107=N1UU7|167=FUT|204=0|1028=N|9702=4|12000=TEOUTBOUND|10=224|
20170803-22:05:51.271 : 8=FIX.4.2|9=237|35=D|34=142|49=TEOUTBOUND|50=QB-CH5|52=20170803-22:05:51.271|56=QBSIM_CME|57=G|142=US,NY|1=TEST|11=B_CH1OU4QPR4B|21=1|38=1|40=2|44=90|54=1|55=N1UU7|59=0|60=20170803-22:05:51|100=CME|107=N1UU7|167=FUT|204=0|1028=N|9702=4|12000=TEOUTBOUND|10=090|
20170803-22:05:51.271 : 8=FIX.4.2|9=307|35=8|34=164|49=QBSIM_CME|52=20170803-22:05:51.269|56=TEOUTBOUND|57=QB-CH5|1=TEST|6=0|11=B_CH1OU4QPR4A|14=0|17=exe_3|20=0|31=0|32=0|37=SN00000200__simgway|38=1|39=8|40=2|44=102.140625|54=1|55=N1UU7|58= New unsubscribed symbol encountered : N1UU7|60=20170803-22:05:51.268|113=Y|150=8|151=0|167=FUT|200=201709|10=143|
20170803-22:05:51.272 : 8=FIX.4.2|9=299|35=8|34=165|49=QBSIM_CME|52=20170803-22:05:51.269|56=TEOUTBOUND|57=QB-CH5|1=TEST|6=0|11=B_CH1OU4QPR4B|14=0|17=exe_3|20=0|31=0|32=0|37=SN00000201__simgway|38=1|39=8|40=2|44=90|54=1|55=N1UU7|58= New unsubscribed symbol encountered : N1UU7|60=20170803-22:05:51.269|113=Y|150=8|151=0|167=FUT|200=201709|10=019|
20170803-22:05:51.332 : 8=FIX.4.2|9=258|35=8|34=166|49=QBSIM_CME|52=20170803-22:05:51.329|56=TEOUTBOUND|57=QB-CH5|1=TEST|6=2793|11=B_CH1OU4QPH1R|14=1|17=exe_5|20=0|31=2793|32=1|37=SN00000078__simgway|38=1|39=2|40=2|44=2793|54=2|55=NGU7|60=20170803-22:05:51.329|113=Y|150=2|151=0|167=FUT|200=201709|10=030|
20170803-22:05:51.333 : 8=FIX.4.2|9=237|35=D|34=143|49=TEOUTBOUND|50=QB-CH5|52=20170803-22:05:51.333|56=QBSIM_CME|57=G|142=US,NY|1=TEST|11=B_CH1OU4QPR4D|21=1|38=1|40=2|44=2793|54=2|55=NGU7|59=0|60=20170803-22:05:51|100=CME|107=NGU7|167=FUT|204=0|1028=N|9702=4|12000=TEOUTBOUND|10=075|
20170803-22:05:51.333 : 8=FIX.4.2|9=252|35=8|34=167|49=QBSIM_CME|52=20170803-22:05:51.331|56=TEOUTBOUND|57=QB-CH5|1=TEST|6=0|11=B_CH1OU4QPR4D|14=0|17=exe_2|20=0|31=0|32=0|37=SN00000202__simgway|38=1|39=0|40=2|44=2793|54=2|55=NGU7|60=20170803-22:05:51.330|113=Y|150=0|151=1|167=FUT|200=201709|10=172|
20170803-22:05:51.373 : 8=FIX.4.2|9=258|35=8|34=168|49=QBSIM_CME|52=20170803-22:05:51.331|56=TEOUTBOUND|57=QB-CH5|1=TEST|6=2793|11=B_CH1OU4QPR4D|14=1|17=exe_5|20=0|31=2793|32=1|37=SN00000202__simgway|38=1|39=2|40=2|44=2793|54=2|55=NGU7|60=20170803-22:05:51.330|113=Y|150=2|151=0|167=FUT|200=201709|10=005|
20170803-22:05:51.374 : 8=FIX.4.2|9=237|35=D|34=144|49=TEOUTBOUND|50=QB-CH5|52=20170803-22:05:51.374|56=QBSIM_CME|57=G|142=US,NY|1=TEST|11=B_CH1OU4QPR4F|21=1|38=1|40=2|44=2795|54=2|55=NGU7|59=0|60=20170803-22:05:51|100=CME|107=NGU7|167=FUT|204=0|1028=N|9702=4|12000=TEOUTBOUND|10=085|
20170803-22:05:51.374 : 8=FIX.4.2|9=252|35=8|34=169|49=QBSIM_CME|52=20170803-22:05:51.372|56=TEOUTBOUND|57=QB-CH5|1=TEST|6=0|11=B_CH1OU4QPR4F|14=0|17=exe_2|20=0|31=0|32=0|37=SN00000205__simgway|38=1|39=0|40=2|44=2795|54=2|55=NGU7|60=20170803-22:05:51.371|113=Y|150=0|151=1|167=FUT|200=201709|10=191|
20170803-22:05:51.387 : 8=FIX.4.2|9=237|35=D|34=145|49=TEOUTBOUND|50=QB-CH5|52=20170803-22:05:51.387|56=QBSIM_CME|57=G|142=US,NY|1=TEST|11=S_CH1OU4QPR1D|21=1|38=1|40=2|44=90|54=1|55=N1UU7|59=0|60=20170803-22:05:51|100=CME|107=N1UU7|167=FUT|204=0|1028=N|9702=4|12000=TEOUTBOUND|10=117|
20170803-22:05:51.387 : 8=FIX.4.2|9=299|35=8|34=170|49=QBSIM_CME|52=20170803-22:05:51.385|56=TEOUTBOUND|57=QB-CH5|1=TEST|6=0|11=S_CH1OU4QPR1D|14=0|17=exe_3|20=0|31=0|32=0|37=SN00000206__simgway|38=1|39=8|40=2|44=90|54=1|55=N1UU7|58= New unsubscribed symbol encountered : N1UU7|60=20170803-22:05:51.384|113=Y|150=8|151=0|167=FUT|200=201709|10=033|
20170803-22:05:51.698 : 8=FIX.4.2|9=294|35=F|34=146|49=TEOUTBOUND|50=QB-CH5|52=20170803-22:05:51.698|56=QBSIM_CME|57=G|142=US,NY|1=TEST|11=B_CH1OU4QPR4G|37=SN00000083__simgway|38=1|40=2|41=B_CH1OU4QPH1U|44=19950|54=1|55=NIYU7|59=0|60=20170803-22:05:51|100=CME|107=NIYU7|167=FUT|204=0|1028=N|9702=4|9717=B_CH1OU4QPH1U|12000=TEOUTBOUND|10=014|
20170803-22:05:51.699 : 8=FIX.4.2|9=271|35=8|34=171|49=QBSIM_CME|52=20170803-22:05:51.697|56=TEOUTBOUND|57=QB-CH5|1=TEST|6=0|11=B_CH1OU4QPR4G|14=0|17=exe_9|20=0|31=0|32=0|37=SN00000083__simgway|38=1|39=6|40=2|41=B_CH1OU4QPH1U|44=19950|54=1|55=NIYU7|60=20170803-22:05:51.696|113=Y|150=6|151=1|167=FUT|200=201709|10=183|
20170803-22:05:51.699 : 8=FIX.4.2|9=272|35=8|34=172|49=QBSIM_CME|52=20170803-22:05:51.697|56=TEOUTBOUND|57=QB-CH5|1=TEST|6=0|11=B_CH1OU4QPR4G|14=0|17=exe_10|20=0|31=0|32=0|37=SN00000083__simgway|38=1|39=4|40=2|41=B_CH1OU4QPH1U|44=19950|54=1|55=NIYU7|60=20170803-22:05:51.696|113=Y|150=4|151=0|167=FUT|200=201709|10=220|
20170803-22:05:52.111 : 8=FIX.4.2|9=293|35=F|34=147|49=TEOUTBOUND|50=QB-CH5|52=20170803-22:05:52.111|56=QBSIM_CME|57=G|142=US,NY|1=TEST|11=B_CH1OU4QPS4H|37=SN00000199__simgway|38=1|40=2|41=B_CH1OU4QPR49|44=588875|54=1|55=NQU7|59=0|60=20170803-22:05:52|100=CME|107=NQU7|167=FUT|204=0|1028=N|9702=4|9717=B_CH1OU4QPR49|12000=TEOUTBOUND|10=135|
20170803-22:05:52.111 : 8=FIX.4.2|9=271|35=8|34=173|49=QBSIM_CME|52=20170803-22:05:52.109|56=TEOUTBOUND|57=QB-CH5|1=TEST|6=0|11=B_CH1OU4QPS4H|14=0|17=exe_9|20=0|31=0|32=0|37=SN00000199__simgway|38=1|39=6|40=2|41=B_CH1OU4QPR49|44=588875|54=1|55=NQU7|60=20170803-22:05:52.108|113=Y|150=6|151=1|167=FUT|200=201709|10=142|
20170803-22:05:52.112 : 8=FIX.4.2|9=272|35=8|34=174|49=QBSIM_CME|52=20170803-22:05:52.109|56=TEOUTBOUND|57=QB-CH5|1=TEST|6=0|11=B_CH1OU4QPS4H|14=0|17=exe_10|20=0|31=0|32=0|37=SN00000199__simgway|38=1|39=4|40=2|41=B_CH1OU4QPR49|44=588875|54=1|55=NQU7|60=20170803-22:05:52.108|113=Y|150=4|151=0|167=FUT|200=201709|10=179|
20170803-22:05:52.112 : 8=FIX.4.2|9=239|35=D|34=148|49=TEOUTBOUND|50=QB-CH5|52=20170803-22:05:52.112|56=QBSIM_CME|57=G|142=US,NY|1=TEST|11=B_CH1OU4QPS4I|21=1|38=1|40=2|44=588900|54=1|55=NQU7|59=0|60=20170803-22:05:52|100=CME|107=NQU7|167=FUT|204=0|1028=N|9702=4|12000=TEOUTBOUND|10=209|
20170803-22:05:52.113 : 8=FIX.4.2|9=254|35=8|34=175|49=QBSIM_CME|52=20170803-22:05:52.110|56=TEOUTBOUND|57=QB-CH5|1=TEST|6=0|11=B_CH1OU4QPS4I|14=0|17=exe_2|20=0|31=0|32=0|37=SN00000210__simgway|38=1|39=0|40=2|44=588900|54=1|55=NQU7|60=20170803-22:05:52.110|113=Y|150=0|151=1|167=FUT|200=201709|10=029|
20170803-22:05:52.316 : 8=FIX.4.2|9=292|35=F|34=149|49=TEOUTBOUND|50=QB-CH5|52=20170803-22:05:52.316|56=QBSIM_CME|57=G|142=US,NY|1=TEST|11=B_CH1OU4QPS4J|37=SN00000095__simgway|38=1|40=2|41=B_CH1OU4QPI24|44=88400|54=2|55=PAU7|59=0|60=20170803-22:05:52|100=CME|107=PAU7|167=FUT|204=0|1028=N|9702=4|9717=B_CH1OU4QPI24|12000=TEOUTBOUND|10=012|
20170803-22:05:52.317 : 8=FIX.4.2|9=270|35=8|34=176|49=QBSIM_CME|52=20170803-22:05:52.315|56=TEOUTBOUND|57=QB-CH5|1=TEST|6=0|11=B_CH1OU4QPS4J|14=0|17=exe_9|20=0|31=0|32=0|37=SN00000095__simgway|38=1|39=6|40=2|41=B_CH1OU4QPI24|44=88400|54=2|55=PAU7|60=20170803-22:05:52.314|113=Y|150=6|151=1|167=FUT|200=201709|10=041|
20170803-22:05:52.317 : 8=FIX.4.2|9=271|35=8|34=177|49=QBSIM_CME|52=20170803-22:05:52.315|56=TEOUTBOUND|57=QB-CH5|1=TEST|6=0|11=B_CH1OU4QPS4J|14=0|17=exe_10|20=0|31=0|32=0|37=SN00000095__simgway|38=1|39=4|40=2|41=B_CH1OU4QPI24|44=88400|54=2|55=PAU7|60=20170803-22:05:52.314|113=Y|150=4|151=0|167=FUT|200=201709|10=078|
20170803-22:05:52.424 : 8=FIX.4.2|9=264|35=8|34=178|49=QBSIM_CME|52=20170803-22:05:52.421|56=TEOUTBOUND|57=QB-CH5|1=TEST|6=588900|11=B_CH1OU4QPS4I|14=1|17=exe_5|20=0|31=588900|32=1|37=SN00000210__simgway|38=1|39=2|40=2|44=588900|54=1|55=NQU7|60=20170803-22:05:52.421|113=Y|150=2|151=0|167=FUT|200=201709|10=079|
20170803-22:05:52.563 : 8=FIX.4.2|9=261|35=8|34=179|49=QBSIM_CME|52=20170803-22:05:52.561|56=TEOUTBOUND|57=QB-CH5|1=TEST|6=21974|11=B_CH1OU4QPQ41|14=1|17=exe_5|20=0|31=21974|32=1|37=SN00000192__simgway|38=1|39=2|40=2|44=21974|54=2|55=YMU7|60=20170803-22:05:52.560|113=Y|150=2|151=0|167=FUT|200=201709|10=168|
20170803-22:05:52.564 : 8=FIX.4.2|9=238|35=D|34=150|49=TEOUTBOUND|50=QB-CH5|52=20170803-22:05:52.564|56=QBSIM_CME|57=G|142=US,NY|1=TEST|11=B_CH1OU4QPS4M|21=1|38=1|40=2|44=21976|54=2|55=YMU7|59=0|60=20170803-22:05:52|100=CME|107=YMU7|167=FUT|204=0|1028=N|9702=4|12000=TEOUTBOUND|10=178|
20170803-22:05:52.565 : 8=FIX.4.2|9=253|35=8|34=180|49=QBSIM_CME|52=20170803-22:05:52.563|56=TEOUTBOUND|57=QB-CH5|1=TEST|6=0|11=B_CH1OU4QPS4M|14=0|17=exe_2|20=0|31=0|32=0|37=SN00000213__simgway|38=1|39=0|40=2|44=21976|54=2|55=YMU7|60=20170803-22:05:52.562|113=Y|150=0|151=1|167=FUT|200=201709|10=009|
20170803-22:05:52.585 : 8=FIX.4.2|9=301|35=G|34=151|49=TEOUTBOUND|50=QB-CH5|52=20170803-22:05:52.585|56=QBSIM_CME|57=G|142=US,NY|1=TEST|11=B_CH1OU4QPS4N|21=1|37=SN00000004__simgway|38=2|40=2|41=B_CH1OU4QPC4|44=7949|54=2|55=6AU7|59=0|60=20170803-22:05:52|100=CME|107=6AU7|167=FUT|204=0|1028=N|9702=4|9717=B_CH1OU4QPC4|9768=Y|12000=TEOUTBOUND|10=124|
20170803-22:05:52.585 : 8=FIX.4.2|9=237|35=D|34=152|49=TEOUTBOUND|50=QB-CH5|52=20170803-22:05:52.585|56=QBSIM_CME|57=G|142=US,NY|1=TEST|11=B_CH1OU4QPS4O|21=1|38=1|40=2|44=7948|54=2|55=6AU7|59=0|60=20170803-22:05:52|100=CME|107=6AU7|167=FUT|204=0|1028=N|9702=4|12000=TEOUTBOUND|10=045|
20170803-22:05:52.585 : 8=FIX.4.2|9=268|35=8|34=181|49=QBSIM_CME|52=20170803-22:05:52.583|56=TEOUTBOUND|57=QB-CH5|1=TEST|6=0|11=B_CH1OU4QPS4N|14=0|17=exe_6|20=0|31=0|32=0|37=SN00000004__simgway|38=2|39=E|40=2|41=B_CH1OU4QPC4|44=7949|54=2|55=6AU7|60=20170803-22:05:52.582|113=Y|150=E|151=2|167=FUT|200=201709|10=216|
20170803-22:05:52.588 : 8=FIX.4.2|9=268|35=8|34=182|49=QBSIM_CME|52=20170803-22:05:52.583|56=TEOUTBOUND|57=QB-CH5|1=TEST|6=0|11=B_CH1OU4QPS4N|14=0|17=exe_7|20=0|31=0|32=0|37=SN00000004__simgway|38=2|39=5|40=2|41=B_CH1OU4QPC4|44=7949|54=2|55=6AU7|60=20170803-22:05:52.582|113=Y|150=5|151=2|167=FUT|200=201709|10=186|
20170803-22:05:52.625 : 8=FIX.4.2|9=252|35=8|34=183|49=QBSIM_CME|52=20170803-22:05:52.583|56=TEOUTBOUND|57=QB-CH5|1=TEST|6=0|11=B_CH1OU4QPS4O|14=0|17=exe_2|20=0|31=0|32=0|37=SN00000217__simgway|38=1|39=0|40=2|44=7948|54=2|55=6AU7|60=20170803-22:05:52.583|113=Y|150=0|151=1|167=FUT|200=201709|10=186|
20170803-22:05:53.152 : 8=FIX.4.2|9=242|35=D|34=153|49=TEOUTBOUND|50=QB-CH5|52=20170803-22:05:53.152|56=QBSIM_CME|57=G|142=US,NY|1=TEST|11=B_CH1OU4QPT4P|21=1|38=1|40=2|44=135.84375|54=2|55=TNU7|59=0|60=20170803-22:05:53|100=CME|107=TNU7|167=FUT|204=0|1028=N|9702=4|12000=TEOUTBOUND|10=112|
20170803-22:05:53.153 : 8=FIX.4.2|9=257|35=8|34=184|49=QBSIM_CME|52=20170803-22:05:53.150|56=TEOUTBOUND|57=QB-CH5|1=TEST|6=0|11=B_CH1OU4QPT4P|14=0|17=exe_2|20=0|31=0|32=0|37=SN00000218__simgway|38=1|39=0|40=2|44=135.84375|54=2|55=TNU7|60=20170803-22:05:53.150|113=Y|150=0|151=1|167=FUT|200=201709|10=210|
20170803-22:05:53.153 : 8=FIX.4.2|9=273|35=8|34=185|49=QBSIM_CME|52=20170803-22:05:53.151|56=TEOUTBOUND|57=QB-CH5|1=TEST|6=135.84375|11=B_CH1OU4QPT4P|14=1|17=exe_5|20=0|31=135.84375|32=1|37=SN00000218__simgway|38=1|39=2|40=2|44=135.84375|54=2|55=TNU7|60=20170803-22:05:53.150|113=Y|150=2|151=0|167=FUT|200=201709|10=030|
20170803-22:05:53.154 : 8=FIX.4.2|9=294|35=F|34=154|49=TEOUTBOUND|50=QB-CH5|52=20170803-22:05:53.154|56=QBSIM_CME|57=G|142=US,NY|1=TEST|11=B_CH1OU4QPT4R|37=SN00000127__simgway|38=1|40=2|41=B_CH1OU4QPJ2X|44=135.875|54=2|55=TNU7|59=0|60=20170803-22:05:53|100=CME|107=TNU7|167=FUT|204=0|1028=N|9702=4|9717=B_CH1OU4QPJ2X|12000=TEOUTBOUND|10=228|
20170803-22:05:53.154 : 8=FIX.4.2|9=272|35=8|34=186|49=QBSIM_CME|52=20170803-22:05:53.152|56=TEOUTBOUND|57=QB-CH5|1=TEST|6=0|11=B_CH1OU4QPT4R|14=0|17=exe_9|20=0|31=0|32=0|37=SN00000127__simgway|38=1|39=6|40=2|41=B_CH1OU4QPJ2X|44=135.875|54=2|55=TNU7|60=20170803-22:05:53.151|113=Y|150=6|151=1|167=FUT|200=201709|10=206|
20170803-22:05:53.194 : 8=FIX.4.2|9=273|35=8|34=187|49=QBSIM_CME|52=20170803-22:05:53.152|56=TEOUTBOUND|57=QB-CH5|1=TEST|6=0|11=B_CH1OU4QPT4R|14=0|17=exe_10|20=0|31=0|32=0|37=SN00000127__simgway|38=1|39=4|40=2|41=B_CH1OU4QPJ2X|44=135.875|54=2|55=TNU7|60=20170803-22:05:53.151|113=Y|150=4|151=0|167=FUT|200=201709|10=243|
20170803-22:05:53.395 : 8=FIX.4.2|9=296|35=F|34=155|49=TEOUTBOUND|50=QB-CH5|52=20170803-22:05:53.395|56=QBSIM_CME|57=G|142=US,NY|1=TEST|11=B_CH1OU4QPT4S|37=SN00000131__simgway|38=1|40=2|41=B_CH1OU4QPJ30|44=167.46875|54=1|55=UBU7|59=0|60=20170803-22:05:53|100=CME|107=UBU7|167=FUT|204=0|1028=N|9702=4|9717=B_CH1OU4QPJ30|12000=TEOUTBOUND|10=244|
20170803-22:05:53.396 : 8=FIX.4.2|9=274|35=8|34=188|49=QBSIM_CME|52=20170803-22:05:53.394|56=TEOUTBOUND|57=QB-CH5|1=TEST|6=0|11=B_CH1OU4QPT4S|14=0|17=exe_9|20=0|31=0|32=0|37=SN00000131__simgway|38=1|39=6|40=2|41=B_CH1OU4QPJ30|44=167.46875|54=1|55=UBU7|60=20170803-22:05:53.393|113=Y|150=6|151=1|167=FUT|200=201709|10=026|
20170803-22:05:53.396 : 8=FIX.4.2|9=275|35=8|34=189|49=QBSIM_CME|52=20170803-22:05:53.394|56=TEOUTBOUND|57=QB-CH5|1=TEST|6=0|11=B_CH1OU4QPT4S|14=0|17=exe_10|20=0|31=0|32=0|37=SN00000131__simgway|38=1|39=4|40=2|41=B_CH1OU4QPJ30|44=167.46875|54=1|55=UBU7|60=20170803-22:05:53.393|113=Y|150=4|151=0|167=FUT|200=201709|10=063|
20170803-22:05:53.397 : 8=FIX.4.2|9=242|35=D|34=156|49=TEOUTBOUND|50=QB-CH5|52=20170803-22:05:53.397|56=QBSIM_CME|57=G|142=US,NY|1=TEST|11=B_CH1OU4QPT4T|21=1|38=1|40=2|44=167.53125|54=1|55=UBU7|59=0|60=20170803-22:05:53|100=CME|107=UBU7|167=FUT|204=0|1028=N|9702=4|12000=TEOUTBOUND|10=101|
20170803-22:05:53.397 : 8=FIX.4.2|9=257|35=8|34=190|49=QBSIM_CME|52=20170803-22:05:53.395|56=TEOUTBOUND|57=QB-CH5|1=TEST|6=0|11=B_CH1OU4QPT4T|14=0|17=exe_2|20=0|31=0|32=0|37=SN00000225__simgway|38=1|39=0|40=2|44=167.53125|54=1|55=UBU7|60=20170803-22:05:53.394|113=Y|150=0|151=1|167=FUT|200=201709|10=212|
20170803-22:05:53.810 : 8=FIX.4.2|9=295|35=F|34=157|49=TEOUTBOUND|50=QB-CH5|52=20170803-22:05:53.810|56=QBSIM_CME|57=G|142=US,NY|1=TEST|11=B_CH1OU4QPT4U|37=SN00000139__simgway|38=1|40=2|41=B_CH1OU4QPJ36|44=155.0625|54=1|55=ZBU7|59=0|60=20170803-22:05:53|100=CME|107=ZBU7|167=FUT|204=0|1028=N|9702=4|9717=B_CH1OU4QPJ36|12000=TEOUTBOUND|10=201|
20170803-22:05:53.810 : 8=FIX.4.2|9=273|35=8|34=191|49=QBSIM_CME|52=20170803-22:05:53.808|56=TEOUTBOUND|57=QB-CH5|1=TEST|6=0|11=B_CH1OU4QPT4U|14=0|17=exe_9|20=0|31=0|32=0|37=SN00000139__simgway|38=1|39=6|40=2|41=B_CH1OU4QPJ36|44=155.0625|54=1|55=ZBU7|60=20170803-22:05:53.807|113=Y|150=6|151=1|167=FUT|200=201709|10=228|
20170803-22:05:53.810 : 8=FIX.4.2|9=274|35=8|34=192|49=QBSIM_CME|52=20170803-22:05:53.808|56=TEOUTBOUND|57=QB-CH5|1=TEST|6=0|11=B_CH1OU4QPT4U|14=0|17=exe_10|20=0|31=0|32=0|37=SN00000139__simgway|38=1|39=4|40=2|41=B_CH1OU4QPJ36|44=155.0625|54=1|55=ZBU7|60=20170803-22:05:53.807|113=Y|150=4|151=0|167=FUT|200=201709|10=009|
20170803-22:05:55.534 : 8=FIX.4.2|9=261|35=8|34=193|49=QBSIM_CME|52=20170803-22:05:55.532|56=TEOUTBOUND|57=QB-CH5|1=TEST|6=21975|11=B_CH1OU4QPR45|14=1|17=exe_5|20=0|31=21975|32=1|37=SN00000198__simgway|38=1|39=2|40=2|44=21975|54=2|55=YMU7|60=20170803-22:05:55.531|113=Y|150=2|151=0|167=FUT|200=201709|10=180|
20170803-22:05:55.535 : 8=FIX.4.2|9=239|35=D|34=158|49=TEOUTBOUND|50=QB-CH5|52=20170803-22:05:55.534|56=QBSIM_CME|57=G|142=US,NY|1=TEST|11=B_CH1OU4QPV4V|21=1|38=2|40=2|44=247100|54=1|55=ESU7|59=0|60=20170803-22:05:55|100=CME|107=ESU7|167=FUT|204=0|1028=N|9702=4|12000=TEOUTBOUND|10=211|
20170803-22:05:55.535 : 8=FIX.4.2|9=238|35=D|34=159|49=TEOUTBOUND|50=QB-CH5|52=20170803-22:05:55.535|56=QBSIM_CME|57=G|142=US,NY|1=TEST|11=B_CH1OU4QPV4X|21=1|38=1|40=2|44=21975|54=2|55=YMU7|59=0|60=20170803-22:05:55|100=CME|107=YMU7|167=FUT|204=0|1028=N|9702=4|12000=TEOUTBOUND|10=204|
20170803-22:05:55.536 : 8=FIX.4.2|9=271|35=8|34=194|49=QBSIM_CME|52=20170803-22:05:55.533|56=TEOUTBOUND|57=QB-CH5|1=TEST|6=0|11=B_CH1OU4QPEX|14=0|17=exe_12|20=0|31=0|32=0|37=SN00000041__simgway|38=1|39=4|40=2|41=B_CH1OU4QPEX|44=174700|54=2|55=EMDU7|60=20170803-22:05:55.532|113=Y|150=4|151=0|167=FUT|200=201709|10=126|
20170803-22:05:55.537 : 8=FIX.4.2|9=239|35=D|34=160|49=TEOUTBOUND|50=QB-CH5|52=20170803-22:05:55.537|56=QBSIM_CME|57=G|142=US,NY|1=TEST|11=B_CH1OU4QPV4Y|21=1|38=2|40=2|44=247100|54=1|55=ESU7|59=0|60=20170803-22:05:55|100=CME|107=ESU7|167=FUT|204=0|1028=N|9702=4|12000=TEOUTBOUND|10=210|
20170803-22:05:55.537 : 8=FIX.4.2|9=241|35=D|34=161|49=TEOUTBOUND|50=QB-CH5|52=20170803-22:05:55.537|56=QBSIM_CME|57=G|142=US,NY|1=TEST|11=B_CH1OU4QPV4Z|21=1|38=1|40=2|44=174700|54=2|55=EMDU7|59=0|60=20170803-22:05:55|100=CME|107=EMDU7|167=FUT|204=0|1028=N|9702=4|12000=TEOUTBOUND|10=078|
20170803-22:05:55.538 : 8=FIX.4.2|9=271|35=8|34=195|49=QBSIM_CME|52=20170803-22:05:55.535|56=TEOUTBOUND|57=QB-CH5|1=TEST|6=0|11=B_CH1OU4QPEW|14=0|17=exe_12|20=0|31=0|32=0|37=SN00000040__simgway|38=1|39=4|40=2|41=B_CH1OU4QPEW|44=174680|54=2|55=EMDU7|60=20170803-22:05:55.532|113=Y|150=4|151=0|167=FUT|200=201709|10=133|
