20170803-22:00:02.277 : 8=FIX.4.2|9=76|35=A|34=1|49=TEST|52=20170803-22:00:02.260|56=PRODCH|98=0|108=30|141=Y|10=166|
20170803-22:00:02.277 : 8=FIX.4.2|9=76|35=A|34=1|49=PRODCH|52=20170803-22:00:02.277|56=TEST|98=0|108=30|141=Y|10=174|
20170803-22:00:32.046 : 8=FIX.4.2|9=58|35=0|34=2|49=TEST|52=20170803-22:00:32.037|56=PRODCH|10=085|
20170803-22:00:32.046 : 8=FIX.4.2|9=58|35=0|34=2|49=PRODCH|52=20170803-22:00:32.046|56=TEST|10=085|
20170803-22:01:02.076 : 8=FIX.4.2|9=58|35=0|34=3|49=PRODCH|52=20170803-22:01:02.076|56=TEST|10=087|
20170803-22:01:02.076 : 8=FIX.4.2|9=58|35=0|34=3|49=TEST|52=20170803-22:01:02.067|56=PRODCH|10=087|
20170803-22:01:32.106 : 8=FIX.4.2|9=58|35=0|34=4|49=PRODCH|52=20170803-22:01:32.106|56=TEST|10=085|
20170803-22:01:32.108 : 8=FIX.4.2|9=58|35=0|34=4|49=TEST|52=20170803-22:01:32.098|56=PRODCH|10=095|
20170803-22:02:02.136 : 8=FIX.4.2|9=58|35=0|34=5|49=TEST|52=20170803-22:02:02.127|56=PRODCH|10=087|
20170803-22:02:02.136 : 8=FIX.4.2|9=58|35=0|34=5|49=PRODCH|52=20170803-22:02:02.136|56=TEST|10=087|
20170803-22:02:32.166 : 8=FIX.4.2|9=58|35=0|34=6|49=TEST|52=20170803-22:02:32.157|56=PRODCH|10=094|
20170803-22:02:32.166 : 8=FIX.4.2|9=58|35=0|34=6|49=PRODCH|52=20170803-22:02:32.166|56=TEST|10=094|
20170803-22:03:02.196 : 8=FIX.4.2|9=58|35=0|34=7|49=TEST|52=20170803-22:03:02.187|56=PRODCH|10=096|
20170803-22:03:02.196 : 8=FIX.4.2|9=58|35=0|34=7|49=PRODCH|52=20170803-22:03:02.196|56=TEST|10=096|
20170803-22:03:03.297 : 8=FIX.4.2|9=215|35=D|34=8|49=TEST|50=Cert|52=20170803-22:03:03.288|56=PRODCH|1=TEST|11=180303277438ZNU710closertest18.03.01.d03.closerUS|21=2|22=8|38=500|40=1|48=ZNU7|54=1|55=ZNU7|59=0|60=20170803-22:03:03|100=2|847=1006|10=118|
20170803-22:03:03.308 : 8=FIX.4.2|9=309|35=8|34=8|49=PRODCH|52=20170803-22:03:03.308|56=TEST|57=Cert|1=TEST|6=0|11=180303277438ZNU710closertest18.03.01.d03.closerUS|14=0|17=CLSR_CH1OU4QL31|20=0|22=8|31=0|32=0|37=00000003__PRODCH|38=500|39=0|48=ZNU7|54=1|55=ZNU7|60=20170803-22:03:03.307|76=BAML|113=Y|150=0|151=500|167=FUT|200=201709|10=252|
20170803-22:03:03.345 : 8=FIX.4.2|9=215|35=D|34=9|49=TEST|50=Cert|52=20170803-22:03:03.336|56=PRODCH|1=TEST|11=180303330235ZNU711closertest18.03.01.d03.closerUS|21=2|22=8|38=300|40=1|48=ZNU7|54=1|55=ZNU7|59=0|60=20170803-22:03:03|100=2|847=1006|10=097|
20170803-22:03:03.349 : 8=FIX.4.2|9=309|35=8|34=9|49=PRODCH|52=20170803-22:03:03.349|56=TEST|57=Cert|1=TEST|6=0|11=180303330235ZNU711closertest18.03.01.d03.closerUS|14=0|17=CLSR_CH1OU4QL32|20=0|22=8|31=0|32=0|37=00000004__PRODCH|38=300|39=0|48=ZNU7|54=1|55=ZNU7|60=20170803-22:03:03.348|76=BAML|113=Y|150=0|151=300|167=FUT|200=201709|10=247|
20170803-22:03:03.387 : 8=FIX.4.2|9=216|35=D|34=10|49=TEST|50=Cert|52=20170803-22:03:03.378|56=PRODCH|1=TEST|11=180303377680ZBU712closertest18.03.01.d03.closerUS|21=2|22=8|38=500|40=1|48=ZBU7|54=1|55=ZBU7|59=0|60=20170803-22:03:03|100=2|847=1006|10=126|
20170803-22:03:03.392 : 8=FIX.4.2|9=310|35=8|34=10|49=PRODCH|52=20170803-22:03:03.392|56=TEST|57=Cert|1=TEST|6=0|11=180303377680ZBU712closertest18.03.01.d03.closerUS|14=0|17=CLSR_CH1OU4QL33|20=0|22=8|31=0|32=0|37=00000005__PRODCH|38=500|39=0|48=ZBU7|54=1|55=ZBU7|60=20170803-22:03:03.391|76=BAML|113=Y|150=0|151=500|167=FUT|200=201709|10=005|
20170803-22:03:03.436 : 8=FIX.4.2|9=216|35=D|34=11|49=TEST|50=Cert|52=20170803-22:03:03.427|56=PRODCH|1=TEST|11=180303425763ZBU713closertest18.03.01.d03.closerUS|21=2|22=8|38=300|40=1|48=ZBU7|54=1|55=ZBU7|59=0|60=20170803-22:03:03|100=2|847=1006|10=117|
20170803-22:03:03.439 : 8=FIX.4.2|9=310|35=8|34=11|49=PRODCH|52=20170803-22:03:03.439|56=TEST|57=Cert|1=TEST|6=0|11=180303425763ZBU713closertest18.03.01.d03.closerUS|14=0|17=CLSR_CH1OU4QL34|20=0|22=8|31=0|32=0|37=00000006__PRODCH|38=300|39=0|48=ZBU7|54=1|55=ZBU7|60=20170803-22:03:03.438|76=BAML|113=Y|150=0|151=300|167=FUT|200=201709|10=005|
20170803-22:03:03.482 : 8=FIX.4.2|9=216|35=D|34=12|49=TEST|50=Cert|52=20170803-22:03:03.473|56=PRODCH|1=TEST|11=180303472193ZTU714closertest18.03.01.d03.closerUS|21=2|22=8|38=500|40=1|48=ZTU7|54=1|55=ZTU7|59=0|60=20170803-22:03:03|100=2|847=1006|10=175|
20170803-22:03:03.486 : 8=FIX.4.2|9=310|35=8|34=12|49=PRODCH|52=20170803-22:03:03.486|56=TEST|57=Cert|1=TEST|6=0|11=180303472193ZTU714closertest18.03.01.d03.closerUS|14=0|17=CLSR_CH1OU4QL35|20=0|22=8|31=0|32=0|37=00000007__PRODCH|38=500|39=0|48=ZTU7|54=1|55=ZTU7|60=20170803-22:03:03.485|76=BAML|113=Y|150=0|151=500|167=FUT|200=201709|10=070|
20170803-22:03:03.578 : 8=FIX.4.2|9=216|35=D|34=13|49=TEST|50=Cert|52=20170803-22:03:03.569|56=PRODCH|1=TEST|11=180303567749ZTU715closertest18.03.01.d03.closerUS|21=2|22=8|38=300|40=1|48=ZTU7|54=1|55=ZTU7|59=0|60=20170803-22:03:03|100=2|847=1006|10=193|
20170803-22:03:03.581 : 8=FIX.4.2|9=310|35=8|34=13|49=PRODCH|52=20170803-22:03:03.581|56=TEST|57=Cert|1=TEST|6=0|11=180303567749ZTU715closertest18.03.01.d03.closerUS|14=0|17=CLSR_CH1OU4QL36|20=0|22=8|31=0|32=0|37=00000008__PRODCH|38=300|39=0|48=ZTU7|54=1|55=ZTU7|60=20170803-22:03:03.580|76=BAML|113=Y|150=0|151=300|167=FUT|200=201709|10=074|
20170803-22:03:03.676 : 8=FIX.4.2|9=216|35=D|34=14|49=TEST|50=Cert|52=20170803-22:03:03.667|56=PRODCH|1=TEST|11=180303666211ZFU716closertest18.03.01.d03.closerUS|21=2|22=8|38=500|40=1|48=ZFU7|54=1|55=ZFU7|59=0|60=20170803-22:03:03|100=2|847=1006|10=138|
20170803-22:03:03.679 : 8=FIX.4.2|9=310|35=8|34=14|49=PRODCH|52=20170803-22:03:03.679|56=TEST|57=Cert|1=TEST|6=0|11=180303666211ZFU716closertest18.03.01.d03.closerUS|14=0|17=CLSR_CH1OU4QL37|20=0|22=8|31=0|32=0|37=00000009__PRODCH|38=500|39=0|48=ZFU7|54=1|55=ZFU7|60=20170803-22:03:03.678|76=BAML|113=Y|150=0|151=500|167=FUT|200=201709|10=040|
20170803-22:03:03.775 : 8=FIX.4.2|9=216|35=D|34=15|49=TEST|50=Cert|52=20170803-22:03:03.766|56=PRODCH|1=TEST|11=180303764712ZFU717closertest18.03.01.d03.closerUS|21=2|22=8|38=300|40=1|48=ZFU7|54=1|55=ZFU7|59=0|60=20170803-22:03:03|100=2|847=1006|10=143|
20170803-22:03:03.777 : 8=FIX.4.2|9=310|35=8|34=15|49=PRODCH|52=20170803-22:03:03.777|56=TEST|57=Cert|1=TEST|6=0|11=180303764712ZFU717closertest18.03.01.d03.closerUS|14=0|17=CLSR_CH1OU4QL38|20=0|22=8|31=0|32=0|37=00000010__PRODCH|38=300|39=0|48=ZFU7|54=1|55=ZFU7|60=20170803-22:03:03.777|76=BAML|113=Y|150=0|151=300|167=FUT|200=201709|10=035|
20170803-22:03:03.819 : 8=FIX.4.2|9=216|35=D|34=16|49=TEST|50=Cert|52=20170803-22:03:03.810|56=PRODCH|1=TEST|11=180303809265UBU718closertest18.03.01.d03.closerUS|21=2|22=8|38=500|40=1|48=UBU7|54=1|55=UBU7|59=0|60=20170803-22:03:03|100=2|847=1006|10=113|
20170803-22:03:03.825 : 8=FIX.4.2|9=310|35=8|34=16|49=PRODCH|52=20170803-22:03:03.825|56=TEST|57=Cert|1=TEST|6=0|11=180303809265UBU718closertest18.03.01.d03.closerUS|14=0|17=CLSR_CH1OU4QL39|20=0|22=8|31=0|32=0|37=00000011__PRODCH|38=500|39=0|48=UBU7|54=1|55=UBU7|60=20170803-22:03:03.825|76=BAML|113=Y|150=0|151=500|167=FUT|200=201709|10=007|
20170803-22:03:03.928 : 8=FIX.4.2|9=216|35=D|34=17|49=TEST|50=Cert|52=20170803-22:03:03.919|56=PRODCH|1=TEST|11=180303918436UBU719closertest18.03.01.d03.closerUS|21=2|22=8|38=300|40=1|48=UBU7|54=1|55=UBU7|59=0|60=20170803-22:03:03|100=2|847=1006|10=124|
20170803-22:03:03.933 : 8=FIX.4.2|9=310|35=8|34=17|49=PRODCH|52=20170803-22:03:03.932|56=TEST|57=Cert|1=TEST|6=0|11=180303918436UBU719closertest18.03.01.d03.closerUS|14=0|17=CLSR_CH1OU4QL3A|20=0|22=8|31=0|32=0|37=00000012__PRODCH|38=300|39=0|48=UBU7|54=1|55=UBU7|60=20170803-22:03:03.932|76=BAML|113=Y|150=0|151=300|167=FUT|200=201709|10=013|
20170803-22:03:03.979 : 8=FIX.4.2|9=216|35=D|34=18|49=TEST|50=Cert|52=20170803-22:03:03.970|56=PRODCH|1=TEST|11=180303968898ESU720closertest18.03.01.d03.closerUS|21=2|22=8|38=500|40=1|48=ESU7|54=1|55=ESU7|59=0|60=20170803-22:03:03|100=2|847=1006|10=136|
20170803-22:03:03.982 : 8=FIX.4.2|9=310|35=8|34=18|49=PRODCH|52=20170803-22:03:03.982|56=TEST|57=Cert|1=TEST|6=0|11=180303968898ESU720closertest18.03.01.d03.closerUS|14=0|17=CLSR_CH1OU4QL3B|20=0|22=8|31=0|32=0|37=00000013__PRODCH|38=500|39=0|48=ESU7|54=1|55=ESU7|60=20170803-22:03:03.981|76=BAML|113=Y|150=0|151=500|167=FUT|200=201709|10=041|
20170803-22:03:04.020 : 8=FIX.4.2|9=216|35=D|34=19|49=TEST|50=Cert|52=20170803-22:03:04.011|56=PRODCH|1=TEST|11=180304009785ESU721closertest18.03.01.d03.closerUS|21=2|22=8|38=300|40=1|48=ESU7|54=1|55=ESU7|59=0|60=20170803-22:03:04|100=2|847=1006|10=106|
20170803-22:03:04.022 : 8=FIX.4.2|9=310|35=8|34=19|49=PRODCH|52=20170803-22:03:04.022|56=TEST|57=Cert|1=TEST|6=0|11=180304009785ESU721closertest18.03.01.d03.closerUS|14=0|17=CLSR_CH1OU4QL4C|20=0|22=8|31=0|32=0|37=00000014__PRODCH|38=300|39=0|48=ESU7|54=1|55=ESU7|60=20170803-22:03:04.022|76=BAML|113=Y|150=0|151=300|167=FUT|200=201709|10=253|
20170803-22:03:04.124 : 8=FIX.4.2|9=216|35=D|34=20|49=TEST|50=Cert|52=20170803-22:03:04.115|56=PRODCH|1=TEST|11=180304114500NQU722closertest18.03.01.d03.closerUS|21=2|22=8|38=500|40=1|48=NQU7|54=1|55=NQU7|59=0|60=20170803-22:03:04|100=2|847=1006|10=109|
20170803-22:03:04.127 : 8=FIX.4.2|9=310|35=8|34=20|49=PRODCH|52=20170803-22:03:04.127|56=TEST|57=Cert|1=TEST|6=0|11=180304114500NQU722closertest18.03.01.d03.closerUS|14=0|17=CLSR_CH1OU4QL4D|20=0|22=8|31=0|32=0|37=00000015__PRODCH|38=500|39=0|48=NQU7|54=1|55=NQU7|60=20170803-22:03:04.127|76=BAML|113=Y|150=0|151=500|167=FUT|200=201709|10=011|
20170803-22:03:04.165 : 8=FIX.4.2|9=229|35=D|34=21|49=TEST|50=Cert|52=20170803-22:03:04.156|56=PRODCH|1=TEST|11=180304155028GFQ710morntestbolt18.03.01.d03.cme.probe|21=2|22=8|38=5|40=1|44=0|48=GFQ7|54=2|55=GFQ7|59=0|60=20170803-22:03:04|100=2|847=1002|8561=8|10=041|
20170803-22:03:04.173 : 8=FIX.4.2|9=306|35=8|34=21|49=PRODCH|52=20170803-22:03:04.173|56=TEST|57=Cert|1=TEST|6=0|11=180304155028GFQ710morntestbolt18.03.01.d03.cme.probe|14=0|17=B_CH1OU4QL41|20=0|22=8|31=0|32=0|37=00000016__PRODCH|38=5|39=0|48=GFQ7|54=2|55=GFQ7|60=20170803-22:03:04.172|76=BAML|113=Y|150=0|151=5|167=FUT|200=201708|10=067|
20170803-22:03:04.212 : 8=FIX.4.2|9=216|35=D|34=22|49=TEST|50=Cert|52=20170803-22:03:04.203|56=PRODCH|1=TEST|11=180304201921NQU723closertest18.03.01.d03.closerUS|21=2|22=8|38=300|40=1|48=NQU7|54=1|55=NQU7|59=0|60=20170803-22:03:04|100=2|847=1006|10=112|
20170803-22:03:04.215 : 8=FIX.4.2|9=310|35=8|34=22|49=PRODCH|52=20170803-22:03:04.215|56=TEST|57=Cert|1=TEST|6=0|11=180304201921NQU723closertest18.03.01.d03.closerUS|14=0|17=CLSR_CH1OU4QL4E|20=0|22=8|31=0|32=0|37=00000017__PRODCH|38=300|39=0|48=NQU7|54=1|55=NQU7|60=20170803-22:03:04.214|76=BAML|113=Y|150=0|151=300|167=FUT|200=201709|10=012|
20170803-22:03:04.251 : 8=FIX.4.2|9=216|35=D|34=23|49=TEST|50=Cert|52=20170803-22:03:04.242|56=PRODCH|1=TEST|11=180304241767YMU724closertest18.03.01.d03.closerUS|21=2|22=8|38=500|40=1|48=YMU7|54=1|55=YMU7|59=0|60=20170803-22:03:04|100=2|847=1006|10=152|
20170803-22:03:04.255 : 8=FIX.4.2|9=310|35=8|34=23|49=PRODCH|52=20170803-22:03:04.255|56=TEST|57=Cert|1=TEST|6=0|11=180304241767YMU724closertest18.03.01.d03.closerUS|14=0|17=CLSR_CH1OU4QL4F|20=0|22=8|31=0|32=0|37=00000018__PRODCH|38=500|39=0|48=YMU7|54=1|55=YMU7|60=20170803-22:03:04.254|76=BAML|113=Y|150=0|151=500|167=FUT|200=201709|10=061|
20170803-22:03:04.350 : 8=FIX.4.2|9=216|35=D|34=24|49=TEST|50=Cert|52=20170803-22:03:04.341|56=PRODCH|1=TEST|11=180304339898YMU725closertest18.03.01.d03.closerUS|21=2|22=8|38=300|40=1|48=YMU7|54=1|55=YMU7|59=0|60=20170803-22:03:04|100=2|847=1006|10=165|
20170803-22:03:04.353 : 8=FIX.4.2|9=310|35=8|34=24|49=PRODCH|52=20170803-22:03:04.353|56=TEST|57=Cert|1=TEST|6=0|11=180304339898YMU725closertest18.03.01.d03.closerUS|14=0|17=CLSR_CH1OU4QL4G|20=0|22=8|31=0|32=0|37=00000019__PRODCH|38=300|39=0|48=YMU7|54=1|55=YMU7|60=20170803-22:03:04.352|76=BAML|113=Y|150=0|151=300|167=FUT|200=201709|10=072|
20170803-22:03:04.388 : 8=FIX.4.2|9=243|35=D|34=25|49=TEST|50=Cert|52=20170803-22:03:04.379|56=PRODCH|1=TEST|11=180304378845GFQ711stroberj18.03.01.d03.cme.probe|21=2|22=8|38=50|40=1|44=0|48=GFQ7|54=2|55=GFQ7|59=0|60=20170803-22:03:04|100=2|847=1001|8561=99|8563=1|8565=.5|10=209|
20170803-22:03:04.403 : 8=FIX.4.2|9=304|35=8|34=25|49=PRODCH|52=20170803-22:03:04.403|56=TEST|57=Cert|1=TEST|6=0|11=180304378845GFQ711stroberj18.03.01.d03.cme.probe|14=0|17=S_CH1OU4QL41|20=0|22=8|31=0|32=0|37=00000020__PRODCH|38=50|39=0|48=GFQ7|54=2|55=GFQ7|60=20170803-22:03:04.403|76=BAML|113=Y|150=0|151=50|167=FUT|200=201708|10=247|
20170803-22:03:04.623 : 8=FIX.4.2|9=216|35=D|34=26|49=TEST|50=Cert|52=20170803-22:03:04.419|56=PRODCH|1=TEST|11=180304418208TNU726closertest18.03.01.d03.closerUS|21=2|22=8|38=500|40=1|48=TNU7|54=1|55=TNU7|59=0|60=20170803-22:03:04|100=2|847=1006|10=147|
20170803-22:03:04.623 : 8=FIX.4.2|9=216|35=D|34=27|49=TEST|50=Cert|52=20170803-22:03:04.458|56=PRODCH|1=TEST|11=180304457905TNU727closertest18.03.01.d03.closerUS|21=2|22=8|38=300|40=1|48=TNU7|54=1|55=TNU7|59=0|60=20170803-22:03:04|100=2|847=1006|10=157|
20170803-22:03:04.623 : 8=FIX.4.2|9=216|35=D|34=28|49=TEST|50=Cert|52=20170803-22:03:04.555|56=PRODCH|1=TEST|11=180304554754CLU728closertest18.03.01.d03.closerUS|21=2|22=8|38=500|40=1|48=CLU7|54=1|55=CLU7|59=0|60=20170803-22:03:04|100=2|847=1006|10=102|
20170803-22:03:04.623 : 8=FIX.4.2|9=229|35=D|34=29|49=TEST|50=Cert|52=20170803-22:03:04.594|56=PRODCH|1=TEST|11=180304593902ZNU712morntestbolt18.03.01.d03.cme.probe|21=2|22=8|38=5|40=1|44=0|48=ZNU7|54=1|55=ZNU7|59=0|60=20170803-22:03:04|100=2|847=1002|8561=8|10=156|
20170803-22:03:04.632 : 8=FIX.4.2|9=310|35=8|34=26|49=PRODCH|52=20170803-22:03:04.632|56=TEST|57=Cert|1=TEST|6=0|11=180304418208TNU726closertest18.03.01.d03.closerUS|14=0|17=CLSR_CH1OU4QL4H|20=0|22=8|31=0|32=0|37=00000021__PRODCH|38=500|39=0|48=TNU7|54=1|55=TNU7|60=20170803-22:03:04.631|76=BAML|113=Y|150=0|151=500|167=FUT|200=201709|10=044|
20170803-22:03:04.637 : 8=FIX.4.2|9=310|35=8|34=27|49=PRODCH|52=20170803-22:03:04.637|56=TEST|57=Cert|1=TEST|6=0|11=180304457905TNU727closertest18.03.01.d03.closerUS|14=0|17=CLSR_CH1OU4QL4I|20=0|22=8|31=0|32=0|37=00000022__PRODCH|38=300|39=0|48=TNU7|54=1|55=TNU7|60=20170803-22:03:04.636|76=BAML|113=Y|150=0|151=300|167=FUT|200=201709|10=061|
20170803-22:03:04.639 : 8=FIX.4.2|9=310|35=8|34=28|49=PRODCH|52=20170803-22:03:04.639|56=TEST|57=Cert|1=TEST|6=0|11=180304554754CLU728closertest18.03.01.d03.closerUS|14=0|17=CLSR_CH1OU4QL4J|20=0|22=8|31=0|32=0|37=00000023__PRODCH|38=500|39=0|48=CLU7|54=1|55=CLU7|60=20170803-22:03:04.638|76=BAML|113=Y|150=0|151=500|167=FUT|200=201709|10=016|
20170803-22:03:04.643 : 8=FIX.4.2|9=216|35=D|34=30|49=TEST|50=Cert|52=20170803-22:03:04.634|56=PRODCH|1=TEST|11=180304633169CLU729closertest18.03.01.d03.closerUS|21=2|22=8|38=300|40=1|48=CLU7|54=1|55=CLU7|59=0|60=20170803-22:03:04|100=2|847=1006|10=090|
20170803-22:03:04.646 : 8=FIX.4.2|9=306|35=8|34=29|49=PRODCH|52=20170803-22:03:04.646|56=TEST|57=Cert|1=TEST|6=0|11=180304593902ZNU712morntestbolt18.03.01.d03.cme.probe|14=0|17=B_CH1OU4QL42|20=0|22=8|31=0|32=0|37=00000024__PRODCH|38=5|39=0|48=ZNU7|54=1|55=ZNU7|60=20170803-22:03:04.644|76=BAML|113=Y|150=0|151=5|167=FUT|200=201709|10=186|
20170803-22:03:04.646 : 8=FIX.4.2|9=310|35=8|34=30|49=PRODCH|52=20170803-22:03:04.646|56=TEST|57=Cert|1=TEST|6=0|11=180304633169CLU729closertest18.03.01.d03.closerUS|14=0|17=CLSR_CH1OU4QL4K|20=0|22=8|31=0|32=0|37=00000025__PRODCH|38=300|39=0|48=CLU7|54=1|55=CLU7|60=20170803-22:03:04.645|76=BAML|113=Y|150=0|151=300|167=FUT|200=201709|10=003|
20170803-22:03:04.682 : 8=FIX.4.2|9=216|35=D|34=31|49=TEST|50=Cert|52=20170803-22:03:04.673|56=PRODCH|1=TEST|11=180304672925RBU730closertest18.03.01.d03.closerUS|21=2|22=8|38=200|40=1|48=RBU7|54=1|55=RBU7|59=0|60=20170803-22:03:04|100=2|847=1006|10=103|
20170803-22:03:04.687 : 8=FIX.4.2|9=310|35=8|34=31|49=PRODCH|52=20170803-22:03:04.687|56=TEST|57=Cert|1=TEST|6=0|11=180304672925RBU730closertest18.03.01.d03.closerUS|14=0|17=CLSR_CH1OU4QL4L|20=0|22=8|31=0|32=0|37=00000026__PRODCH|38=200|39=0|48=RBU7|54=1|55=RBU7|60=20170803-22:03:04.686|76=BAML|113=Y|150=0|151=200|167=FUT|200=201709|10=024|
20170803-22:03:04.780 : 8=FIX.4.2|9=216|35=D|34=32|49=TEST|50=Cert|52=20170803-22:03:04.771|56=PRODCH|1=TEST|11=180304770589RBU731closertest18.03.01.d03.closerUS|21=2|22=8|38=100|40=1|48=RBU7|54=1|55=RBU7|59=0|60=20170803-22:03:04|100=2|847=1006|10=108|
20170803-22:03:04.784 : 8=FIX.4.2|9=310|35=8|34=32|49=PRODCH|52=20170803-22:03:04.784|56=TEST|57=Cert|1=TEST|6=0|11=180304770589RBU731closertest18.03.01.d03.closerUS|14=0|17=CLSR_CH1OU4QL4M|20=0|22=8|31=0|32=0|37=00000027__PRODCH|38=100|39=0|48=RBU7|54=1|55=RBU7|60=20170803-22:03:04.783|76=BAML|113=Y|150=0|151=100|167=FUT|200=201709|10=027|
20170803-22:03:04.819 : 8=FIX.4.2|9=243|35=D|34=33|49=TEST|50=Cert|52=20170803-22:03:04.810|56=PRODCH|1=TEST|11=180304809866ZNU713stroberj18.03.01.d03.cme.probe|21=2|22=8|38=50|40=1|44=0|48=ZNU7|54=1|55=ZNU7|59=0|60=20170803-22:03:04|100=2|847=1001|8561=99|8563=1|8565=.5|10=038|
20170803-22:03:04.874 : 8=FIX.4.2|9=216|35=D|34=34|49=TEST|50=Cert|52=20170803-22:03:04.849|56=PRODCH|1=TEST|11=180304848801HOU732closertest18.03.01.d03.closerUS|21=2|22=8|38=200|40=1|48=HOU7|54=1|55=HOU7|59=0|60=20170803-22:03:04|100=2|847=1006|10=120|
20170803-22:03:04.879 : 8=FIX.4.2|9=310|35=8|34=33|49=PRODCH|52=20170803-22:03:04.879|56=TEST|57=Cert|1=TEST|6=0|11=180304848801HOU732closertest18.03.01.d03.closerUS|14=0|17=CLSR_CH1OU4QL4N|20=0|22=8|31=0|32=0|37=00000029__PRODCH|38=200|39=0|48=HOU7|54=1|55=HOU7|60=20170803-22:03:04.877|76=BAML|113=Y|150=0|151=200|167=FUT|200=201709|10=045|
20170803-22:03:04.889 : 8=FIX.4.2|9=304|35=8|34=34|49=PRODCH|52=20170803-22:03:04.889|56=TEST|57=Cert|1=TEST|6=0|11=180304809866ZNU713stroberj18.03.01.d03.cme.probe|14=0|17=S_CH1OU4QL42|20=0|22=8|31=0|32=0|37=00000028__PRODCH|38=50|39=0|48=ZNU7|54=1|55=ZNU7|60=20170803-22:03:04.889|76=BAML|113=Y|150=0|151=50|167=FUT|200=201709|10=133|
20170803-22:03:04.898 : 8=FIX.4.2|9=216|35=D|34=35|49=TEST|50=Cert|52=20170803-22:03:04.889|56=PRODCH|1=TEST|11=180304888545HOU733closertest18.03.01.d03.closerUS|21=2|22=8|38=100|40=1|48=HOU7|54=1|55=HOU7|59=0|60=20170803-22:03:04|100=2|847=1006|10=134|
20170803-22:03:04.901 : 8=FIX.4.2|9=310|35=8|34=35|49=PRODCH|52=20170803-22:03:04.901|56=TEST|57=Cert|1=TEST|6=0|11=180304888545HOU733closertest18.03.01.d03.closerUS|14=0|17=CLSR_CH1OU4QL4O|20=0|22=8|31=0|32=0|37=00000030__PRODCH|38=100|39=0|48=HOU7|54=1|55=HOU7|60=20170803-22:03:04.900|76=BAML|113=Y|150=0|151=100|167=FUT|200=201709|10=021|
20170803-22:03:04.938 : 8=FIX.4.2|9=216|35=D|34=36|49=TEST|50=Cert|52=20170803-22:03:04.929|56=PRODCH|1=TEST|11=180304928218NGU734closertest18.03.01.d03.closerUS|21=2|22=8|38=200|40=1|48=NGU7|54=1|55=NGU7|59=0|60=20170803-22:03:04|100=2|847=1006|10=118|
20170803-22:03:04.941 : 8=FIX.4.2|9=310|35=8|34=36|49=PRODCH|52=20170803-22:03:04.941|56=TEST|57=Cert|1=TEST|6=0|11=180304928218NGU734closertest18.03.01.d03.closerUS|14=0|17=CLSR_CH1OU4QL4P|20=0|22=8|31=0|32=0|37=00000031__PRODCH|38=200|39=0|48=NGU7|54=1|55=NGU7|60=20170803-22:03:04.940|76=BAML|113=Y|150=0|151=200|167=FUT|200=201709|10=021|
20170803-22:03:04.978 : 8=FIX.4.2|9=216|35=D|34=37|49=TEST|50=Cert|52=20170803-22:03:04.969|56=PRODCH|1=TEST|11=180304968313NGU735closertest18.03.01.d03.closerUS|21=2|22=8|38=100|40=1|48=NGU7|54=1|55=NGU7|59=0|60=20170803-22:03:04|100=2|847=1006|10=123|
20170803-22:03:04.981 : 8=FIX.4.2|9=310|35=8|34=37|49=PRODCH|52=20170803-22:03:04.981|56=TEST|57=Cert|1=TEST|6=0|11=180304968313NGU735closertest18.03.01.d03.closerUS|14=0|17=CLSR_CH1OU4QL4Q|20=0|22=8|31=0|32=0|37=00000032__PRODCH|38=100|39=0|48=NGU7|54=1|55=NGU7|60=20170803-22:03:04.980|76=BAML|113=Y|150=0|151=100|167=FUT|200=201709|10=031|
20170803-22:03:05.018 : 8=FIX.4.2|9=216|35=D|34=38|49=TEST|50=Cert|52=20170803-22:03:05.009|56=PRODCH|1=TEST|11=180305008031CLV736closertest18.03.01.d03.closerUS|21=2|22=8|38=500|40=1|48=CLV7|54=1|55=CLV7|59=0|60=20170803-22:03:05|100=2|847=1006|10=084|
20170803-22:03:05.029 : 8=FIX.4.2|9=310|35=8|34=38|49=PRODCH|52=20170803-22:03:05.029|56=TEST|57=Cert|1=TEST|6=0|11=180305008031CLV736closertest18.03.01.d03.closerUS|14=0|17=CLSR_CH1OU4QL5R|20=0|22=8|31=0|32=0|37=00000033__PRODCH|38=500|39=0|48=CLV7|54=1|55=CLV7|60=20170803-22:03:05.028|76=BAML|113=Y|150=0|151=500|167=FUT|200=201710|10=248|
20170803-22:03:05.057 : 8=FIX.4.2|9=216|35=D|34=39|49=TEST|50=Cert|52=20170803-22:03:05.048|56=PRODCH|1=TEST|11=180305046994CLV737closertest18.03.01.d03.closerUS|21=2|22=8|38=300|40=1|48=CLV7|54=1|55=CLV7|59=0|60=20170803-22:03:05|100=2|847=1006|10=107|
20170803-22:03:05.062 : 8=FIX.4.2|9=310|35=8|34=39|49=PRODCH|52=20170803-22:03:05.062|56=TEST|57=Cert|1=TEST|6=0|11=180305046994CLV737closertest18.03.01.d03.closerUS|14=0|17=CLSR_CH1OU4QL5S|20=0|22=8|31=0|32=0|37=00000034__PRODCH|38=300|39=0|48=CLV7|54=1|55=CLV7|60=20170803-22:03:05.062|76=BAML|113=Y|150=0|151=300|167=FUT|200=201710|10=007|
20170803-22:03:05.098 : 8=FIX.4.2|9=216|35=D|34=40|49=TEST|50=Cert|52=20170803-22:03:05.088|56=PRODCH|1=TEST|11=180305087426RBV738closertest18.03.01.d03.closerUS|21=2|22=8|38=200|40=1|48=RBV7|54=1|55=RBV7|59=0|60=20170803-22:03:05|100=2|847=1006|10=113|
20170803-22:03:05.115 : 8=FIX.4.2|9=310|35=8|34=40|49=PRODCH|52=20170803-22:03:05.115|56=TEST|57=Cert|1=TEST|6=0|11=180305087426RBV738closertest18.03.01.d03.closerUS|14=0|17=CLSR_CH1OU4QL5T|20=0|22=8|31=0|32=0|37=00000035__PRODCH|38=200|39=0|48=RBV7|54=1|55=RBV7|60=20170803-22:03:05.114|76=BAML|113=Y|150=0|151=200|167=FUT|200=201710|10=007|
20170803-22:03:05.138 : 8=FIX.4.2|9=216|35=D|34=41|49=TEST|50=Cert|52=20170803-22:03:05.129|56=PRODCH|1=TEST|11=180305128605RBV739closertest18.03.01.d03.closerUS|21=2|22=8|38=100|40=1|48=RBV7|54=1|55=RBV7|59=0|60=20170803-22:03:05|100=2|847=1006|10=105|
20170803-22:03:05.142 : 8=FIX.4.2|9=310|35=8|34=41|49=PRODCH|52=20170803-22:03:05.142|56=TEST|57=Cert|1=TEST|6=0|11=180305128605RBV739closertest18.03.01.d03.closerUS|14=0|17=CLSR_CH1OU4QL5U|20=0|22=8|31=0|32=0|37=00000036__PRODCH|38=100|39=0|48=RBV7|54=1|55=RBV7|60=20170803-22:03:05.141|76=BAML|113=Y|150=0|151=100|167=FUT|200=201710|10=004|
20170803-22:03:05.178 : 8=FIX.4.2|9=216|35=D|34=42|49=TEST|50=Cert|52=20170803-22:03:05.169|56=PRODCH|1=TEST|11=180305168169HOV740closertest18.03.01.d03.closerUS|21=2|22=8|38=200|40=1|48=HOV7|54=1|55=HOV7|59=0|60=20170803-22:03:05|100=2|847=1006|10=121|
20170803-22:03:05.195 : 8=FIX.4.2|9=310|35=8|34=42|49=PRODCH|52=20170803-22:03:05.195|56=TEST|57=Cert|1=TEST|6=0|11=180305168169HOV740closertest18.03.01.d03.closerUS|14=0|17=CLSR_CH1OU4QL5V|20=0|22=8|31=0|32=0|37=00000037__PRODCH|38=200|39=0|48=HOV7|54=1|55=HOV7|60=20170803-22:03:05.194|76=BAML|113=Y|150=0|151=200|167=FUT|200=201710|10=035|
20170803-22:03:05.217 : 8=FIX.4.2|9=216|35=D|34=43|49=TEST|50=Cert|52=20170803-22:03:05.208|56=PRODCH|1=TEST|11=180305207238HOV741closertest18.03.01.d03.closerUS|21=2|22=8|38=100|40=1|48=HOV7|54=1|55=HOV7|59=0|60=20170803-22:03:05|100=2|847=1006|10=107|
20170803-22:03:05.225 : 8=FIX.4.2|9=310|35=8|34=43|49=PRODCH|52=20170803-22:03:05.225|56=TEST|57=Cert|1=TEST|6=0|11=180305207238HOV741closertest18.03.01.d03.closerUS|14=0|17=CLSR_CH1OU4QL5W|20=0|22=8|31=0|32=0|37=00000038__PRODCH|38=100|39=0|48=HOV7|54=1|55=HOV7|60=20170803-22:03:05.224|76=BAML|113=Y|150=0|151=100|167=FUT|200=201710|10=016|
20170803-22:03:05.256 : 8=FIX.4.2|9=216|35=D|34=44|49=TEST|50=Cert|52=20170803-22:03:05.247|56=PRODCH|1=TEST|11=180305246501NGV742closertest18.03.01.d03.closerUS|21=2|22=8|38=200|40=1|48=NGV7|54=1|55=NGV7|59=0|60=20170803-22:03:05|100=2|847=1006|10=103|
20170803-22:03:05.265 : 8=FIX.4.2|9=310|35=8|34=44|49=PRODCH|52=20170803-22:03:05.265|56=TEST|57=Cert|1=TEST|6=0|11=180305246501NGV742closertest18.03.01.d03.closerUS|14=0|17=CLSR_CH1OU4QL5X|20=0|22=8|31=0|32=0|37=00000039__PRODCH|38=200|39=0|48=NGV7|54=1|55=NGV7|60=20170803-22:03:05.264|76=BAML|113=Y|150=0|151=200|167=FUT|200=201710|10=020|
20170803-22:03:05.296 : 8=FIX.4.2|9=216|35=D|34=45|49=TEST|50=Cert|52=20170803-22:03:05.287|56=PRODCH|1=TEST|11=180305286090NGV743closertest18.03.01.d03.closerUS|21=2|22=8|38=100|40=1|48=NGV7|54=1|55=NGV7|59=0|60=20170803-22:03:05|100=2|847=1006|10=115|
20170803-22:03:05.299 : 8=FIX.4.2|9=310|35=8|34=45|49=PRODCH|52=20170803-22:03:05.299|56=TEST|57=Cert|1=TEST|6=0|11=180305286090NGV743closertest18.03.01.d03.closerUS|14=0|17=CLSR_CH1OU4QL5Y|20=0|22=8|31=0|32=0|37=00000040__PRODCH|38=100|39=0|48=NGV7|54=1|55=NGV7|60=20170803-22:03:05.298|76=BAML|113=Y|150=0|151=100|167=FUT|200=201710|10=034|
20170803-22:03:35.165 : 8=FIX.4.2|9=59|35=0|34=46|49=TEST|52=20170803-22:03:35.156|56=PRODCH|10=150|
20170803-22:03:35.166 : 8=FIX.4.2|9=59|35=0|34=46|49=PRODCH|52=20170803-22:03:35.166|56=TEST|10=151|
20170803-22:04:05.195 : 8=FIX.4.2|9=59|35=0|34=47|49=PRODCH|52=20170803-22:04:05.195|56=TEST|10=152|
20170803-22:04:05.211 : 8=FIX.4.2|9=59|35=0|34=47|49=TEST|52=20170803-22:04:05.202|56=PRODCH|10=141|
20170803-22:04:35.240 : 8=FIX.4.2|9=59|35=0|34=48|49=PRODCH|52=20170803-22:04:35.240|56=TEST|10=147|
20170803-22:04:35.256 : 8=FIX.4.2|9=59|35=0|34=48|49=TEST|52=20170803-22:04:35.247|56=PRODCH|10=154|
20170803-22:05:05.285 : 8=FIX.4.2|9=59|35=0|34=49|49=PRODCH|52=20170803-22:05:05.285|56=TEST|10=155|
20170803-22:05:05.301 : 8=FIX.4.2|9=59|35=0|34=49|49=TEST|52=20170803-22:05:05.292|56=PRODCH|10=153|
20170803-22:05:26.051 : 8=FIX.4.2|9=217|35=F|34=50|49=TEST|50=Cert|52=20170803-22:05:26.042|56=PRODCH|1=TEST|11=180526033212ZNU711|22=8|38=500|41=180303277438ZNU710closertest18.03.01.d03.closerUS|54=1|55=ZNU7|60=20170803-22:05:26|100=2|847=1006|10=118|
20170803-22:05:26.055 : 8=FIX.4.2|9=332|35=8|34=50|49=PRODCH|52=20170803-22:05:26.055|56=TEST|57=Cert|1=TEST|6=0|11=180526033212ZNU711|14=0|17=CLSR_CH1OU4QP2Z|20=0|22=8|31=0|32=0|37=00000003__PRODCH|38=500|39=4|41=180303277438ZNU710closertest18.03.01.d03.closerUS|48=ZNU7|54=1|55=ZNU7|60=20170803-22:05:26.054|76=BAML|113=Y|150=4|151=0|167=FUT|200=201709|10=045|
20170803-22:05:26.058 : 8=FIX.4.2|9=217|35=F|34=51|49=TEST|50=Cert|52=20170803-22:05:26.043|56=PRODCH|1=TEST|11=180526042628ZNU713|22=8|38=300|41=180303330235ZNU711closertest18.03.01.d03.closerUS|54=1|55=ZNU7|60=20170803-22:05:26|100=2|847=1006|10=117|
20170803-22:05:26.058 : 8=FIX.4.2|9=217|35=F|34=52|49=TEST|50=Cert|52=20170803-22:05:26.044|56=PRODCH|1=TEST|11=180526043778ZBU715|22=8|38=500|41=180303377680ZBU712closertest18.03.01.d03.closerUS|54=1|55=ZBU7|60=20170803-22:05:26|100=2|847=1006|10=110|
20170803-22:05:26.058 : 8=FIX.4.2|9=217|35=F|34=53|49=TEST|50=Cert|52=20170803-22:05:26.045|56=PRODCH|1=TEST|11=180526044930ZBU717|22=8|38=300|41=180303425763ZBU713closertest18.03.01.d03.closerUS|54=1|55=ZBU7|60=20170803-22:05:26|100=2|847=1006|10=100|
20170803-22:05:26.058 : 8=FIX.4.2|9=217|35=F|34=54|49=TEST|50=Cert|52=20170803-22:05:26.046|56=PRODCH|1=TEST|11=180526046058ZTU719|22=8|38=500|41=180303472193ZTU714closertest18.03.01.d03.closerUS|54=1|55=ZTU7|60=20170803-22:05:26|100=2|847=1006|10=163|
20170803-22:05:26.058 : 8=FIX.4.2|9=217|35=F|34=55|49=TEST|50=Cert|52=20170803-22:05:26.048|56=PRODCH|1=TEST|11=180526047186ZTU721|22=8|38=300|41=180303567749ZTU715closertest18.03.01.d03.closerUS|54=1|55=ZTU7|60=20170803-22:05:26|100=2|847=1006|10=173|
20170803-22:05:26.059 : 8=FIX.4.2|9=333|35=8|34=51|49=PRODCH|52=20170803-22:05:26.059|56=TEST|57=Cert|1=TEST|6=0|11=180526042628ZNU713|14=0|17=CLSR_CH1OU4QP210|20=0|22=8|31=0|32=0|37=00000004__PRODCH|38=300|39=4|41=180303330235ZNU711closertest18.03.01.d03.closerUS|48=ZNU7|54=1|55=ZNU7|60=20170803-22:05:26.058|76=BAML|113=Y|150=4|151=0|167=FUT|200=201709|10=060|
20170803-22:05:26.059 : 8=FIX.4.2|9=333|35=8|34=52|49=PRODCH|52=20170803-22:05:26.059|56=TEST|57=Cert|1=TEST|6=0|11=180526043778ZBU715|14=0|17=CLSR_CH1OU4QP211|20=0|22=8|31=0|32=0|37=00000005__PRODCH|38=500|39=4|41=180303377680ZBU712closertest18.03.01.d03.closerUS|48=ZBU7|54=1|55=ZBU7|60=20170803-22:05:26.059|76=BAML|113=Y|150=4|151=0|167=FUT|200=201709|10=043|
20170803-22:05:26.060 : 8=FIX.4.2|9=333|35=8|34=53|49=PRODCH|52=20170803-22:05:26.060|56=TEST|57=Cert|1=TEST|6=0|11=180526044930ZBU717|14=0|17=CLSR_CH1OU4QP212|20=0|22=8|31=0|32=0|37=00000006__PRODCH|38=300|39=4|41=180303425763ZBU713closertest18.03.01.d03.closerUS|48=ZBU7|54=1|55=ZBU7|60=20170803-22:05:26.060|76=BAML|113=Y|150=4|151=0|167=FUT|200=201709|10=018|
20170803-22:05:26.061 : 8=FIX.4.2|9=333|35=8|34=54|49=PRODCH|52=20170803-22:05:26.061|56=TEST|57=Cert|1=TEST|6=0|11=180526046058ZTU719|14=0|17=CLSR_CH1OU4QP213|20=0|22=8|31=0|32=0|37=00000007__PRODCH|38=500|39=4|41=180303472193ZTU714closertest18.03.01.d03.closerUS|48=ZTU7|54=1|55=ZTU7|60=20170803-22:05:26.060|76=BAML|113=Y|150=4|151=0|167=FUT|200=201709|10=101|
20170803-22:05:26.061 : 8=FIX.4.2|9=333|35=8|34=55|49=PRODCH|52=20170803-22:05:26.061|56=TEST|57=Cert|1=TEST|6=0|11=180526047186ZTU721|14=0|17=CLSR_CH1OU4QP214|20=0|22=8|31=0|32=0|37=00000008__PRODCH|38=300|39=4|41=180303567749ZTU715closertest18.03.01.d03.closerUS|48=ZTU7|54=1|55=ZTU7|60=20170803-22:05:26.060|76=BAML|113=Y|150=4|151=0|167=FUT|200=201709|10=111|
20170803-22:05:26.064 : 8=FIX.4.2|9=217|35=F|34=56|49=TEST|50=Cert|52=20170803-22:05:26.049|56=PRODCH|1=TEST|11=180526048402ZFU723|22=8|38=500|41=180303666211ZFU716closertest18.03.01.d03.closerUS|54=1|55=ZFU7|60=20170803-22:05:26|100=2|847=1006|10=114|
20170803-22:05:26.064 : 8=FIX.4.2|9=217|35=F|34=57|49=TEST|50=Cert|52=20170803-22:05:26.050|56=PRODCH|1=TEST|11=180526049440ZFU725|22=8|38=300|41=180303764712ZFU717closertest18.03.01.d03.closerUS|54=1|55=ZFU7|60=20170803-22:05:26|100=2|847=1006|10=116|
20170803-22:05:26.064 : 8=FIX.4.2|9=217|35=F|34=58|49=TEST|50=Cert|52=20170803-22:05:26.051|56=PRODCH|1=TEST|11=180526050475UBU727|22=8|38=500|41=180303809265UBU718closertest18.03.01.d03.closerUS|54=1|55=UBU7|60=20170803-22:05:26|100=2|847=1006|10=099|
20170803-22:05:26.064 : 8=FIX.4.2|9=217|35=F|34=59|49=TEST|50=Cert|52=20170803-22:05:26.052|56=PRODCH|1=TEST|11=180526051521UBU729|22=8|38=300|41=180303918436UBU719closertest18.03.01.d03.closerUS|54=1|55=UBU7|60=20170803-22:05:26|100=2|847=1006|10=096|
20170803-22:05:26.064 : 8=FIX.4.2|9=217|35=F|34=60|49=TEST|50=Cert|52=20170803-22:05:26.053|56=PRODCH|1=TEST|11=180526052572ESU731|22=8|38=500|41=180303968898ESU720closertest18.03.01.d03.closerUS|54=1|55=ESU7|60=20170803-22:05:26|100=2|847=1006|10=103|
20170803-22:05:26.064 : 8=FIX.4.2|9=217|35=F|34=61|49=TEST|50=Cert|52=20170803-22:05:26.054|56=PRODCH|1=TEST|11=180526053612ESU733|22=8|38=300|41=180304009785ESU721closertest18.03.01.d03.closerUS|54=1|55=ESU7|60=20170803-22:05:26|100=2|847=1006|10=084|
20170803-22:05:26.065 : 8=FIX.4.2|9=333|35=8|34=56|49=PRODCH|52=20170803-22:05:26.065|56=TEST|57=Cert|1=TEST|6=0|11=180526048402ZFU723|14=0|17=CLSR_CH1OU4QP215|20=0|22=8|31=0|32=0|37=00000009__PRODCH|38=500|39=4|41=180303666211ZFU716closertest18.03.01.d03.closerUS|48=ZFU7|54=1|55=ZFU7|60=20170803-22:05:26.064|76=BAML|113=Y|150=4|151=0|167=FUT|200=201709|10=047|
20170803-22:05:26.066 : 8=FIX.4.2|9=217|35=F|34=62|49=TEST|50=Cert|52=20170803-22:05:26.055|56=PRODCH|1=TEST|11=180526054652NQU735|22=8|38=500|41=180304114500NQU722closertest18.03.01.d03.closerUS|54=1|55=NQU7|60=20170803-22:05:26|100=2|847=1006|10=099|
20170803-22:05:26.068 : 8=FIX.4.2|9=333|35=8|34=57|49=PRODCH|52=20170803-22:05:26.068|56=TEST|57=Cert|1=TEST|6=0|11=180526049440ZFU725|14=0|17=CLSR_CH1OU4QP216|20=0|22=8|31=0|32=0|37=00000010__PRODCH|38=300|39=4|41=180303764712ZFU717closertest18.03.01.d03.closerUS|48=ZFU7|54=1|55=ZFU7|60=20170803-22:05:26.066|76=BAML|113=Y|150=4|151=0|167=FUT|200=201709|10=055|
20170803-22:05:26.068 : 8=FIX.4.2|9=217|35=F|34=63|49=TEST|50=Cert|52=20170803-22:05:26.056|56=PRODCH|1=TEST|11=180526055715NQU737|22=8|38=300|41=180304201921NQU723closertest18.03.01.d03.closerUS|54=1|55=NQU7|60=20170803-22:05:26|100=2|847=1006|10=107|
20170803-22:05:26.068 : 8=FIX.4.2|9=333|35=8|34=58|49=PRODCH|52=20170803-22:05:26.068|56=TEST|57=Cert|1=TEST|6=0|11=180526050475UBU727|14=0|17=CLSR_CH1OU4QP217|20=0|22=8|31=0|32=0|37=00000011__PRODCH|38=500|39=4|41=180303809265UBU718closertest18.03.01.d03.closerUS|48=UBU7|54=1|55=UBU7|60=20170803-22:05:26.066|76=BAML|113=Y|150=4|151=0|167=FUT|200=201709|10=030|
20170803-22:05:26.068 : 8=FIX.4.2|9=217|35=F|34=64|49=TEST|50=Cert|52=20170803-22:05:26.057|56=PRODCH|1=TEST|11=180526056768YMU739|22=8|38=500|41=180304241767YMU724closertest18.03.01.d03.closerUS|54=1|55=YMU7|60=20170803-22:05:26|100=2|847=1006|10=156|
20170803-22:05:26.068 : 8=FIX.4.2|9=333|35=8|34=59|49=PRODCH|52=20170803-22:05:26.068|56=TEST|57=Cert|1=TEST|6=0|11=180526051521UBU729|14=0|17=CLSR_CH1OU4QP218|20=0|22=8|31=0|32=0|37=00000012__PRODCH|38=300|39=4|41=180303918436UBU719closertest18.03.01.d03.closerUS|48=UBU7|54=1|55=UBU7|60=20170803-22:05:26.066|76=BAML|113=Y|150=4|151=0|167=FUT|200=201709|10=028|
20170803-22:05:26.068 : 8=FIX.4.2|9=333|35=8|34=60|49=PRODCH|52=20170803-22:05:26.068|56=TEST|57=Cert|1=TEST|6=0|11=180526052572ESU731|14=0|17=CLSR_CH1OU4QP219|20=0|22=8|31=0|32=0|37=00000013__PRODCH|38=500|39=4|41=180303968898ESU720closertest18.03.01.d03.closerUS|48=ESU7|54=1|55=ESU7|60=20170803-22:05:26.067|76=BAML|113=Y|150=4|151=0|167=FUT|200=201709|10=038|
20170803-22:05:26.069 : 8=FIX.4.2|9=333|35=8|34=61|49=PRODCH|52=20170803-22:05:26.069|56=TEST|57=Cert|1=TEST|6=0|11=180526053612ESU733|14=0|17=CLSR_CH1OU4QP21A|20=0|22=8|31=0|32=0|37=00000014__PRODCH|38=300|39=4|41=180304009785ESU721closertest18.03.01.d03.closerUS|48=ESU7|54=1|55=ESU7|60=20170803-22:05:26.068|76=BAML|113=Y|150=4|151=0|167=FUT|200=201709|10=029|
20170803-22:05:26.070 : 8=FIX.4.2|9=333|35=8|34=62|49=PRODCH|52=20170803-22:05:26.070|56=TEST|57=Cert|1=TEST|6=0|11=180526054652NQU735|14=0|17=CLSR_CH1OU4QP21B|20=0|22=8|31=0|32=0|37=00000015__PRODCH|38=500|39=4|41=180304114500NQU722closertest18.03.01.d03.closerUS|48=NQU7|54=1|55=NQU7|60=20170803-22:05:26.069|76=BAML|113=Y|150=4|151=0|167=FUT|200=201709|10=045|
20170803-22:05:26.071 : 8=FIX.4.2|9=333|35=8|34=63|49=PRODCH|52=20170803-22:05:26.070|56=TEST|57=Cert|1=TEST|6=0|11=180526055715NQU737|14=0|17=CLSR_CH1OU4QP21C|20=0|22=8|31=0|32=0|37=00000017__PRODCH|38=300|39=4|41=180304201921NQU723closertest18.03.01.d03.closerUS|48=NQU7|54=1|55=NQU7|60=20170803-22:05:26.070|76=BAML|113=Y|150=4|151=0|167=FUT|200=201709|10=047|
20170803-22:05:26.071 : 8=FIX.4.2|9=333|35=8|34=64|49=PRODCH|52=20170803-22:05:26.071|56=TEST|57=Cert|1=TEST|6=0|11=180526056768YMU739|14=0|17=CLSR_CH1OU4QP21D|20=0|22=8|31=0|32=0|37=00000018__PRODCH|38=500|39=4|41=180304241767YMU724closertest18.03.01.d03.closerUS|48=YMU7|54=1|55=YMU7|60=20170803-22:05:26.070|76=BAML|113=Y|150=4|151=0|167=FUT|200=201709|10=105|
20170803-22:05:26.074 : 8=FIX.4.2|9=217|35=F|34=65|49=TEST|50=Cert|52=20170803-22:05:26.058|56=PRODCH|1=TEST|11=180526057846YMU741|22=8|38=300|41=180304339898YMU725closertest18.03.01.d03.closerUS|54=1|55=YMU7|60=20170803-22:05:26|100=2|847=1006|10=161|
20170803-22:05:26.074 : 8=FIX.4.2|9=217|35=F|34=66|49=TEST|50=Cert|52=20170803-22:05:26.059|56=PRODCH|1=TEST|11=180526059073TNU743|22=8|38=500|41=180304418208TNU726closertest18.03.01.d03.closerUS|54=1|55=TNU7|60=20170803-22:05:26|100=2|847=1006|10=133|
20170803-22:05:26.074 : 8=FIX.4.2|9=217|35=F|34=67|49=TEST|50=Cert|52=20170803-22:05:26.061|56=PRODCH|1=TEST|11=180526060246TNU745|22=8|38=300|41=180304457905TNU727closertest18.03.01.d03.closerUS|54=1|55=TNU7|60=20170803-22:05:26|100=2|847=1006|10=129|
20170803-22:05:26.074 : 8=FIX.4.2|9=217|35=F|34=68|49=TEST|50=Cert|52=20170803-22:05:26.062|56=PRODCH|1=TEST|11=180526061465CLU747|22=8|38=500|41=180304554754CLU728closertest18.03.01.d03.closerUS|54=1|55=CLU7|60=20170803-22:05:26|100=2|847=1006|10=083|
20170803-22:05:26.074 : 8=FIX.4.2|9=217|35=F|34=69|49=TEST|50=Cert|52=20170803-22:05:26.063|56=PRODCH|1=TEST|11=180526062774CLU749|22=8|38=300|41=180304633169CLU729closertest18.03.01.d03.closerUS|54=1|55=CLU7|60=20170803-22:05:26|100=2|847=1006|10=088|
20170803-22:05:26.074 : 8=FIX.4.2|9=333|35=8|34=65|49=PRODCH|52=20170803-22:05:26.074|56=TEST|57=Cert|1=TEST|6=0|11=180526057846YMU741|14=0|17=CLSR_CH1OU4QP21E|20=0|22=8|31=0|32=0|37=00000019__PRODCH|38=300|39=4|41=180304339898YMU725closertest18.03.01.d03.closerUS|48=YMU7|54=1|55=YMU7|60=20170803-22:05:26.074|76=BAML|113=Y|150=4|151=0|167=FUT|200=201709|10=118|
20170803-22:05:26.075 : 8=FIX.4.2|9=333|35=8|34=66|49=PRODCH|52=20170803-22:05:26.075|56=TEST|57=Cert|1=TEST|6=0|11=180526059073TNU743|14=0|17=CLSR_CH1OU4QP21F|20=0|22=8|31=0|32=0|37=00000021__PRODCH|38=500|39=4|41=180304418208TNU726closertest18.03.01.d03.closerUS|48=TNU7|54=1|55=TNU7|60=20170803-22:05:26.074|76=BAML|113=Y|150=4|151=0|167=FUT|200=201709|10=080|
20170803-22:05:26.075 : 8=FIX.4.2|9=333|35=8|34=67|49=PRODCH|52=20170803-22:05:26.075|56=TEST|57=Cert|1=TEST|6=0|11=180526060246TNU745|14=0|17=CLSR_CH1OU4QP21G|20=0|22=8|31=0|32=0|37=00000022__PRODCH|38=300|39=4|41=180304457905TNU727closertest18.03.01.d03.closerUS|48=TNU7|54=1|55=TNU7|60=20170803-22:05:26.075|76=BAML|113=Y|150=4|151=0|167=FUT|200=201709|10=086|
20170803-22:05:26.076 : 8=FIX.4.2|9=333|35=8|34=68|49=PRODCH|52=20170803-22:05:26.076|56=TEST|57=Cert|1=TEST|6=0|11=180526061465CLU747|14=0|17=CLSR_CH1OU4QP21H|20=0|22=8|31=0|32=0|37=00000023__PRODCH|38=500|39=4|41=180304554754CLU728closertest18.03.01.d03.closerUS|48=CLU7|54=1|55=CLU7|60=20170803-22:05:26.075|76=BAML|113=Y|150=4|151=0|167=FUT|200=201709|10=023|
20170803-22:05:26.076 : 8=FIX.4.2|9=333|35=8|34=69|49=PRODCH|52=20170803-22:05:26.076|56=TEST|57=Cert|1=TEST|6=0|11=180526062774CLU749|14=0|17=CLSR_CH1OU4QP21I|20=0|22=8|31=0|32=0|37=00000025__PRODCH|38=300|39=4|41=180304633169CLU729closertest18.03.01.d03.closerUS|48=CLU7|54=1|55=CLU7|60=20170803-22:05:26.076|76=BAML|113=Y|150=4|151=0|167=FUT|200=201709|10=031|
20170803-22:05:26.081 : 8=FIX.4.2|9=217|35=F|34=70|49=TEST|50=Cert|52=20170803-22:05:26.065|56=PRODCH|1=TEST|11=180526064249RBU751|22=8|38=200|41=180304672925RBU730closertest18.03.01.d03.closerUS|54=1|55=RBU7|60=20170803-22:05:26|100=2|847=1006|10=083|
20170803-22:05:26.081 : 8=FIX.4.2|9=217|35=F|34=71|49=TEST|50=Cert|52=20170803-22:05:26.066|56=PRODCH|1=TEST|11=180526065505RBU753|22=8|38=100|41=180304770589RBU731closertest18.03.01.d03.closerUS|54=1|55=RBU7|60=20170803-22:05:26|100=2|847=1006|10=088|
20170803-22:05:26.081 : 8=FIX.4.2|9=217|35=F|34=72|49=TEST|50=Cert|52=20170803-22:05:26.067|56=PRODCH|1=TEST|11=180526066645HOU755|22=8|38=200|41=180304848801HOU732closertest18.03.01.d03.closerUS|54=1|55=HOU7|60=20170803-22:05:26|100=2|847=1006|10=102|
20170803-22:05:26.081 : 8=FIX.4.2|9=217|35=F|34=73|49=TEST|50=Cert|52=20170803-22:05:26.068|56=PRODCH|1=TEST|11=180526067811HOU757|22=8|38=100|41=180304888545HOU733closertest18.03.01.d03.closerUS|54=1|55=HOU7|60=20170803-22:05:26|100=2|847=1006|10=111|
20170803-22:05:26.081 : 8=FIX.4.2|9=217|35=F|34=74|49=TEST|50=Cert|52=20170803-22:05:26.070|56=PRODCH|1=TEST|11=180526069101NGU759|22=8|38=200|41=180304928218NGU734closertest18.03.01.d03.closerUS|54=1|55=NGU7|60=20170803-22:05:26|100=2|847=1006|10=089|
20170803-22:05:26.081 : 8=FIX.4.2|9=217|35=F|34=75|49=TEST|50=Cert|52=20170803-22:05:26.071|56=PRODCH|1=TEST|11=180526070401NGU761|22=8|38=100|41=180304968313NGU735closertest18.03.01.d03.closerUS|54=1|55=NGU7|60=20170803-22:05:26|100=2|847=1006|10=079|
20170803-22:05:26.082 : 8=FIX.4.2|9=333|35=8|34=70|49=PRODCH|52=20170803-22:05:26.082|56=TEST|57=Cert|1=TEST|6=0|11=180526064249RBU751|14=0|17=CLSR_CH1OU4QP21J|20=0|22=8|31=0|32=0|37=00000026__PRODCH|38=200|39=4|41=180304672925RBU730closertest18.03.01.d03.closerUS|48=RBU7|54=1|55=RBU7|60=20170803-22:05:26.081|76=BAML|113=Y|150=4|151=0|167=FUT|200=201709|10=024|
20170803-22:05:26.083 : 8=FIX.4.2|9=333|35=8|34=71|49=PRODCH|52=20170803-22:05:26.083|56=TEST|57=Cert|1=TEST|6=0|11=180526065505RBU753|14=0|17=CLSR_CH1OU4QP21K|20=0|22=8|31=0|32=0|37=00000027__PRODCH|38=100|39=4|41=180304770589RBU731closertest18.03.01.d03.closerUS|48=RBU7|54=1|55=RBU7|60=20170803-22:05:26.082|76=BAML|113=Y|150=4|151=0|167=FUT|200=201709|10=032|
20170803-22:05:26.083 : 8=FIX.4.2|9=333|35=8|34=72|49=PRODCH|52=20170803-22:05:26.083|56=TEST|57=Cert|1=TEST|6=0|11=180526066645HOU755|14=0|17=CLSR_CH1OU4QP21L|20=0|22=8|31=0|32=0|37=00000029__PRODCH|38=200|39=4|41=180304848801HOU732closertest18.03.01.d03.closerUS|48=HOU7|54=1|55=HOU7|60=20170803-22:05:26.082|76=BAML|113=Y|150=4|151=0|167=FUT|200=201709|10=051|
20170803-22:05:26.084 : 8=FIX.4.2|9=333|35=8|34=73|49=PRODCH|52=20170803-22:05:26.084|56=TEST|57=Cert|1=TEST|6=0|11=180526067811HOU757|14=0|17=CLSR_CH1OU4QP21M|20=0|22=8|31=0|32=0|37=00000030__PRODCH|38=100|39=4|41=180304888545HOU733closertest18.03.01.d03.closerUS|48=HOU7|54=1|55=HOU7|60=20170803-22:05:26.083|76=BAML|113=Y|150=4|151=0|167=FUT|200=201709|10=054|
20170803-22:05:26.084 : 8=FIX.4.2|9=217|35=F|34=76|49=TEST|50=Cert|52=20170803-22:05:26.072|56=PRODCH|1=TEST|11=180526071659CLV763|22=8|38=500|41=180305008031CLV736closertest18.03.01.d03.closerUS|54=1|55=CLV7|60=20170803-22:05:26|100=2|847=1006|10=072|
20170803-22:05:26.084 : 8=FIX.4.2|9=333|35=8|34=74|49=PRODCH|52=20170803-22:05:26.084|56=TEST|57=Cert|1=TEST|6=0|11=180526069101NGU759|14=0|17=CLSR_CH1OU4QP21N|20=0|22=8|31=0|32=0|37=00000031__PRODCH|38=200|39=4|41=180304928218NGU734closertest18.03.01.d03.closerUS|48=NGU7|54=1|55=NGU7|60=20170803-22:05:26.083|76=BAML|113=Y|150=4|151=0|167=FUT|200=201709|10=039|
20170803-22:05:26.085 : 8=FIX.4.2|9=333|35=8|34=75|49=PRODCH|52=20170803-22:05:26.085|56=TEST|57=Cert|1=TEST|6=0|11=180526070401NGU761|14=0|17=CLSR_CH1OU4QP21O|20=0|22=8|31=0|32=0|37=00000032__PRODCH|38=100|39=4|41=180304968313NGU735closertest18.03.01.d03.closerUS|48=NGU7|54=1|55=NGU7|60=20170803-22:05:26.084|76=BAML|113=Y|150=4|151=0|167=FUT|200=201709|10=032|
20170803-22:05:26.086 : 8=FIX.4.2|9=333|35=8|34=76|49=PRODCH|52=20170803-22:05:26.086|56=TEST|57=Cert|1=TEST|6=0|11=180526071659CLV763|14=0|17=CLSR_CH1OU4QP21P|20=0|22=8|31=0|32=0|37=00000033__PRODCH|38=500|39=4|41=180305008031CLV736closertest18.03.01.d03.closerUS|48=CLV7|54=1|55=CLV7|60=20170803-22:05:26.085|76=BAML|113=Y|150=4|151=0|167=FUT|200=201710|10=015|
20170803-22:05:26.089 : 8=FIX.4.2|9=217|35=F|34=77|49=TEST|50=Cert|52=20170803-22:05:26.073|56=PRODCH|1=TEST|11=180526072907CLV765|22=8|38=300|41=180305046994CLV737closertest18.03.01.d03.closerUS|54=1|55=CLV7|60=20170803-22:05:26|100=2|847=1006|10=092|
20170803-22:05:26.089 : 8=FIX.4.2|9=217|35=F|34=78|49=TEST|50=Cert|52=20170803-22:05:26.075|56=PRODCH|1=TEST|11=180526074195RBV767|22=8|38=200|41=180305087426RBV738closertest18.03.01.d03.closerUS|54=1|55=RBV7|60=20170803-22:05:26|100=2|847=1006|10=108|
20170803-22:05:26.089 : 8=FIX.4.2|9=217|35=F|34=79|49=TEST|50=Cert|52=20170803-22:05:26.076|56=PRODCH|1=TEST|11=180526075697RBV769|22=8|38=100|41=180305128605RBV739closertest18.03.01.d03.closerUS|54=1|55=RBV7|60=20170803-22:05:26|100=2|847=1006|10=115|
20170803-22:05:26.090 : 8=FIX.4.2|9=217|35=F|34=80|49=TEST|50=Cert|52=20170803-22:05:26.077|56=PRODCH|1=TEST|11=180526076967HOV771|22=8|38=200|41=180305168169HOV740closertest18.03.01.d03.closerUS|54=1|55=HOV7|60=20170803-22:05:26|100=2|847=1006|10=113|
20170803-22:05:26.090 : 8=FIX.4.2|9=217|35=F|34=81|49=TEST|50=Cert|52=20170803-22:05:26.079|56=PRODCH|1=TEST|11=180526078308HOV773|22=8|38=100|41=180305207238HOV741closertest18.03.01.d03.closerUS|54=1|55=HOV7|60=20170803-22:05:26|100=2|847=1006|10=100|
20170803-22:05:26.091 : 8=FIX.4.2|9=333|35=8|34=77|49=PRODCH|52=20170803-22:05:26.091|56=TEST|57=Cert|1=TEST|6=0|11=180526072907CLV765|14=0|17=CLSR_CH1OU4QP21Q|20=0|22=8|31=0|32=0|37=00000034__PRODCH|38=300|39=4|41=180305046994CLV737closertest18.03.01.d03.closerUS|48=CLV7|54=1|55=CLV7|60=20170803-22:05:26.090|76=BAML|113=Y|150=4|151=0|167=FUT|200=201710|10=028|
20170803-22:05:26.091 : 8=FIX.4.2|9=333|35=8|34=78|49=PRODCH|52=20170803-22:05:26.091|56=TEST|57=Cert|1=TEST|6=0|11=180526074195RBV767|14=0|17=CLSR_CH1OU4QP21R|20=0|22=8|31=0|32=0|37=00000035__PRODCH|38=200|39=4|41=180305087426RBV738closertest18.03.01.d03.closerUS|48=RBV7|54=1|55=RBV7|60=20170803-22:05:26.090|76=BAML|113=Y|150=4|151=0|167=FUT|200=201710|10=049|
20170803-22:05:26.092 : 8=FIX.4.2|9=333|35=8|34=79|49=PRODCH|52=20170803-22:05:26.092|56=TEST|57=Cert|1=TEST|6=0|11=180526075697RBV769|14=0|17=CLSR_CH1OU4QP21S|20=0|22=8|31=0|32=0|37=00000036__PRODCH|38=100|39=4|41=180305128605RBV739closertest18.03.01.d03.closerUS|48=RBV7|54=1|55=RBV7|60=20170803-22:05:26.091|76=BAML|113=Y|150=4|151=0|167=FUT|200=201710|10=059|
20170803-22:05:26.093 : 8=FIX.4.2|9=333|35=8|34=80|49=PRODCH|52=20170803-22:05:26.093|56=TEST|57=Cert|1=TEST|6=0|11=180526076967HOV771|14=0|17=CLSR_CH1OU4QP21T|20=0|22=8|31=0|32=0|37=00000037__PRODCH|38=200|39=4|41=180305168169HOV740closertest18.03.01.d03.closerUS|48=HOV7|54=1|55=HOV7|60=20170803-22:05:26.092|76=BAML|113=Y|150=4|151=0|167=FUT|200=201710|10=063|
20170803-22:05:26.093 : 8=FIX.4.2|9=333|35=8|34=81|49=PRODCH|52=20170803-22:05:26.093|56=TEST|57=Cert|1=TEST|6=0|11=180526078308HOV773|14=0|17=CLSR_CH1OU4QP21U|20=0|22=8|31=0|32=0|37=00000038__PRODCH|38=100|39=4|41=180305207238HOV741closertest18.03.01.d03.closerUS|48=HOV7|54=1|55=HOV7|60=20170803-22:05:26.093|76=BAML|113=Y|150=4|151=0|167=FUT|200=201710|10=051|
20170803-22:05:26.099 : 8=FIX.4.2|9=217|35=F|34=82|49=TEST|50=Cert|52=20170803-22:05:26.080|56=PRODCH|1=TEST|11=180526079672NGV775|22=8|38=200|41=180305246501NGV742closertest18.03.01.d03.closerUS|54=1|55=NGV7|60=20170803-22:05:26|100=2|847=1006|10=092|
20170803-22:05:26.099 : 8=FIX.4.2|9=217|35=F|34=83|49=TEST|50=Cert|52=20170803-22:05:26.081|56=PRODCH|1=TEST|11=180526080975NGV777|22=8|38=100|41=180305286090NGV743closertest18.03.01.d03.closerUS|54=1|55=NGV7|60=20170803-22:05:26|100=2|847=1006|10=101|
20170803-22:05:26.100 : 8=FIX.4.2|9=333|35=8|34=82|49=PRODCH|52=20170803-22:05:26.100|56=TEST|57=Cert|1=TEST|6=0|11=180526079672NGV775|14=0|17=CLSR_CH1OU4QP21V|20=0|22=8|31=0|32=0|37=00000039__PRODCH|38=200|39=4|41=180305246501NGV742closertest18.03.01.d03.closerUS|48=NGV7|54=1|55=NGV7|60=20170803-22:05:26.099|76=BAML|113=Y|150=4|151=0|167=FUT|200=201710|10=046|
20170803-22:05:26.100 : 8=FIX.4.2|9=333|35=8|34=83|49=PRODCH|52=20170803-22:05:26.100|56=TEST|57=Cert|1=TEST|6=0|11=180526080975NGV777|14=0|17=CLSR_CH1OU4QP21W|20=0|22=8|31=0|32=0|37=00000040__PRODCH|38=100|39=4|41=180305286090NGV743closertest18.03.01.d03.closerUS|48=NGV7|54=1|55=NGV7|60=20170803-22:05:26.099|76=BAML|113=Y|150=4|151=0|167=FUT|200=201710|10=047|
20170803-22:05:36.932 : 8=FIX.4.2|9=223|35=D|34=84|49=TEST|50=Cert|52=20170803-22:05:36.923|56=PRODCH|1=TEST|11=1805369212196AU710morntestbolt18.03.01.d03.cme|21=2|22=8|38=5|40=1|44=0|48=6AU7|54=2|55=6AU7|59=0|60=20170803-22:05:36|100=2|847=1002|8561=8|10=202|
20170803-22:05:36.935 : 8=FIX.4.2|9=300|35=8|34=84|49=PRODCH|52=20170803-22:05:36.935|56=TEST|57=Cert|1=TEST|6=0|11=1805369212196AU710morntestbolt18.03.01.d03.cme|14=0|17=B_CH1OU4QPC5|20=0|22=8|31=0|32=0|37=00000075__PRODCH|38=5|39=0|48=6AU7|54=2|55=6AU7|60=20170803-22:05:36.934|76=BAML|113=Y|150=0|151=5|167=FUT|200=201709|10=011|
20170803-22:05:37.037 : 8=FIX.4.2|9=237|35=D|34=85|49=TEST|50=Cert|52=20170803-22:05:37.028|56=PRODCH|1=TEST|11=1805370269706AU711stroberj18.03.01.d03.cme|21=2|22=8|38=50|40=1|44=0|48=6AU7|54=2|55=6AU7|59=0|60=20170803-22:05:37|100=2|847=1001|8561=99|8563=1|8565=.5|10=098|
20170803-22:05:37.105 : 8=FIX.4.2|9=298|35=8|34=85|49=PRODCH|52=20170803-22:05:37.105|56=TEST|57=Cert|1=TEST|6=0|11=1805370269706AU711stroberj18.03.01.d03.cme|14=0|17=S_CH1OU4QPD3|20=0|22=8|31=0|32=0|37=00000076__PRODCH|38=50|39=0|48=6AU7|54=2|55=6AU7|60=20170803-22:05:37.104|76=BAML|113=Y|150=0|151=50|167=FUT|200=201709|10=185|
20170803-22:05:37.138 : 8=FIX.4.2|9=223|35=D|34=86|49=TEST|50=Cert|52=20170803-22:05:37.129|56=PRODCH|1=TEST|11=1805371286266BU712morntestbolt18.03.01.d03.cme|21=2|22=8|38=5|40=1|44=0|48=6BU7|54=1|55=6BU7|59=0|60=20170803-22:05:37|100=2|847=1002|8561=8|10=210|
20170803-22:05:37.141 : 8=FIX.4.2|9=300|35=8|34=86|49=PRODCH|52=20170803-22:05:37.141|56=TEST|57=Cert|1=TEST|6=0|11=1805371286266BU712morntestbolt18.03.01.d03.cme|14=0|17=B_CH1OU4QPD8|20=0|22=8|31=0|32=0|37=00000077__PRODCH|38=5|39=0|48=6BU7|54=1|55=6BU7|60=20170803-22:05:37.140|76=BAML|113=Y|150=0|151=5|167=FUT|200=201709|10=005|
20170803-22:05:37.241 : 8=FIX.4.2|9=237|35=D|34=87|49=TEST|50=Cert|52=20170803-22:05:37.231|56=PRODCH|1=TEST|11=1805372307846BU713stroberj18.03.01.d03.cme|21=2|22=8|38=50|40=1|44=0|48=6BU7|54=1|55=6BU7|59=0|60=20170803-22:05:37|100=2|847=1001|8561=99|8563=1|8565=.5|10=100|
20170803-22:05:37.333 : 8=FIX.4.2|9=298|35=8|34=87|49=PRODCH|52=20170803-22:05:37.333|56=TEST|57=Cert|1=TEST|6=0|11=1805372307846BU713stroberj18.03.01.d03.cme|14=0|17=S_CH1OU4QPD4|20=0|22=8|31=0|32=0|37=00000078__PRODCH|38=50|39=0|48=6BU7|54=1|55=6BU7|60=20170803-22:05:37.333|76=BAML|113=Y|150=0|151=50|167=FUT|200=201709|10=201|
20170803-22:05:37.345 : 8=FIX.4.2|9=223|35=D|34=88|49=TEST|50=Cert|52=20170803-22:05:37.336|56=PRODCH|1=TEST|11=1805373351296CU714morntestbolt18.03.01.d03.cme|21=2|22=8|38=5|40=1|44=0|48=6CU7|54=2|55=6CU7|59=0|60=20170803-22:05:37|100=2|847=1002|8561=8|10=216|
20170803-22:05:37.348 : 8=FIX.4.2|9=300|35=8|34=88|49=PRODCH|52=20170803-22:05:37.348|56=TEST|57=Cert|1=TEST|6=0|11=1805373351296CU714morntestbolt18.03.01.d03.cme|14=0|17=B_CH1OU4QPDB|20=0|22=8|31=0|32=0|37=00000079__PRODCH|38=5|39=0|48=6CU7|54=2|55=6CU7|60=20170803-22:05:37.347|76=BAML|113=Y|150=0|151=5|167=FUT|200=201709|10=041|
20170803-22:05:37.447 : 8=FIX.4.2|9=237|35=D|34=89|49=TEST|50=Cert|52=20170803-22:05:37.438|56=PRODCH|1=TEST|11=1805374374776CU715stroberj18.03.01.d03.cme|21=2|22=8|38=50|40=1|44=0|48=6CU7|54=2|55=6CU7|59=0|60=20170803-22:05:37|100=2|847=1001|8561=99|8563=1|8565=.5|10=125|
20170803-22:05:37.526 : 8=FIX.4.2|9=298|35=8|34=89|49=PRODCH|52=20170803-22:05:37.526|56=TEST|57=Cert|1=TEST|6=0|11=1805374374776CU715stroberj18.03.01.d03.cme|14=0|17=S_CH1OU4QPD5|20=0|22=8|31=0|32=0|37=00000080__PRODCH|38=50|39=0|48=6CU7|54=2|55=6CU7|60=20170803-22:05:37.526|76=BAML|113=Y|150=0|151=50|167=FUT|200=201709|10=219|
20170803-22:05:37.555 : 8=FIX.4.2|9=223|35=D|34=90|49=TEST|50=Cert|52=20170803-22:05:37.546|56=PRODCH|1=TEST|11=1805375443196EU716morntestbolt18.03.01.d03.cme|21=2|22=8|38=5|40=1|44=0|48=6EU7|54=1|55=6EU7|59=0|60=20170803-22:05:37|100=2|847=1002|8561=8|10=222|
20170803-22:05:37.558 : 8=FIX.4.2|9=300|35=8|34=90|49=PRODCH|52=20170803-22:05:37.558|56=TEST|57=Cert|1=TEST|6=0|11=1805375443196EU716morntestbolt18.03.01.d03.cme|14=0|17=B_CH1OU4QPDD|20=0|22=8|31=0|32=0|37=00000081__PRODCH|38=5|39=0|48=6EU7|54=1|55=6EU7|60=20170803-22:05:37.557|76=BAML|113=Y|150=0|151=5|167=FUT|200=201709|10=045|
20170803-22:05:37.661 : 8=FIX.4.2|9=237|35=D|34=91|49=TEST|50=Cert|52=20170803-22:05:37.652|56=PRODCH|1=TEST|11=1805376512746EU717stroberj18.03.01.d03.cme|21=2|22=8|38=50|40=1|44=0|48=6EU7|54=1|55=6EU7|59=0|60=20170803-22:05:37|100=2|847=1001|8561=99|8563=1|8565=.5|10=116|
20170803-22:05:37.740 : 8=FIX.4.2|9=298|35=8|34=91|49=PRODCH|52=20170803-22:05:37.740|56=TEST|57=Cert|1=TEST|6=0|11=1805376512746EU717stroberj18.03.01.d03.cme|14=0|17=S_CH1OU4QPD6|20=0|22=8|31=0|32=0|37=00000082__PRODCH|38=50|39=0|48=6EU7|54=1|55=6EU7|60=20170803-22:05:37.739|76=BAML|113=Y|150=0|151=50|167=FUT|200=201709|10=219|
20170803-22:05:37.764 : 8=FIX.4.2|9=223|35=D|34=92|49=TEST|50=Cert|52=20170803-22:05:37.755|56=PRODCH|1=TEST|11=1805377543586JU718morntestbolt18.03.01.d03.cme|21=2|22=8|38=5|40=1|44=0|48=6JU7|54=2|55=6JU7|59=0|60=20170803-22:05:37|100=2|847=1002|8561=8|10=250|
20170803-22:05:37.767 : 8=FIX.4.2|9=300|35=8|34=92|49=PRODCH|52=20170803-22:05:37.767|56=TEST|57=Cert|1=TEST|6=0|11=1805377543586JU718morntestbolt18.03.01.d03.cme|14=0|17=B_CH1OU4QPDG|20=0|22=8|31=0|32=0|37=00000083__PRODCH|38=5|39=0|48=6JU7|54=2|55=6JU7|60=20170803-22:05:37.766|76=BAML|113=Y|150=0|151=5|167=FUT|200=201709|10=080|
20170803-22:05:37.867 : 8=FIX.4.2|9=237|35=D|34=93|49=TEST|50=Cert|52=20170803-22:05:37.858|56=PRODCH|1=TEST|11=1805378570136JU719stroberj18.03.01.d03.cme|21=2|22=8|38=50|40=1|44=0|48=6JU7|54=2|55=6JU7|59=0|60=20170803-22:05:37|100=2|847=1001|8561=99|8563=1|8565=.5|10=143|
20170803-22:05:37.972 : 8=FIX.4.2|9=223|35=D|34=94|49=TEST|50=Cert|52=20170803-22:05:37.963|56=PRODCH|1=TEST|11=1805379617976MU720morntestbolt18.03.01.d03.cme|21=2|22=8|38=5|40=1|44=0|48=6MU7|54=1|55=6MU7|59=0|60=20170803-22:05:37|100=2|847=1002|8561=8|10=005|
20170803-22:05:37.974 : 8=FIX.4.2|9=300|35=8|34=93|49=PRODCH|52=20170803-22:05:37.974|56=TEST|57=Cert|1=TEST|6=0|11=1805379617976MU720morntestbolt18.03.01.d03.cme|14=0|17=B_CH1OU4QPDJ|20=0|22=8|31=0|32=0|37=00000085__PRODCH|38=5|39=0|48=6MU7|54=1|55=6MU7|60=20170803-22:05:37.973|76=BAML|113=Y|150=0|151=5|167=FUT|200=201709|10=094|
20170803-22:05:37.996 : 8=FIX.4.2|9=298|35=8|34=94|49=PRODCH|52=20170803-22:05:37.996|56=TEST|57=Cert|1=TEST|6=0|11=1805378570136JU719stroberj18.03.01.d03.cme|14=0|17=S_CH1OU4QPD7|20=0|22=8|31=0|32=0|37=00000084__PRODCH|38=50|39=0|48=6JU7|54=2|55=6JU7|60=20170803-22:05:37.995|76=BAML|113=Y|150=0|151=50|167=FUT|200=201709|10=003|
20170803-22:05:38.076 : 8=FIX.4.2|9=237|35=D|34=95|49=TEST|50=Cert|52=20170803-22:05:38.067|56=PRODCH|1=TEST|11=1805380661506MU721stroberj18.03.01.d03.cme|21=2|22=8|38=50|40=1|44=0|48=6MU7|54=1|55=6MU7|59=0|60=20170803-22:05:38|100=2|847=1001|8561=99|8563=1|8565=.5|10=135|
20170803-22:05:38.158 : 8=FIX.4.2|9=298|35=8|34=95|49=PRODCH|52=20170803-22:05:38.158|56=TEST|57=Cert|1=TEST|6=0|11=1805380661506MU721stroberj18.03.01.d03.cme|14=0|17=S_CH1OU4QPE8|20=0|22=8|31=0|32=0|37=00000086__PRODCH|38=50|39=0|48=6MU7|54=1|55=6MU7|60=20170803-22:05:38.158|76=BAML|113=Y|150=0|151=50|167=FUT|200=201709|10=243|
20170803-22:05:38.178 : 8=FIX.4.2|9=223|35=D|34=96|49=TEST|50=Cert|52=20170803-22:05:38.169|56=PRODCH|1=TEST|11=1805381679986NU722morntestbolt18.03.01.d03.cme|21=2|22=8|38=5|40=1|44=0|48=6NU7|54=2|55=6NU7|59=0|60=20170803-22:05:38|100=2|847=1002|8561=8|10=015|
20170803-22:05:38.178 : 8=FIX.4.2|9=223|35=D|34=96|49=TEST|50=Cert|52=20170803-22:05:38.169|56=PRODCH|1=TEST|11=1805381679986NU722morntestbolt18.03.01.d03.cme|21=2|22=8|38=5|40=1|44=0|48=6NU7|54=2|55=6NU7|59=0|60=20170803-22:05:38|100=2|847=1002|8561=8|10=015|
20170803-22:05:38.181 : 8=FIX.4.2|9=300|35=8|34=96|49=PRODCH|52=20170803-22:05:38.181|56=TEST|57=Cert|1=TEST|6=0|11=1805381679986NU722morntestbolt18.03.01.d03.cme|14=0|17=B_CH1OU4QPEL|20=0|22=8|31=0|32=0|37=00000087__PRODCH|38=5|39=0|48=6NU7|54=2|55=6NU7|60=20170803-22:05:38.180|76=BAML|113=Y|150=0|151=5|167=FUT|200=201709|10=092|
20170803-22:05:38.283 : 8=FIX.4.2|9=237|35=D|34=97|49=TEST|50=Cert|52=20170803-22:05:38.274|56=PRODCH|1=TEST|11=1805382734126NU723stroberj18.03.01.d03.cme|21=2|22=8|38=50|40=1|44=0|48=6NU7|54=2|55=6NU7|59=0|60=20170803-22:05:38|100=2|847=1001|8561=99|8563=1|8565=.5|10=144|
20170803-22:05:38.333 : 8=FIX.4.2|9=298|35=8|34=97|49=PRODCH|52=20170803-22:05:38.333|56=TEST|57=Cert|1=TEST|6=0|11=1805382734126NU723stroberj18.03.01.d03.cme|14=0|17=S_CH1OU4QPE9|20=0|22=8|31=0|32=0|37=00000088__PRODCH|38=50|39=0|48=6NU7|54=2|55=6NU7|60=20170803-22:05:38.332|76=BAML|113=Y|150=0|151=50|167=FUT|200=201709|10=244|
20170803-22:05:38.385 : 8=FIX.4.2|9=223|35=D|34=98|49=TEST|50=Cert|52=20170803-22:05:38.376|56=PRODCH|1=TEST|11=1805383751686SU724morntestbolt18.03.01.d03.cme|21=2|22=8|38=5|40=1|44=0|48=6SU7|54=1|55=6SU7|59=0|60=20170803-22:05:38|100=2|847=1002|8561=8|10=023|
20170803-22:05:38.388 : 8=FIX.4.2|9=300|35=8|34=98|49=PRODCH|52=20170803-22:05:38.388|56=TEST|57=Cert|1=TEST|6=0|11=1805383751686SU724morntestbolt18.03.01.d03.cme|14=0|17=B_CH1OU4QPEO|20=0|22=8|31=0|32=0|37=00000089__PRODCH|38=5|39=0|48=6SU7|54=1|55=6SU7|60=20170803-22:05:38.387|76=BAML|113=Y|150=0|151=5|167=FUT|200=201709|10=123|
20170803-22:05:38.486 : 8=FIX.4.2|9=237|35=D|34=99|49=TEST|50=Cert|52=20170803-22:05:38.477|56=PRODCH|1=TEST|11=1805384757786SU725stroberj18.03.01.d03.cme|21=2|22=8|38=50|40=1|44=0|48=6SU7|54=1|55=6SU7|59=0|60=20170803-22:05:38|100=2|847=1001|8561=99|8563=1|8565=.5|10=186|
20170803-22:05:38.590 : 8=FIX.4.2|9=227|35=D|34=100|49=TEST|50=Cert|52=20170803-22:05:38.580|56=PRODCH|1=TEST|11=180538579664B1UU726morntestbolt18.03.01.d03.cme|21=2|22=8|38=5|40=1|44=0|48=B1UU7|54=2|55=B1UU7|59=0|60=20170803-22:05:38|100=2|847=1002|8561=8|10=255|
20170803-22:05:38.593 : 8=FIX.4.2|9=303|35=8|34=99|49=PRODCH|52=20170803-22:05:38.593|56=TEST|57=Cert|1=TEST|6=0|11=180538579664B1UU726morntestbolt18.03.01.d03.cme|14=0|17=B_CH1OU4QPER|20=0|22=8|31=0|32=0|37=00000091__PRODCH|38=5|39=0|48=B1UU7|54=2|55=B1UU7|60=20170803-22:05:38.592|76=BAML|113=Y|150=0|151=5|167=FUT|200=201709|10=062|
20170803-22:05:38.606 : 8=FIX.4.2|9=299|35=8|34=100|49=PRODCH|52=20170803-22:05:38.606|56=TEST|57=Cert|1=TEST|6=0|11=1805384757786SU725stroberj18.03.01.d03.cme|14=0|17=S_CH1OU4QPEA|20=0|22=8|31=0|32=0|37=00000090__PRODCH|38=50|39=0|48=6SU7|54=1|55=6SU7|60=20170803-22:05:38.605|76=BAML|113=Y|150=0|151=50|167=FUT|200=201709|10=064|
20170803-22:05:38.698 : 8=FIX.4.2|9=224|35=D|34=101|49=TEST|50=Cert|52=20170803-22:05:38.689|56=PRODCH|1=TEST|11=180538688283CLU727morntestbolt18.03.01.d03.cme|21=2|22=8|38=5|40=1|44=0|48=CLU7|54=1|55=CLU7|59=0|60=20170803-22:05:38|100=2|847=1002|8561=8|10=090|
20170803-22:05:38.701 : 8=FIX.4.2|9=301|35=8|34=101|49=PRODCH|52=20170803-22:05:38.701|56=TEST|57=Cert|1=TEST|6=0|11=180538688283CLU727morntestbolt18.03.01.d03.cme|14=0|17=B_CH1OU4QPEU|20=0|22=8|31=0|32=0|37=00000092__PRODCH|38=5|39=0|48=CLU7|54=1|55=CLU7|60=20170803-22:05:38.700|76=BAML|113=Y|150=0|151=5|167=FUT|200=201709|10=161|
20170803-22:05:38.807 : 8=FIX.4.2|9=238|35=D|34=102|49=TEST|50=Cert|52=20170803-22:05:38.798|56=PRODCH|1=TEST|11=180538797217CLU728stroberj18.03.01.d03.cme|21=2|22=8|38=50|40=1|44=0|48=CLU7|54=1|55=CLU7|59=0|60=20170803-22:05:38|100=2|847=1001|8561=99|8563=1|8565=.5|10=242|
20170803-22:05:38.889 : 8=FIX.4.2|9=299|35=8|34=102|49=PRODCH|52=20170803-22:05:38.888|56=TEST|57=Cert|1=TEST|6=0|11=180538797217CLU728stroberj18.03.01.d03.cme|14=0|17=S_CH1OU4QPEB|20=0|22=8|31=0|32=0|37=00000093__PRODCH|38=50|39=0|48=CLU7|54=1|55=CLU7|60=20170803-22:05:38.888|76=BAML|113=Y|150=0|151=50|167=FUT|200=201709|10=111|
20170803-22:05:38.912 : 8=FIX.4.2|9=227|35=D|34=103|49=TEST|50=Cert|52=20170803-22:05:38.903|56=PRODCH|1=TEST|11=180538901833EMDU729morntestbolt18.03.01.d03.cme|21=2|22=8|38=5|40=1|44=0|48=EMDU7|54=2|55=EMDU7|59=0|60=20170803-22:05:38|100=2|847=1002|8561=8|10=033|
20170803-22:05:38.915 : 8=FIX.4.2|9=304|35=8|34=103|49=PRODCH|52=20170803-22:05:38.915|56=TEST|57=Cert|1=TEST|6=0|11=180538901833EMDU729morntestbolt18.03.01.d03.cme|14=0|17=B_CH1OU4QPEZ|20=0|22=8|31=0|32=0|37=00000094__PRODCH|38=5|39=0|48=EMDU7|54=2|55=EMDU7|60=20170803-22:05:38.914|76=BAML|113=Y|150=0|151=5|167=FUT|200=201709|10=136|
20170803-22:05:38.923 : 8=FIX.4.2|9=315|35=8|34=104|49=PRODCH|52=20170803-22:05:38.923|56=TEST|57=Cert|1=TEST|6=1746.7|11=180538901833EMDU729morntestbolt18.03.01.d03.cme|14=1|17=B_CH1OU4QPE10|20=0|22=8|31=1746.7|32=1|37=00000094__PRODCH|38=5|39=1|48=EMDU7|54=2|55=EMDU7|60=20170803-22:05:38.922|76=BAML|113=Y|150=1|151=4|167=FUT|200=201709|10=161|
20170803-22:05:39.016 : 8=FIX.4.2|9=241|35=D|34=104|49=TEST|50=Cert|52=20170803-22:05:39.007|56=PRODCH|1=TEST|11=180539005811EMDU730stroberj18.03.01.d03.cme|21=2|22=8|38=50|40=1|44=0|48=EMDU7|54=2|55=EMDU7|59=0|60=20170803-22:05:39|100=2|847=1001|8561=99|8563=1|8565=.5|10=157|
20170803-22:05:39.075 : 8=FIX.4.2|9=302|35=8|34=105|49=PRODCH|52=20170803-22:05:39.075|56=TEST|57=Cert|1=TEST|6=0|11=180539005811EMDU730stroberj18.03.01.d03.cme|14=0|17=S_CH1OU4QPFC|20=0|22=8|31=0|32=0|37=00000095__PRODCH|38=50|39=0|48=EMDU7|54=2|55=EMDU7|60=20170803-22:05:39.074|76=BAML|113=Y|150=0|151=50|167=FUT|200=201709|10=014|
20170803-22:05:39.119 : 8=FIX.4.2|9=224|35=D|34=105|49=TEST|50=Cert|52=20170803-22:05:39.110|56=PRODCH|1=TEST|11=180539108793ESU731morntestbolt18.03.01.d03.cme|21=2|22=8|38=5|40=1|44=0|48=ESU7|54=1|55=ESU7|59=0|60=20170803-22:05:39|100=2|847=1002|8561=8|10=091|
20170803-22:05:39.122 : 8=FIX.4.2|9=302|35=8|34=106|49=PRODCH|52=20170803-22:05:39.122|56=TEST|57=Cert|1=TEST|6=0|11=180539108793ESU731morntestbolt18.03.01.d03.cme|14=0|17=B_CH1OU4QPF12|20=0|22=8|31=0|32=0|37=00000096__PRODCH|38=5|39=0|48=ESU7|54=1|55=ESU7|60=20170803-22:05:39.121|76=BAML|113=Y|150=0|151=5|167=FUT|200=201709|10=198|
20170803-22:05:39.235 : 8=FIX.4.2|9=238|35=D|34=106|49=TEST|50=Cert|52=20170803-22:05:39.226|56=PRODCH|1=TEST|11=180539224941ESU732stroberj18.03.01.d03.cme|21=2|22=8|38=50|40=1|44=0|48=ESU7|54=1|55=ESU7|59=0|60=20170803-22:05:39|100=2|847=1001|8561=99|8563=1|8565=.5|10=246|
20170803-22:05:39.329 : 8=FIX.4.2|9=299|35=8|34=107|49=PRODCH|52=20170803-22:05:39.329|56=TEST|57=Cert|1=TEST|6=0|11=180539224941ESU732stroberj18.03.01.d03.cme|14=0|17=S_CH1OU4QPFD|20=0|22=8|31=0|32=0|37=00000097__PRODCH|38=50|39=0|48=ESU7|54=1|55=ESU7|60=20170803-22:05:39.329|76=BAML|113=Y|150=0|151=50|167=FUT|200=201709|10=117|
20170803-22:05:39.351 : 8=FIX.4.2|9=227|35=D|34=107|49=TEST|50=Cert|52=20170803-22:05:39.341|56=PRODCH|1=TEST|11=180539339816F1UU733morntestbolt18.03.01.d03.cme|21=2|22=8|38=5|40=1|44=0|48=F1UU7|54=2|55=F1UU7|59=0|60=20170803-22:05:39|100=2|847=1002|8561=8|10=007|
20170803-22:05:39.354 : 8=FIX.4.2|9=305|35=8|34=108|49=PRODCH|52=20170803-22:05:39.354|56=TEST|57=Cert|1=TEST|6=0|11=180539339816F1UU733morntestbolt18.03.01.d03.cme|14=0|17=B_CH1OU4QPF15|20=0|22=8|31=0|32=0|37=00000098__PRODCH|38=5|39=0|48=F1UU7|54=2|55=F1UU7|60=20170803-22:05:39.353|76=BAML|113=Y|150=0|151=5|167=FUT|200=201709|10=127|
20170803-22:05:39.459 : 8=FIX.4.2|9=241|35=D|34=108|49=TEST|50=Cert|52=20170803-22:05:39.450|56=PRODCH|1=TEST|11=180539449281F1UU734stroberj18.03.01.d03.cme|21=2|22=8|38=50|40=1|44=0|48=F1UU7|54=2|55=F1UU7|59=0|60=20170803-22:05:39|100=2|847=1001|8561=99|8563=1|8565=.5|10=150|
20170803-22:05:39.497 : 8=FIX.4.2|9=302|35=8|34=109|49=PRODCH|52=20170803-22:05:39.497|56=TEST|57=Cert|1=TEST|6=0|11=180539449281F1UU734stroberj18.03.01.d03.cme|14=0|17=S_CH1OU4QPFF|20=0|22=8|31=0|32=0|37=00000099__PRODCH|38=50|39=0|48=F1UU7|54=2|55=F1UU7|60=20170803-22:05:39.497|76=BAML|113=Y|150=0|151=50|167=FUT|200=201709|10=029|
20170803-22:05:39.564 : 8=FIX.4.2|9=224|35=D|34=109|49=TEST|50=Cert|52=20170803-22:05:39.555|56=PRODCH|1=TEST|11=180539553752GCZ735morntestbolt18.03.01.d03.cme|21=2|22=8|38=5|40=1|44=0|48=GCZ7|54=1|55=GCZ7|59=0|60=20170803-22:05:39|100=2|847=1002|8561=8|10=084|
20170803-22:05:39.599 : 8=FIX.4.2|9=304|35=8|34=110|49=PRODCH|52=20170803-22:05:39.599|56=TEST|57=Cert|1=TEST|6=0|11=180539553752GCZ735morntestbolt18.03.01.d03.cme|14=0|17=B2_CH1OU4QPF2|20=0|22=8|31=0|32=0|37=300000003__PRODCH3|38=5|39=0|48=GCZ7|54=1|55=GCZ7|60=20170803-22:05:39.598|76=BAML|113=Y|150=0|151=5|167=FUT|200=201712|10=036|
20170803-22:05:39.603 : 8=FIX.4.2|9=314|35=8|34=111|49=PRODCH|52=20170803-22:05:39.603|56=TEST|57=Cert|1=TEST|6=1274.5|11=180539553752GCZ735morntestbolt18.03.01.d03.cme|14=2|17=B2_CH1OU4QPF3|20=0|22=8|31=1274.5|32=2|37=300000003__PRODCH3|38=5|39=1|48=GCZ7|54=1|55=GCZ7|60=20170803-22:05:39.602|76=BAML|113=Y|150=1|151=3|167=FUT|200=201712|10=017|
20170803-22:05:39.670 : 8=FIX.4.2|9=238|35=D|34=110|49=TEST|50=Cert|52=20170803-22:05:39.661|56=PRODCH|1=TEST|11=180539660048GCZ736stroberj18.03.01.d03.cme|21=2|22=8|38=50|40=1|44=0|48=GCZ7|54=1|55=GCZ7|59=0|60=20170803-22:05:39|100=2|847=1001|8561=99|8563=1|8565=.5|10=223|
20170803-22:05:39.775 : 8=FIX.4.2|9=299|35=8|34=112|49=PRODCH|52=20170803-22:05:39.775|56=TEST|57=Cert|1=TEST|6=0|11=180539660048GCZ736stroberj18.03.01.d03.cme|14=0|17=S_CH1OU4QPFG|20=0|22=8|31=0|32=0|37=00000101__PRODCH|38=50|39=0|48=GCZ7|54=1|55=GCZ7|60=20170803-22:05:39.774|76=BAML|113=Y|150=0|151=50|167=FUT|200=201712|10=084|
20170803-22:05:39.790 : 8=FIX.4.2|9=224|35=D|34=111|49=TEST|50=Cert|52=20170803-22:05:39.778|56=PRODCH|1=TEST|11=180539777526GEM837morntestbolt18.03.01.d03.cme|21=2|22=8|38=5|40=1|44=0|48=GEM8|54=2|55=GEM8|59=0|60=20170803-22:05:39|100=2|847=1002|8561=8|10=064|
20170803-22:05:39.793 : 8=FIX.4.2|9=302|35=8|34=113|49=PRODCH|52=20170803-22:05:39.793|56=TEST|57=Cert|1=TEST|6=0|11=180539777526GEM837morntestbolt18.03.01.d03.cme|14=0|17=B_CH1OU4QPF17|20=0|22=8|31=0|32=0|37=00000102__PRODCH|38=5|39=0|48=GEM8|54=2|55=GEM8|60=20170803-22:05:39.792|76=BAML|113=Y|150=0|151=5|167=FUT|200=201806|10=171|
20170803-22:05:39.907 : 8=FIX.4.2|9=238|35=D|34=112|49=TEST|50=Cert|52=20170803-22:05:39.898|56=PRODCH|1=TEST|11=180539896742GEM838stroberj18.03.01.d03.cme|21=2|22=8|38=50|40=1|44=0|48=GEM8|54=2|55=GEM8|59=0|60=20170803-22:05:39|100=2|847=1001|8561=99|8563=1|8565=.5|10=222|
20170803-22:05:39.932 : 8=FIX.4.2|9=299|35=8|34=114|49=PRODCH|52=20170803-22:05:39.932|56=TEST|57=Cert|1=TEST|6=0|11=180539896742GEM838stroberj18.03.01.d03.cme|14=0|17=S_CH1OU4QPFJ|20=0|22=8|31=0|32=0|37=00000103__PRODCH|38=50|39=0|48=GEM8|54=2|55=GEM8|60=20170803-22:05:39.932|76=BAML|113=Y|150=0|151=50|167=FUT|200=201806|10=071|
20170803-22:05:40.011 : 8=FIX.4.2|9=224|35=D|34=113|49=TEST|50=Cert|52=20170803-22:05:40.002|56=PRODCH|1=TEST|11=180540000984GFQ739morntestbolt18.03.01.d03.cme|21=2|22=8|38=5|40=1|44=0|48=GFQ7|54=1|55=GFQ7|59=0|60=20170803-22:05:40|100=2|847=1002|8561=8|10=022|
20170803-22:05:40.013 : 8=FIX.4.2|9=302|35=8|34=115|49=PRODCH|52=20170803-22:05:40.013|56=TEST|57=Cert|1=TEST|6=0|11=180540000984GFQ739morntestbolt18.03.01.d03.cme|14=0|17=B_CH1OU4QPG18|20=0|22=8|31=0|32=0|37=00000104__PRODCH|38=5|39=0|48=GFQ7|54=1|55=GFQ7|60=20170803-22:05:40.012|76=BAML|113=Y|150=0|151=5|167=FUT|200=201708|10=124|
20170803-22:05:40.116 : 8=FIX.4.2|9=238|35=D|34=114|49=TEST|50=Cert|52=20170803-22:05:40.107|56=PRODCH|1=TEST|11=180540106323GFQ740stroberj18.03.01.d03.cme|21=2|22=8|38=50|40=1|44=0|48=GFQ7|54=1|55=GFQ7|59=0|60=20170803-22:05:40|100=2|847=1001|8561=99|8563=1|8565=.5|10=166|
20170803-22:05:40.123 : 8=FIX.4.2|9=299|35=8|34=116|49=PRODCH|52=20170803-22:05:40.123|56=TEST|57=Cert|1=TEST|6=0|11=180540106323GFQ740stroberj18.03.01.d03.cme|14=0|17=S_CH1OU4QPGK|20=0|22=8|31=0|32=0|37=00000105__PRODCH|38=50|39=0|48=GFQ7|54=1|55=GFQ7|60=20170803-22:05:40.123|76=BAML|113=Y|150=0|151=50|167=FUT|200=201708|10=021|
20170803-22:05:40.221 : 8=FIX.4.2|9=224|35=D|34=115|49=TEST|50=Cert|52=20170803-22:05:40.211|56=PRODCH|1=TEST|11=180540209815HEV741morntestbolt18.03.01.d03.cme|21=2|22=8|38=5|40=1|44=0|48=HEV7|54=2|55=HEV7|59=0|60=20170803-22:05:40|100=2|847=1002|8561=8|10=039|
20170803-22:05:40.223 : 8=FIX.4.2|9=302|35=8|34=117|49=PRODCH|52=20170803-22:05:40.223|56=TEST|57=Cert|1=TEST|6=0|11=180540209815HEV741morntestbolt18.03.01.d03.cme|14=0|17=B_CH1OU4QPG19|20=0|22=8|31=0|32=0|37=00000106__PRODCH|38=5|39=0|48=HEV7|54=2|55=HEV7|60=20170803-22:05:40.222|76=BAML|113=Y|150=0|151=5|167=FUT|200=201710|10=141|
20170803-22:05:40.325 : 8=FIX.4.2|9=238|35=D|34=116|49=TEST|50=Cert|52=20170803-22:05:40.316|56=PRODCH|1=TEST|11=180540314801HEV742stroberj18.03.01.d03.cme|21=2|22=8|38=50|40=1|44=0|48=HEV7|54=2|55=HEV7|59=0|60=20170803-22:05:40|100=2|847=1001|8561=99|8563=1|8565=.5|10=190|
20170803-22:05:40.334 : 8=FIX.4.2|9=299|35=8|34=118|49=PRODCH|52=20170803-22:05:40.334|56=TEST|57=Cert|1=TEST|6=0|11=180540314801HEV742stroberj18.03.01.d03.cme|14=0|17=S_CH1OU4QPGL|20=0|22=8|31=0|32=0|37=00000107__PRODCH|38=50|39=0|48=HEV7|54=2|55=HEV7|60=20170803-22:05:40.333|76=BAML|113=Y|150=0|151=50|167=FUT|200=201710|10=046|
20170803-22:05:40.429 : 8=FIX.4.2|9=224|35=D|34=117|49=TEST|50=Cert|52=20170803-22:05:40.420|56=PRODCH|1=TEST|11=180540419407HGU743morntestbolt18.03.01.d03.cme|21=2|22=8|38=5|40=1|44=0|48=HGU7|54=1|55=HGU7|59=0|60=20170803-22:05:40|100=2|847=1002|8561=8|10=047|
20170803-22:05:40.432 : 8=FIX.4.2|9=302|35=8|34=119|49=PRODCH|52=20170803-22:05:40.432|56=TEST|57=Cert|1=TEST|6=0|11=180540419407HGU743morntestbolt18.03.01.d03.cme|14=0|17=B_CH1OU4QPG1F|20=0|22=8|31=0|32=0|37=00000108__PRODCH|38=5|39=0|48=HGU7|54=1|55=HGU7|60=20170803-22:05:40.431|76=BAML|113=Y|150=0|151=5|167=FUT|200=201709|10=174|
20170803-22:05:40.532 : 8=FIX.4.2|9=238|35=D|34=118|49=TEST|50=Cert|52=20170803-22:05:40.523|56=PRODCH|1=TEST|11=180540522206HGU744stroberj18.03.01.d03.cme|21=2|22=8|38=50|40=1|44=0|48=HGU7|54=1|55=HGU7|59=0|60=20170803-22:05:40|100=2|847=1001|8561=99|8563=1|8565=.5|10=196|
20170803-22:05:40.615 : 8=FIX.4.2|9=299|35=8|34=120|49=PRODCH|52=20170803-22:05:40.615|56=TEST|57=Cert|1=TEST|6=0|11=180540522206HGU744stroberj18.03.01.d03.cme|14=0|17=S_CH1OU4QPGM|20=0|22=8|31=0|32=0|37=00000109__PRODCH|38=50|39=0|48=HGU7|54=1|55=HGU7|60=20170803-22:05:40.614|76=BAML|113=Y|150=0|151=50|167=FUT|200=201709|10=058|
20170803-22:05:40.639 : 8=FIX.4.2|9=224|35=D|34=119|49=TEST|50=Cert|52=20170803-22:05:40.630|56=PRODCH|1=TEST|11=180540629428HOU745morntestbolt18.03.01.d03.cme|21=2|22=8|38=5|40=1|44=0|48=HOU7|54=2|55=HOU7|59=0|60=20170803-22:05:40|100=2|847=1002|8561=8|10=085|
20170803-22:05:40.642 : 8=FIX.4.2|9=302|35=8|34=121|49=PRODCH|52=20170803-22:05:40.642|56=TEST|57=Cert|1=TEST|6=0|11=180540629428HOU745morntestbolt18.03.01.d03.cme|14=0|17=B_CH1OU4QPG1J|20=0|22=8|31=0|32=0|37=00000110__PRODCH|38=5|39=0|48=HOU7|54=2|55=HOU7|60=20170803-22:05:40.641|76=BAML|113=Y|150=0|151=5|167=FUT|200=201709|10=203|
20170803-22:05:40.643 : 8=FIX.4.2|9=306|35=8|34=122|49=PRODCH|52=20170803-22:05:40.643|56=TEST|57=Cert|1=TEST|6=164|11=180540629428HOU745morntestbolt18.03.01.d03.cme|14=1|17=B_CH1OU4QPG1K|20=0|22=8|31=164|32=1|37=00000110__PRODCH|38=5|39=1|48=HOU7|54=2|55=HOU7|60=20170803-22:05:40.642|76=BAML|113=Y|150=1|151=4|167=FUT|200=201709|10=172|
20170803-22:05:40.747 : 8=FIX.4.2|9=238|35=D|34=120|49=TEST|50=Cert|52=20170803-22:05:40.738|56=PRODCH|1=TEST|11=180540737498HOU746stroberj18.03.01.d03.cme|21=2|22=8|38=50|40=1|44=0|48=HOU7|54=2|55=HOU7|59=0|60=20170803-22:05:40|100=2|847=1001|8561=99|8563=1|8565=.5|10=245|
20170803-22:05:40.788 : 8=FIX.4.2|9=299|35=8|34=123|49=PRODCH|52=20170803-22:05:40.788|56=TEST|57=Cert|1=TEST|6=0|11=180540737498HOU746stroberj18.03.01.d03.cme|14=0|17=S_CH1OU4QPGN|20=0|22=8|31=0|32=0|37=00000111__PRODCH|38=50|39=0|48=HOU7|54=2|55=HOU7|60=20170803-22:05:40.788|76=BAML|113=Y|150=0|151=50|167=FUT|200=201709|10=126|
20170803-22:05:40.851 : 8=FIX.4.2|9=224|35=D|34=121|49=TEST|50=Cert|52=20170803-22:05:40.841|56=PRODCH|1=TEST|11=180540840615KEU747morntestbolt18.03.01.d03.cme|21=2|22=8|38=5|40=1|44=0|48=KEU7|54=1|55=KEU7|59=0|60=20170803-22:05:40|100=2|847=1002|8561=8|10=055|
20170803-22:05:40.853 : 8=FIX.4.2|9=302|35=8|34=124|49=PRODCH|52=20170803-22:05:40.853|56=TEST|57=Cert|1=TEST|6=0|11=180540840615KEU747morntestbolt18.03.01.d03.cme|14=0|17=B_CH1OU4QPG1L|20=0|22=8|31=0|32=0|37=00000112__PRODCH|38=5|39=0|48=KEU7|54=1|55=KEU7|60=20170803-22:05:40.852|76=BAML|113=Y|150=0|151=5|167=FUT|200=201709|10=191|
20170803-22:05:40.953 : 8=FIX.4.2|9=238|35=D|34=122|49=TEST|50=Cert|52=20170803-22:05:40.944|56=PRODCH|1=TEST|11=180540943297KEU748stroberj18.03.01.d03.cme|21=2|22=8|38=50|40=1|44=0|48=KEU7|54=1|55=KEU7|59=0|60=20170803-22:05:40|100=2|847=1001|8561=99|8563=1|8565=.5|10=222|
20170803-22:05:40.991 : 8=FIX.4.2|9=299|35=8|34=125|49=PRODCH|52=20170803-22:05:40.991|56=TEST|57=Cert|1=TEST|6=0|11=180540943297KEU748stroberj18.03.01.d03.cme|14=0|17=S_CH1OU4QPGO|20=0|22=8|31=0|32=0|37=00000113__PRODCH|38=50|39=0|48=KEU7|54=1|55=KEU7|60=20170803-22:05:40.990|76=BAML|113=Y|150=0|151=50|167=FUT|200=201709|10=098|
20170803-22:05:41.060 : 8=FIX.4.2|9=224|35=D|34=123|49=TEST|50=Cert|52=20170803-22:05:41.051|56=PRODCH|1=TEST|11=180541050351LEV749morntestbolt18.03.01.d03.cme|21=2|22=8|38=5|40=1|44=0|48=LEV7|54=2|55=LEV7|59=0|60=20170803-22:05:41|100=2|847=1002|8561=8|10=052|
20170803-22:05:41.062 : 8=FIX.4.2|9=302|35=8|34=126|49=PRODCH|52=20170803-22:05:41.062|56=TEST|57=Cert|1=TEST|6=0|11=180541050351LEV749morntestbolt18.03.01.d03.cme|14=0|17=B_CH1OU4QPH1N|20=0|22=8|31=0|32=0|37=00000114__PRODCH|38=5|39=0|48=LEV7|54=2|55=LEV7|60=20170803-22:05:41.062|76=BAML|113=Y|150=0|151=5|167=FUT|200=201710|10=177|
20170803-22:05:41.164 : 8=FIX.4.2|9=238|35=D|34=124|49=TEST|50=Cert|52=20170803-22:05:41.155|56=PRODCH|1=TEST|11=180541154100LEV750stroberj18.03.01.d03.cme|21=2|22=8|38=50|40=1|44=0|48=LEV7|54=2|55=LEV7|59=0|60=20170803-22:05:41|100=2|847=1001|8561=99|8563=1|8565=.5|10=198|
20170803-22:05:41.171 : 8=FIX.4.2|9=299|35=8|34=127|49=PRODCH|52=20170803-22:05:41.171|56=TEST|57=Cert|1=TEST|6=0|11=180541154100LEV750stroberj18.03.01.d03.cme|14=0|17=S_CH1OU4QPHP|20=0|22=8|31=0|32=0|37=00000115__PRODCH|38=50|39=0|48=LEV7|54=2|55=LEV7|60=20170803-22:05:41.170|76=BAML|113=Y|150=0|151=50|167=FUT|200=201710|10=056|
20170803-22:05:41.267 : 8=FIX.4.2|9=227|35=D|34=125|49=TEST|50=Cert|52=20170803-22:05:41.258|56=PRODCH|1=TEST|11=180541257399N1UU751morntestbolt18.03.01.d03.cme|21=2|22=8|38=5|40=1|44=0|48=N1UU7|54=1|55=N1UU7|59=0|60=20170803-22:05:41|100=2|847=1002|8561=8|10=021|
20170803-22:05:41.270 : 8=FIX.4.2|9=305|35=8|34=128|49=PRODCH|52=20170803-22:05:41.270|56=TEST|57=Cert|1=TEST|6=0|11=180541257399N1UU751morntestbolt18.03.01.d03.cme|14=0|17=B_CH1OU4QPH1Q|20=0|22=8|31=0|32=0|37=00000116__PRODCH|38=5|39=0|48=N1UU7|54=1|55=N1UU7|60=20170803-22:05:41.269|76=BAML|113=Y|150=0|151=5|167=FUT|200=201709|10=160|
20170803-22:05:41.372 : 8=FIX.4.2|9=241|35=D|34=126|49=TEST|50=Cert|52=20170803-22:05:41.363|56=PRODCH|1=TEST|11=180541362388N1UU752stroberj18.03.01.d03.cme|21=2|22=8|38=50|40=1|44=0|48=N1UU7|54=1|55=N1UU7|59=0|60=20170803-22:05:41|100=2|847=1001|8561=99|8563=1|8565=.5|10=157|
20170803-22:05:41.417 : 8=FIX.4.2|9=302|35=8|34=129|49=PRODCH|52=20170803-22:05:41.417|56=TEST|57=Cert|1=TEST|6=0|11=180541362388N1UU752stroberj18.03.01.d03.cme|14=0|17=S_CH1OU4QPHR|20=0|22=8|31=0|32=0|37=00000117__PRODCH|38=50|39=0|48=N1UU7|54=1|55=N1UU7|60=20170803-22:05:41.416|76=BAML|113=Y|150=0|151=50|167=FUT|200=201709|10=023|
20170803-22:05:41.481 : 8=FIX.4.2|9=224|35=D|34=127|49=TEST|50=Cert|52=20170803-22:05:41.472|56=PRODCH|1=TEST|11=180541471044NGU753morntestbolt18.03.01.d03.cme|21=2|22=8|38=5|40=1|44=0|48=NGU7|54=2|55=NGU7|59=0|60=20170803-22:05:41|100=2|847=1002|8561=8|10=073|
20170803-22:05:41.484 : 8=FIX.4.2|9=302|35=8|34=130|49=PRODCH|52=20170803-22:05:41.484|56=TEST|57=Cert|1=TEST|6=0|11=180541471044NGU753morntestbolt18.03.01.d03.cme|14=0|17=B_CH1OU4QPH1T|20=0|22=8|31=0|32=0|37=00000118__PRODCH|38=5|39=0|48=NGU7|54=2|55=NGU7|60=20170803-22:05:41.483|76=BAML|113=Y|150=0|151=5|167=FUT|200=201709|10=215|
20170803-22:05:41.591 : 8=FIX.4.2|9=238|35=D|34=128|49=TEST|50=Cert|52=20170803-22:05:41.582|56=PRODCH|1=TEST|11=180541581188NGU754stroberj18.03.01.d03.cme|21=2|22=8|38=50|40=1|44=0|48=NGU7|54=2|55=NGU7|59=0|60=20170803-22:05:41|100=2|847=1001|8561=99|8563=1|8565=.5|10=239|
20170803-22:05:41.662 : 8=FIX.4.2|9=299|35=8|34=131|49=PRODCH|52=20170803-22:05:41.662|56=TEST|57=Cert|1=TEST|6=0|11=180541581188NGU754stroberj18.03.01.d03.cme|14=0|17=S_CH1OU4QPHS|20=0|22=8|31=0|32=0|37=00000119__PRODCH|38=50|39=0|48=NGU7|54=2|55=NGU7|60=20170803-22:05:41.662|76=BAML|113=Y|150=0|151=50|167=FUT|200=201709|10=110|
20170803-22:05:41.696 : 8=FIX.4.2|9=227|35=D|34=129|49=TEST|50=Cert|52=20170803-22:05:41.687|56=PRODCH|1=TEST|11=180541686012NIYU755morntestbolt18.03.01.d03.cme|21=2|22=8|38=5|40=1|44=0|48=NIYU7|54=1|55=NIYU7|59=0|60=20170803-22:05:41|100=2|847=1002|8561=8|10=107|
20170803-22:05:41.698 : 8=FIX.4.2|9=305|35=8|34=132|49=PRODCH|52=20170803-22:05:41.698|56=TEST|57=Cert|1=TEST|6=0|11=180541686012NIYU755morntestbolt18.03.01.d03.cme|14=0|17=B_CH1OU4QPH1V|20=0|22=8|31=0|32=0|37=00000120__PRODCH|38=5|39=0|48=NIYU7|54=1|55=NIYU7|60=20170803-22:05:41.698|76=BAML|113=Y|150=0|151=5|167=FUT|200=201709|10=251|
20170803-22:05:41.799 : 8=FIX.4.2|9=241|35=D|34=130|49=TEST|50=Cert|52=20170803-22:05:41.789|56=PRODCH|1=TEST|11=180541788681NIYU756stroberj18.03.01.d03.cme|21=2|22=8|38=50|40=1|44=0|48=NIYU7|54=1|55=NIYU7|59=0|60=20170803-22:05:41|100=2|847=1001|8561=99|8563=1|8565=.5|10=004|
20170803-22:05:41.901 : 8=FIX.4.2|9=227|35=D|34=131|49=TEST|50=Cert|52=20170803-22:05:41.892|56=PRODCH|1=TEST|11=180541891118NKDU757morntestbolt18.03.01.d03.cme|21=2|22=8|38=5|40=1|44=0|48=NKDU7|54=2|55=NKDU7|59=0|60=20170803-22:05:41|100=2|847=1002|8561=8|10=049|
20170803-22:05:41.903 : 8=FIX.4.2|9=305|35=8|34=133|49=PRODCH|52=20170803-22:05:41.903|56=TEST|57=Cert|1=TEST|6=0|11=180541891118NKDU757morntestbolt18.03.01.d03.cme|14=0|17=B_CH1OU4QPH1X|20=0|22=8|31=0|32=0|37=00000122__PRODCH|38=5|39=0|48=NKDU7|54=2|55=NKDU7|60=20170803-22:05:41.903|76=BAML|113=Y|150=0|151=5|167=FUT|200=201709|10=185|
20170803-22:05:41.915 : 8=FIX.4.2|9=302|35=8|34=134|49=PRODCH|52=20170803-22:05:41.915|56=TEST|57=Cert|1=TEST|6=0|11=180541788681NIYU756stroberj18.03.01.d03.cme|14=0|17=S_CH1OU4QPHT|20=0|22=8|31=0|32=0|37=00000121__PRODCH|38=50|39=0|48=NIYU7|54=1|55=NIYU7|60=20170803-22:05:41.914|76=BAML|113=Y|150=0|151=50|167=FUT|200=201709|10=118|
20170803-22:05:42.004 : 8=FIX.4.2|9=241|35=D|34=132|49=TEST|50=Cert|52=20170803-22:05:41.995|56=PRODCH|1=TEST|11=180541994472NKDU758stroberj18.03.01.d03.cme|21=2|22=8|38=50|40=1|44=0|48=NKDU7|54=2|55=NKDU7|59=0|60=20170803-22:05:41|100=2|847=1001|8561=99|8563=1|8565=.5|10=204|
20170803-22:05:42.108 : 8=FIX.4.2|9=224|35=D|34=133|49=TEST|50=Cert|52=20170803-22:05:42.099|56=PRODCH|1=TEST|11=180542098198NQU759morntestbolt18.03.01.d03.cme|21=2|22=8|38=5|40=1|44=0|48=NQU7|54=1|55=NQU7|59=0|60=20170803-22:05:42|100=2|847=1002|8561=8|10=128|
20170803-22:05:42.111 : 8=FIX.4.2|9=302|35=8|34=135|49=PRODCH|52=20170803-22:05:42.111|56=TEST|57=Cert|1=TEST|6=0|11=180542098198NQU759morntestbolt18.03.01.d03.cme|14=0|17=B_CH1OU4QPI20|20=0|22=8|31=0|32=0|37=00000124__PRODCH|38=5|39=0|48=NQU7|54=1|55=NQU7|60=20170803-22:05:42.110|76=BAML|113=Y|150=0|151=5|167=FUT|200=201709|10=210|
20170803-22:05:42.124 : 8=FIX.4.2|9=302|35=8|34=136|49=PRODCH|52=20170803-22:05:42.124|56=TEST|57=Cert|1=TEST|6=0|11=180541994472NKDU758stroberj18.03.01.d03.cme|14=0|17=S_CH1OU4QPIU|20=0|22=8|31=0|32=0|37=00000123__PRODCH|38=50|39=0|48=NKDU7|54=2|55=NKDU7|60=20170803-22:05:42.123|76=BAML|113=Y|150=0|151=50|167=FUT|200=201709|10=053|
20170803-22:05:42.210 : 8=FIX.4.2|9=238|35=D|34=134|49=TEST|50=Cert|52=20170803-22:05:42.201|56=PRODCH|1=TEST|11=180542200128NQU760stroberj18.03.01.d03.cme|21=2|22=8|38=50|40=1|44=0|48=NQU7|54=1|55=NQU7|59=0|60=20170803-22:05:42|100=2|847=1001|8561=99|8563=1|8565=.5|10=235|
20170803-22:05:42.304 : 8=FIX.4.2|9=299|35=8|34=137|49=PRODCH|52=20170803-22:05:42.304|56=TEST|57=Cert|1=TEST|6=0|11=180542200128NQU760stroberj18.03.01.d03.cme|14=0|17=S_CH1OU4QPIV|20=0|22=8|31=0|32=0|37=00000125__PRODCH|38=50|39=0|48=NQU7|54=1|55=NQU7|60=20170803-22:05:42.303|76=BAML|113=Y|150=0|151=50|167=FUT|200=201709|10=113|
20170803-22:05:42.313 : 8=FIX.4.2|9=224|35=D|34=135|49=TEST|50=Cert|52=20170803-22:05:42.304|56=PRODCH|1=TEST|11=180542303610PAU761morntestbolt18.03.01.d03.cme|21=2|22=8|38=5|40=1|44=0|48=PAU7|54=2|55=PAU7|59=0|60=20170803-22:05:42|100=2|847=1002|8561=8|10=049|
20170803-22:05:42.316 : 8=FIX.4.2|9=302|35=8|34=138|49=PRODCH|52=20170803-22:05:42.316|56=TEST|57=Cert|1=TEST|6=0|11=180542303610PAU761morntestbolt18.03.01.d03.cme|14=0|17=B_CH1OU4QPI25|20=0|22=8|31=0|32=0|37=00000126__PRODCH|38=5|39=0|48=PAU7|54=2|55=PAU7|60=20170803-22:05:42.316|76=BAML|113=Y|150=0|151=5|167=FUT|200=201709|10=165|
20170803-22:05:42.318 : 8=FIX.4.2|9=310|35=8|34=139|49=PRODCH|52=20170803-22:05:42.318|56=TEST|57=Cert|1=TEST|6=883.6|11=180542303610PAU761morntestbolt18.03.01.d03.cme|14=1|17=B_CH1OU4QPI26|20=0|22=8|31=883.6|32=1|37=00000126__PRODCH|38=5|39=1|48=PAU7|54=2|55=PAU7|60=20170803-22:05:42.317|76=BAML|113=Y|150=1|151=4|167=FUT|200=201709|10=090|
20170803-22:05:42.416 : 8=FIX.4.2|9=238|35=D|34=136|49=TEST|50=Cert|52=20170803-22:05:42.407|56=PRODCH|1=TEST|11=180542406248PAU762stroberj18.03.01.d03.cme|21=2|22=8|38=50|40=1|44=0|48=PAU7|54=2|55=PAU7|59=0|60=20170803-22:05:42|100=2|847=1001|8561=99|8563=1|8565=.5|10=217|
20170803-22:05:42.499 : 8=FIX.4.2|9=299|35=8|34=140|49=PRODCH|52=20170803-22:05:42.499|56=TEST|57=Cert|1=TEST|6=0|11=180542406248PAU762stroberj18.03.01.d03.cme|14=0|17=S_CH1OU4QPIW|20=0|22=8|31=0|32=0|37=00000127__PRODCH|38=50|39=0|48=PAU7|54=2|55=PAU7|60=20170803-22:05:42.498|76=BAML|113=Y|150=0|151=50|167=FUT|200=201709|10=112|
20170803-22:05:42.518 : 8=FIX.4.2|9=224|35=D|34=137|49=TEST|50=Cert|52=20170803-22:05:42.509|56=PRODCH|1=TEST|11=180542508096PLV763morntestbolt18.03.01.d03.cme|21=2|22=8|38=5|40=1|44=0|48=PLV7|54=1|55=PLV7|59=0|60=20170803-22:05:42|100=2|847=1002|8561=8|10=110|
20170803-22:05:42.521 : 8=FIX.4.2|9=302|35=8|34=141|49=PRODCH|52=20170803-22:05:42.521|56=TEST|57=Cert|1=TEST|6=0|11=180542508096PLV763morntestbolt18.03.01.d03.cme|14=0|17=B_CH1OU4QPI2A|20=0|22=8|31=0|32=0|37=00000128__PRODCH|38=5|39=0|48=PLV7|54=1|55=PLV7|60=20170803-22:05:42.520|76=BAML|113=Y|150=0|151=5|167=FUT|200=201710|10=212|
20170803-22:05:42.521 : 8=FIX.4.2|9=310|35=8|34=142|49=PRODCH|52=20170803-22:05:42.521|56=TEST|57=Cert|1=TEST|6=966.4|11=180542508096PLV763morntestbolt18.03.01.d03.cme|14=1|17=B_CH1OU4QPI2B|20=0|22=8|31=966.4|32=1|37=00000128__PRODCH|38=5|39=1|48=PLV7|54=1|55=PLV7|60=20170803-22:05:42.521|76=BAML|113=Y|150=1|151=4|167=FUT|200=201710|10=135|
20170803-22:05:42.623 : 8=FIX.4.2|9=238|35=D|34=138|49=TEST|50=Cert|52=20170803-22:05:42.614|56=PRODCH|1=TEST|11=180542613440PLV764stroberj18.03.01.d03.cme|21=2|22=8|38=50|40=1|44=0|48=PLV7|54=1|55=PLV7|59=0|60=20170803-22:05:42|100=2|847=1001|8561=99|8563=1|8565=.5|10=250|
20170803-22:05:42.700 : 8=FIX.4.2|9=299|35=8|34=143|49=PRODCH|52=20170803-22:05:42.700|56=TEST|57=Cert|1=TEST|6=0|11=180542613440PLV764stroberj18.03.01.d03.cme|14=0|17=S_CH1OU4QPIX|20=0|22=8|31=0|32=0|37=00000129__PRODCH|38=50|39=0|48=PLV7|54=1|55=PLV7|60=20170803-22:05:42.700|76=BAML|113=Y|150=0|151=50|167=FUT|200=201710|10=112|
20170803-22:05:42.730 : 8=FIX.4.2|9=224|35=D|34=139|49=TEST|50=Cert|52=20170803-22:05:42.721|56=PRODCH|1=TEST|11=180542720226RBU765morntestbolt18.03.01.d03.cme|21=2|22=8|38=5|40=1|44=0|48=RBU7|54=2|55=RBU7|59=0|60=20170803-22:05:42|100=2|847=1002|8561=8|10=075|
20170803-22:05:42.733 : 8=FIX.4.2|9=302|35=8|34=144|49=PRODCH|52=20170803-22:05:42.733|56=TEST|57=Cert|1=TEST|6=0|11=180542720226RBU765morntestbolt18.03.01.d03.cme|14=0|17=B_CH1OU4QPI2F|20=0|22=8|31=0|32=0|37=00000130__PRODCH|38=5|39=0|48=RBU7|54=2|55=RBU7|60=20170803-22:05:42.732|76=BAML|113=Y|150=0|151=5|167=FUT|200=201709|10=198|
20170803-22:05:42.734 : 8=FIX.4.2|9=312|35=8|34=145|49=PRODCH|52=20170803-22:05:42.734|56=TEST|57=Cert|1=TEST|6=163.39|11=180542720226RBU765morntestbolt18.03.01.d03.cme|14=1|17=B_CH1OU4QPI2G|20=0|22=8|31=163.39|32=1|37=00000130__PRODCH|38=5|39=1|48=RBU7|54=2|55=RBU7|60=20170803-22:05:42.733|76=BAML|113=Y|150=1|151=4|167=FUT|200=201709|10=214|
20170803-22:05:42.774 : 8=FIX.4.2|9=312|35=8|34=146|49=PRODCH|52=20170803-22:05:42.774|56=TEST|57=Cert|1=TEST|6=163.395|11=180542720226RBU765morntestbolt18.03.01.d03.cme|14=2|17=B_CH1OU4QPI2H|20=0|22=8|31=163.4|32=1|37=00000130__PRODCH|38=5|39=1|48=RBU7|54=2|55=RBU7|60=20170803-22:05:42.773|76=BAML|113=Y|150=1|151=3|167=FUT|200=201709|10=221|
20170803-22:05:42.814 : 8=FIX.4.2|9=321|35=8|34=147|49=PRODCH|52=20170803-22:05:42.814|56=TEST|57=Cert|1=TEST|6=163.396666666667|11=180542720226RBU765morntestbolt18.03.01.d03.cme|14=3|17=B_CH1OU4QPI2J|20=0|22=8|31=163.4|32=1|37=00000130__PRODCH|38=5|39=1|48=RBU7|54=2|55=RBU7|60=20170803-22:05:42.814|76=BAML|113=Y|150=1|151=2|167=FUT|200=201709|10=191|
20170803-22:05:42.836 : 8=FIX.4.2|9=238|35=D|34=140|49=TEST|50=Cert|52=20170803-22:05:42.827|56=PRODCH|1=TEST|11=180542826558RBU766stroberj18.03.01.d03.cme|21=2|22=8|38=50|40=1|44=0|48=RBU7|54=2|55=RBU7|59=0|60=20170803-22:05:42|100=2|847=1001|8561=99|8563=1|8565=.5|10=241|
20170803-22:05:42.855 : 8=FIX.4.2|9=313|35=8|34=148|49=PRODCH|52=20170803-22:05:42.855|56=TEST|57=Cert|1=TEST|6=163.3975|11=180542720226RBU765morntestbolt18.03.01.d03.cme|14=4|17=B_CH1OU4QPI2L|20=0|22=8|31=163.4|32=1|37=00000130__PRODCH|38=5|39=1|48=RBU7|54=2|55=RBU7|60=20170803-22:05:42.855|76=BAML|113=Y|150=1|151=1|167=FUT|200=201709|10=028|
20170803-22:05:42.896 : 8=FIX.4.2|9=312|35=8|34=149|49=PRODCH|52=20170803-22:05:42.896|56=TEST|57=Cert|1=TEST|6=163.398|11=180542720226RBU765morntestbolt18.03.01.d03.cme|14=5|17=B_CH1OU4QPI2N|20=0|22=8|31=163.4|32=1|37=00000130__PRODCH|38=5|39=2|48=RBU7|54=2|55=RBU7|60=20170803-22:05:42.896|76=BAML|113=Y|150=2|151=0|167=FUT|200=201709|10=246|
20170803-22:05:42.936 : 8=FIX.4.2|9=299|35=8|34=150|49=PRODCH|52=20170803-22:05:42.936|56=TEST|57=Cert|1=TEST|6=0|11=180542826558RBU766stroberj18.03.01.d03.cme|14=0|17=S_CH1OU4QPIY|20=0|22=8|31=0|32=0|37=00000131__PRODCH|38=50|39=0|48=RBU7|54=2|55=RBU7|60=20170803-22:05:42.935|76=BAML|113=Y|150=0|151=50|167=FUT|200=201709|10=125|
20170803-22:05:42.942 : 8=FIX.4.2|9=224|35=D|34=141|49=TEST|50=Cert|52=20170803-22:05:42.933|56=PRODCH|1=TEST|11=180542932475SIU767morntestbolt18.03.01.d03.cme|21=2|22=8|38=5|40=1|44=0|48=SIU7|54=1|55=SIU7|59=0|60=20170803-22:05:42|100=2|847=1002|8561=8|10=109|
20170803-22:05:42.945 : 8=FIX.4.2|9=302|35=8|34=151|49=PRODCH|52=20170803-22:05:42.945|56=TEST|57=Cert|1=TEST|6=0|11=180542932475SIU767morntestbolt18.03.01.d03.cme|14=0|17=B_CH1OU4QPI2P|20=0|22=8|31=0|32=0|37=00000132__PRODCH|38=5|39=0|48=SIU7|54=1|55=SIU7|60=20170803-22:05:42.944|76=BAML|113=Y|150=0|151=5|167=FUT|200=201709|10=254|
20170803-22:05:42.946 : 8=FIX.4.2|9=310|35=8|34=152|49=PRODCH|52=20170803-22:05:42.946|56=TEST|57=Cert|1=TEST|6=16.64|11=180542932475SIU767morntestbolt18.03.01.d03.cme|14=2|17=B_CH1OU4QPI2Q|20=0|22=8|31=16.64|32=2|37=00000132__PRODCH|38=5|39=1|48=SIU7|54=1|55=SIU7|60=20170803-22:05:42.945|76=BAML|113=Y|150=1|151=3|167=FUT|200=201709|10=163|
20170803-22:05:43.048 : 8=FIX.4.2|9=238|35=D|34=142|49=TEST|50=Cert|52=20170803-22:05:43.039|56=PRODCH|1=TEST|11=180543037826SIU768stroberj18.03.01.d03.cme|21=2|22=8|38=50|40=1|44=0|48=SIU7|54=1|55=SIU7|59=0|60=20170803-22:05:43|100=2|847=1001|8561=99|8563=1|8565=.5|10=002|
20170803-22:05:43.137 : 8=FIX.4.2|9=299|35=8|34=153|49=PRODCH|52=20170803-22:05:43.137|56=TEST|57=Cert|1=TEST|6=0|11=180543037826SIU768stroberj18.03.01.d03.cme|14=0|17=S_CH1OU4QPJZ|20=0|22=8|31=0|32=0|37=00000133__PRODCH|38=50|39=0|48=SIU7|54=1|55=SIU7|60=20170803-22:05:43.136|76=BAML|113=Y|150=0|151=50|167=FUT|200=201709|10=138|
20170803-22:05:43.150 : 8=FIX.4.2|9=224|35=D|34=143|49=TEST|50=Cert|52=20170803-22:05:43.140|56=PRODCH|1=TEST|11=180543139562TNU769morntestbolt18.03.01.d03.cme|21=2|22=8|38=5|40=1|44=0|48=TNU7|54=2|55=TNU7|59=0|60=20170803-22:05:43|100=2|847=1002|8561=8|10=121|
20170803-22:05:43.152 : 8=FIX.4.2|9=302|35=8|34=154|49=PRODCH|52=20170803-22:05:43.152|56=TEST|57=Cert|1=TEST|6=0|11=180543139562TNU769morntestbolt18.03.01.d03.cme|14=0|17=B_CH1OU4QPJ2Y|20=0|22=8|31=0|32=0|37=00000134__PRODCH|38=5|39=0|48=TNU7|54=2|55=TNU7|60=20170803-22:05:43.152|76=BAML|113=Y|150=0|151=5|167=FUT|200=201709|10=014|
20170803-22:05:43.255 : 8=FIX.4.2|9=238|35=D|34=144|49=TEST|50=Cert|52=20170803-22:05:43.246|56=PRODCH|1=TEST|11=180543245000TNU770stroberj18.03.01.d03.cme|21=2|22=8|38=50|40=1|44=0|48=TNU7|54=2|55=TNU7|59=0|60=20170803-22:05:43|100=2|847=1001|8561=99|8563=1|8565=.5|10=001|
20170803-22:05:43.368 : 8=FIX.4.2|9=300|35=8|34=155|49=PRODCH|52=20170803-22:05:43.368|56=TEST|57=Cert|1=TEST|6=0|11=180543245000TNU770stroberj18.03.01.d03.cme|14=0|17=S_CH1OU4QPJ10|20=0|22=8|31=0|32=0|37=00000135__PRODCH|38=50|39=0|48=TNU7|54=2|55=TNU7|60=20170803-22:05:43.367|76=BAML|113=Y|150=0|151=50|167=FUT|200=201709|10=141|
20170803-22:05:43.392 : 8=FIX.4.2|9=224|35=D|34=145|49=TEST|50=Cert|52=20170803-22:05:43.383|56=PRODCH|1=TEST|11=180543382493UBU771morntestbolt18.03.01.d03.cme|21=2|22=8|38=5|40=1|44=0|48=UBU7|54=1|55=UBU7|59=0|60=20170803-22:05:43|100=2|847=1002|8561=8|10=094|
20170803-22:05:43.395 : 8=FIX.4.2|9=302|35=8|34=156|49=PRODCH|52=20170803-22:05:43.395|56=TEST|57=Cert|1=TEST|6=0|11=180543382493UBU771morntestbolt18.03.01.d03.cme|14=0|17=B_CH1OU4QPJ31|20=0|22=8|31=0|32=0|37=00000136__PRODCH|38=5|39=0|48=UBU7|54=1|55=UBU7|60=20170803-22:05:43.394|76=BAML|113=Y|150=0|151=5|167=FUT|200=201709|10=214|
20170803-22:05:43.497 : 8=FIX.4.2|9=238|35=D|34=146|49=TEST|50=Cert|52=20170803-22:05:43.488|56=PRODCH|1=TEST|11=180543487623UBU772stroberj18.03.01.d03.cme|21=2|22=8|38=50|40=1|44=0|48=UBU7|54=1|55=UBU7|59=0|60=20170803-22:05:43|100=2|847=1001|8561=99|8563=1|8565=.5|10=254|
20170803-22:05:43.570 : 8=FIX.4.2|9=300|35=8|34=157|49=PRODCH|52=20170803-22:05:43.570|56=TEST|57=Cert|1=TEST|6=0|11=180543487623UBU772stroberj18.03.01.d03.cme|14=0|17=S_CH1OU4QPJ11|20=0|22=8|31=0|32=0|37=00000137__PRODCH|38=50|39=0|48=UBU7|54=1|55=UBU7|60=20170803-22:05:43.569|76=BAML|113=Y|150=0|151=50|167=FUT|200=201709|10=132|
20170803-22:05:43.600 : 8=FIX.4.2|9=224|35=D|34=147|49=TEST|50=Cert|52=20170803-22:05:43.591|56=PRODCH|1=TEST|11=180543590104YMU773morntestbolt18.03.01.d03.cme|21=2|22=8|38=5|40=1|44=0|48=YMU7|54=2|55=YMU7|59=0|60=20170803-22:05:43|100=2|847=1002|8561=8|10=135|
20170803-22:05:43.602 : 8=FIX.4.2|9=302|35=8|34=158|49=PRODCH|52=20170803-22:05:43.602|56=TEST|57=Cert|1=TEST|6=0|11=180543590104YMU773morntestbolt18.03.01.d03.cme|14=0|17=B_CH1OU4QPJ34|20=0|22=8|31=0|32=0|37=00000138__PRODCH|38=5|39=0|48=YMU7|54=2|55=YMU7|60=20170803-22:05:43.602|76=BAML|113=Y|150=0|151=5|167=FUT|200=201709|10=242|
20170803-22:05:43.705 : 8=FIX.4.2|9=238|35=D|34=148|49=TEST|50=Cert|52=20170803-22:05:43.696|56=PRODCH|1=TEST|11=180543695057YMU774stroberj18.03.01.d03.cme|21=2|22=8|38=50|40=1|44=0|48=YMU7|54=2|55=YMU7|59=0|60=20170803-22:05:43|100=2|847=1001|8561=99|8563=1|8565=.5|10=051|
20170803-22:05:43.769 : 8=FIX.4.2|9=300|35=8|34=159|49=PRODCH|52=20170803-22:05:43.769|56=TEST|57=Cert|1=TEST|6=0|11=180543695057YMU774stroberj18.03.01.d03.cme|14=0|17=S_CH1OU4QPJ12|20=0|22=8|31=0|32=0|37=00000139__PRODCH|38=50|39=0|48=YMU7|54=2|55=YMU7|60=20170803-22:05:43.768|76=BAML|113=Y|150=0|151=50|167=FUT|200=201709|10=198|
20170803-22:05:43.807 : 8=FIX.4.2|9=224|35=D|34=149|49=TEST|50=Cert|52=20170803-22:05:43.798|56=PRODCH|1=TEST|11=180543797254ZBU775morntestbolt18.03.01.d03.cme|21=2|22=8|38=5|40=1|44=0|48=ZBU7|54=1|55=ZBU7|59=0|60=20170803-22:05:43|100=2|847=1002|8561=8|10=132|
20170803-22:05:43.810 : 8=FIX.4.2|9=302|35=8|34=160|49=PRODCH|52=20170803-22:05:43.810|56=TEST|57=Cert|1=TEST|6=0|11=180543797254ZBU775morntestbolt18.03.01.d03.cme|14=0|17=B_CH1OU4QPJ37|20=0|22=8|31=0|32=0|37=00000140__PRODCH|38=5|39=0|48=ZBU7|54=1|55=ZBU7|60=20170803-22:05:43.809|76=BAML|113=Y|150=0|151=5|167=FUT|200=201709|10=227|
20170803-22:05:43.909 : 8=FIX.4.2|9=238|35=D|34=150|49=TEST|50=Cert|52=20170803-22:05:43.900|56=PRODCH|1=TEST|11=180543899184ZBU776stroberj18.03.01.d03.cme|21=2|22=8|38=50|40=1|44=0|48=ZBU7|54=1|55=ZBU7|59=0|60=20170803-22:05:43|100=2|847=1001|8561=99|8563=1|8565=.5|10=010|
20170803-22:05:43.989 : 8=FIX.4.2|9=300|35=8|34=161|49=PRODCH|52=20170803-22:05:43.989|56=TEST|57=Cert|1=TEST|6=0|11=180543899184ZBU776stroberj18.03.01.d03.cme|14=0|17=S_CH1OU4QPJ13|20=0|22=8|31=0|32=0|37=00000141__PRODCH|38=50|39=0|48=ZBU7|54=1|55=ZBU7|60=20170803-22:05:43.988|76=BAML|113=Y|150=0|151=50|167=FUT|200=201709|10=171|
20170803-22:05:44.016 : 8=FIX.4.2|9=224|35=D|34=151|49=TEST|50=Cert|52=20170803-22:05:44.007|56=PRODCH|1=TEST|11=180544006705ZCZ777morntestbolt18.03.01.d03.cme|21=2|22=8|38=5|40=1|44=0|48=ZCZ7|54=2|55=ZCZ7|59=0|60=20170803-22:05:44|100=2|847=1002|8561=8|10=116|
20170803-22:05:44.019 : 8=FIX.4.2|9=302|35=8|34=162|49=PRODCH|52=20170803-22:05:44.019|56=TEST|57=Cert|1=TEST|6=0|11=180544006705ZCZ777morntestbolt18.03.01.d03.cme|14=0|17=B_CH1OU4QPK38|20=0|22=8|31=0|32=0|37=00000142__PRODCH|38=5|39=0|48=ZCZ7|54=2|55=ZCZ7|60=20170803-22:05:44.018|76=BAML|113=Y|150=0|151=5|167=FUT|200=201712|10=228|
20170803-22:05:44.121 : 8=FIX.4.2|9=238|35=D|34=152|49=TEST|50=Cert|52=20170803-22:05:44.112|56=PRODCH|1=TEST|11=180544111268ZCZ778stroberj18.03.01.d03.cme|21=2|22=8|38=50|40=1|44=0|48=ZCZ7|54=2|55=ZCZ7|59=0|60=20170803-22:05:44|100=2|847=1001|8561=99|8563=1|8565=.5|10=011|
20170803-22:05:44.158 : 8=FIX.4.2|9=300|35=8|34=163|49=PRODCH|52=20170803-22:05:44.158|56=TEST|57=Cert|1=TEST|6=0|11=180544111268ZCZ778stroberj18.03.01.d03.cme|14=0|17=S_CH1OU4QPK14|20=0|22=8|31=0|32=0|37=00000143__PRODCH|38=50|39=0|48=ZCZ7|54=2|55=ZCZ7|60=20170803-22:05:44.157|76=BAML|113=Y|150=0|151=50|167=FUT|200=201712|10=151|
20170803-22:05:44.223 : 8=FIX.4.2|9=224|35=D|34=153|49=TEST|50=Cert|52=20170803-22:05:44.214|56=PRODCH|1=TEST|11=180544213401ZFU779morntestbolt18.03.01.d03.cme|21=2|22=8|38=5|40=1|44=0|48=ZFU7|54=1|55=ZFU7|59=0|60=20170803-22:05:44|100=2|847=1002|8561=8|10=106|
20170803-22:05:44.258 : 8=FIX.4.2|9=307|35=8|34=164|49=PRODCH|52=20170803-22:05:44.258|56=TEST|57=Cert|1=TEST|6=0|11=180544213401ZFU779morntestbolt18.03.01.d03.cme|14=0|17=SOR_CH1OU4QPK3|20=0|22=8|31=0|32=0|37=400000003__PRODCH4|38=5|39=0|48=ZFU7|54=1|55=ZFU7|60=20170803-22:05:44.257|76=BAML|113=Y|150=0|151=5|167=FUT|200=201709|10=096|
20170803-22:05:44.327 : 8=FIX.4.2|9=238|35=D|34=154|49=TEST|50=Cert|52=20170803-22:05:44.318|56=PRODCH|1=TEST|11=180544317427ZFU780stroberj18.03.01.d03.cme|21=2|22=8|38=50|40=1|44=0|48=ZFU7|54=1|55=ZFU7|59=0|60=20170803-22:05:44|100=2|847=1001|8561=99|8563=1|8565=.5|10=012|
20170803-22:05:44.421 : 8=FIX.4.2|9=305|35=8|34=165|49=PRODCH|52=20170803-22:05:44.421|56=TEST|57=Cert|1=TEST|6=0|11=180544317427ZFU780stroberj18.03.01.d03.cme|14=0|17=SOR_CH1OU4QPK4|20=0|22=8|31=0|32=0|37=400000004__PRODCH4|38=50|39=0|48=ZFU7|54=1|55=ZFU7|60=20170803-22:05:44.420|76=BAML|113=Y|150=0|151=50|167=FUT|200=201709|10=244|
20170803-22:05:44.433 : 8=FIX.4.2|9=224|35=D|34=155|49=TEST|50=Cert|52=20170803-22:05:44.422|56=PRODCH|1=TEST|11=180544421756ZLZ781morntestbolt18.03.01.d03.cme|21=2|22=8|38=5|40=1|44=0|48=ZLZ7|54=2|55=ZLZ7|59=0|60=20170803-22:05:44|100=2|847=1002|8561=8|10=150|
20170803-22:05:44.435 : 8=FIX.4.2|9=302|35=8|34=166|49=PRODCH|52=20170803-22:05:44.435|56=TEST|57=Cert|1=TEST|6=0|11=180544421756ZLZ781morntestbolt18.03.01.d03.cme|14=0|17=B_CH1OU4QPK39|20=0|22=8|31=0|32=0|37=00000146__PRODCH|38=5|39=0|48=ZLZ7|54=2|55=ZLZ7|60=20170803-22:05:44.434|76=BAML|113=Y|150=0|151=5|167=FUT|200=201712|10=014|
20170803-22:05:44.539 : 8=FIX.4.2|9=238|35=D|34=156|49=TEST|50=Cert|52=20170803-22:05:44.530|56=PRODCH|1=TEST|11=180544529469ZLZ782stroberj18.03.01.d03.cme|21=2|22=8|38=50|40=1|44=0|48=ZLZ7|54=2|55=ZLZ7|59=0|60=20170803-22:05:44|100=2|847=1001|8561=99|8563=1|8565=.5|10=057|
20170803-22:05:44.578 : 8=FIX.4.2|9=300|35=8|34=167|49=PRODCH|52=20170803-22:05:44.578|56=TEST|57=Cert|1=TEST|6=0|11=180544529469ZLZ782stroberj18.03.01.d03.cme|14=0|17=S_CH1OU4QPK15|20=0|22=8|31=0|32=0|37=00000147__PRODCH|38=50|39=0|48=ZLZ7|54=2|55=ZLZ7|60=20170803-22:05:44.577|76=BAML|113=Y|150=0|151=50|167=FUT|200=201712|10=210|
20170803-22:05:44.647 : 8=FIX.4.2|9=224|35=D|34=157|49=TEST|50=Cert|52=20170803-22:05:44.637|56=PRODCH|1=TEST|11=180544636822ZMZ783morntestbolt18.03.01.d03.cme|21=2|22=8|38=5|40=1|44=0|48=ZMZ7|54=1|55=ZMZ7|59=0|60=20170803-22:05:44|100=2|847=1002|8561=8|10=166|
20170803-22:05:44.650 : 8=FIX.4.2|9=302|35=8|34=168|49=PRODCH|52=20170803-22:05:44.650|56=TEST|57=Cert|1=TEST|6=0|11=180544636822ZMZ783morntestbolt18.03.01.d03.cme|14=0|17=B_CH1OU4QPK3A|20=0|22=8|31=0|32=0|37=00000148__PRODCH|38=5|39=0|48=ZMZ7|54=1|55=ZMZ7|60=20170803-22:05:44.648|76=BAML|113=Y|150=0|151=5|167=FUT|200=201712|10=038|
20170803-22:05:44.751 : 8=FIX.4.2|9=238|35=D|34=158|49=TEST|50=Cert|52=20170803-22:05:44.742|56=PRODCH|1=TEST|11=180544741134ZMZ784stroberj18.03.01.d03.cme|21=2|22=8|38=50|40=1|44=0|48=ZMZ7|54=1|55=ZMZ7|59=0|60=20170803-22:05:44|100=2|847=1001|8561=99|8563=1|8565=.5|10=053|
20170803-22:05:44.791 : 8=FIX.4.2|9=300|35=8|34=169|49=PRODCH|52=20170803-22:05:44.791|56=TEST|57=Cert|1=TEST|6=0|11=180544741134ZMZ784stroberj18.03.01.d03.cme|14=0|17=S_CH1OU4QPK16|20=0|22=8|31=0|32=0|37=00000149__PRODCH|38=50|39=0|48=ZMZ7|54=1|55=ZMZ7|60=20170803-22:05:44.790|76=BAML|113=Y|150=0|151=50|167=FUT|200=201712|10=198|
20170803-22:05:44.852 : 8=FIX.4.2|9=224|35=D|34=159|49=TEST|50=Cert|52=20170803-22:05:44.842|56=PRODCH|1=TEST|11=180544841824ZNU785morntestbolt18.03.01.d03.cme|21=2|22=8|38=5|40=1|44=0|48=ZNU7|54=2|55=ZNU7|59=0|60=20170803-22:05:44|100=2|847=1002|8561=8|10=157|
20170803-22:05:44.854 : 8=FIX.4.2|9=302|35=8|34=170|49=PRODCH|52=20170803-22:05:44.854|56=TEST|57=Cert|1=TEST|6=0|11=180544841824ZNU785morntestbolt18.03.01.d03.cme|14=0|17=B_CH1OU4QPK3C|20=0|22=8|31=0|32=0|37=00000150__PRODCH|38=5|39=0|48=ZNU7|54=2|55=ZNU7|60=20170803-22:05:44.854|76=BAML|113=Y|150=0|151=5|167=FUT|200=201709|10=028|
20170803-22:05:44.955 : 8=FIX.4.2|9=238|35=D|34=160|49=TEST|50=Cert|52=20170803-22:05:44.946|56=PRODCH|1=TEST|11=180544945748ZNU786stroberj18.03.01.d03.cme|21=2|22=8|38=50|40=1|44=0|48=ZNU7|54=2|55=ZNU7|59=0|60=20170803-22:05:44|100=2|847=1001|8561=99|8563=1|8565=.5|10=060|
20170803-22:05:45.060 : 8=FIX.4.2|9=224|35=D|34=161|49=TEST|50=Cert|52=20170803-22:05:45.051|56=PRODCH|1=TEST|11=180545049979ZSX787morntestbolt18.03.01.d03.cme|21=2|22=8|38=5|40=1|44=0|48=ZSX7|54=1|55=ZSX7|59=0|60=20170803-22:05:45|100=2|847=1002|8561=8|10=181|
20170803-22:05:45.062 : 8=FIX.4.2|9=302|35=8|34=171|49=PRODCH|52=20170803-22:05:45.062|56=TEST|57=Cert|1=TEST|6=0|11=180545049979ZSX787morntestbolt18.03.01.d03.cme|14=0|17=B_CH1OU4QPL3D|20=0|22=8|31=0|32=0|37=00000152__PRODCH|38=5|39=0|48=ZSX7|54=1|55=ZSX7|60=20170803-22:05:45.061|76=BAML|113=Y|150=0|151=5|167=FUT|200=201711|10=046|
20170803-22:05:45.075 : 8=FIX.4.2|9=300|35=8|34=172|49=PRODCH|52=20170803-22:05:45.075|56=TEST|57=Cert|1=TEST|6=0|11=180544945748ZNU786stroberj18.03.01.d03.cme|14=0|17=S_CH1OU4QPL17|20=0|22=8|31=0|32=0|37=00000151__PRODCH|38=50|39=0|48=ZNU7|54=2|55=ZNU7|60=20170803-22:05:45.074|76=BAML|113=Y|150=0|151=50|167=FUT|200=201709|10=193|
20170803-22:05:45.170 : 8=FIX.4.2|9=238|35=D|34=162|49=TEST|50=Cert|52=20170803-22:05:45.161|56=PRODCH|1=TEST|11=180545160031ZSX788stroberj18.03.01.d03.cme|21=2|22=8|38=50|40=1|44=0|48=ZSX7|54=1|55=ZSX7|59=0|60=20170803-22:05:45|100=2|847=1001|8561=99|8563=1|8565=.5|10=053|
20170803-22:05:45.205 : 8=FIX.4.2|9=300|35=8|34=173|49=PRODCH|52=20170803-22:05:45.205|56=TEST|57=Cert|1=TEST|6=0|11=180545160031ZSX788stroberj18.03.01.d03.cme|14=0|17=S_CH1OU4QPL18|20=0|22=8|31=0|32=0|37=00000153__PRODCH|38=50|39=0|48=ZSX7|54=1|55=ZSX7|60=20170803-22:05:45.205|76=BAML|113=Y|150=0|151=50|167=FUT|200=201711|10=181|
20170803-22:05:45.277 : 8=FIX.4.2|9=224|35=D|34=163|49=TEST|50=Cert|52=20170803-22:05:45.268|56=PRODCH|1=TEST|11=180545267327ZTU789morntestbolt18.03.01.d03.cme|21=2|22=8|38=5|40=1|44=0|48=ZTU7|54=2|55=ZTU7|59=0|60=20170803-22:05:45|100=2|847=1002|8561=8|10=179|
20170803-22:05:45.280 : 8=FIX.4.2|9=302|35=8|34=174|49=PRODCH|52=20170803-22:05:45.280|56=TEST|57=Cert|1=TEST|6=0|11=180545267327ZTU789morntestbolt18.03.01.d03.cme|14=0|17=B_CH1OU4QPL3F|20=0|22=8|31=0|32=0|37=00000154__PRODCH|38=5|39=0|48=ZTU7|54=2|55=ZTU7|60=20170803-22:05:45.279|76=BAML|113=Y|150=0|151=5|167=FUT|200=201709|10=059|
20170803-22:05:45.387 : 8=FIX.4.2|9=238|35=D|34=164|49=TEST|50=Cert|52=20170803-22:05:45.378|56=PRODCH|1=TEST|11=180545377294ZTU790stroberj18.03.01.d03.cme|21=2|22=8|38=50|40=1|44=0|48=ZTU7|54=2|55=ZTU7|59=0|60=20170803-22:05:45|100=2|847=1001|8561=99|8563=1|8565=.5|10=074|
20170803-22:05:45.453 : 8=FIX.4.2|9=300|35=8|34=175|49=PRODCH|52=20170803-22:05:45.453|56=TEST|57=Cert|1=TEST|6=0|11=180545377294ZTU790stroberj18.03.01.d03.cme|14=0|17=S_CH1OU4QPL1B|20=0|22=8|31=0|32=0|37=00000155__PRODCH|38=50|39=0|48=ZTU7|54=2|55=ZTU7|60=20170803-22:05:45.453|76=BAML|113=Y|150=0|151=50|167=FUT|200=201709|10=221|
20170803-22:05:45.491 : 8=FIX.4.2|9=224|35=D|34=165|49=TEST|50=Cert|52=20170803-22:05:45.482|56=PRODCH|1=TEST|11=180545480924ZWU791morntestbolt18.03.01.d03.cme|21=2|22=8|38=5|40=1|44=0|48=ZWU7|54=1|55=ZWU7|59=0|60=20170803-22:05:45|100=2|847=1002|8561=8|10=180|
20170803-22:05:45.493 : 8=FIX.4.2|9=302|35=8|34=176|49=PRODCH|52=20170803-22:05:45.493|56=TEST|57=Cert|1=TEST|6=0|11=180545480924ZWU791morntestbolt18.03.01.d03.cme|14=0|17=B_CH1OU4QPL3G|20=0|22=8|31=0|32=0|37=00000156__PRODCH|38=5|39=0|48=ZWU7|54=1|55=ZWU7|60=20170803-22:05:45.492|76=BAML|113=Y|150=0|151=5|167=FUT|200=201709|10=068|
20170803-22:05:45.604 : 8=FIX.4.2|9=238|35=D|34=166|49=TEST|50=Cert|52=20170803-22:05:45.595|56=PRODCH|1=TEST|11=180545594518ZWU792stroberj18.03.01.d03.cme|21=2|22=8|38=50|40=1|44=0|48=ZWU7|54=1|55=ZWU7|59=0|60=20170803-22:05:45|100=2|847=1001|8561=99|8563=1|8565=.5|10=087|
